{"contracts/certificate.sol":{"certificate":{"abi":[{"inputs":[],"stateMutability":"nonpayable","type":"constructor"},{"inputs":[{"internalType":"address","name":"sender","type":"address"},{"internalType":"uint256","name":"balance","type":"uint256"},{"internalType":"uint256","name":"needed","type":"uint256"},{"internalType":"uint256","name":"tokenId","type":"uint256"}],"name":"ERC1155InsufficientBalance","type":"error"},{"inputs":[{"internalType":"address","name":"approver","type":"address"}],"name":"ERC1155InvalidApprover","type":"error"},{"inputs":[{"internalType":"uint256","name":"idsLength","type":"uint256"},{"internalType":"uint256","name":"valuesLength","type":"uint256"}],"name":"ERC1155InvalidArrayLength","type":"error"},{"inputs":[{"internalType":"address","name":"operator","type":"address"}],"name":"ERC1155InvalidOperator","type":"error"},{"inputs":[{"internalType":"address","name":"receiver","type":"address"}],"name":"ERC1155InvalidReceiver","type":"error"},{"inputs":[{"internalType":"address","name":"sender","type":"address"}],"name":"ERC1155InvalidSender","type":"error"},{"inputs":[{"internalType":"address","name":"operator","type":"address"},{"internalType":"address","name":"owner","type":"address"}],"name":"ERC1155MissingApprovalForAll","type":"error"},{"inputs":[{"internalType":"string","name":"","type":"string"}],"name":"throwError","type":"error"},{"anonymous":false,"inputs":[{"indexed":true,"internalType":"address","name":"account","type":"address"},{"indexed":true,"internalType":"address","name":"operator","type":"address"},{"indexed":false,"internalType":"bool","name":"approved","type":"bool"}],"name":"ApprovalForAll","type":"event"},{"anonymous":false,"inputs":[{"indexed":true,"internalType":"address","name":"operator","type":"address"},{"indexed":true,"internalType":"address","name":"from","type":"address"},{"indexed":true,"internalType":"address","name":"to","type":"address"},{"indexed":false,"internalType":"uint256[]","name":"ids","type":"uint256[]"},{"indexed":false,"internalType":"uint256[]","name":"values","type":"uint256[]"}],"name":"TransferBatch","type":"event"},{"anonymous":false,"inputs":[{"indexed":true,"internalType":"address","name":"operator","type":"address"},{"indexed":true,"internalType":"address","name":"from","type":"address"},{"indexed":true,"internalType":"address","name":"to","type":"address"},{"indexed":false,"internalType":"uint256","name":"id","type":"uint256"},{"indexed":false,"internalType":"uint256","name":"value","type":"uint256"}],"name":"TransferSingle","type":"event"},{"anonymous":false,"inputs":[{"indexed":false,"internalType":"string","name":"value","type":"string"},{"indexed":true,"internalType":"uint256","name":"id","type":"uint256"}],"name":"URI","type":"event"},{"inputs":[{"internalType":"address","name":"","type":"address"}],"name":"allowedIssuer","outputs":[{"internalType":"bool","name":"access","type":"bool"},{"internalType":"address","name":"issuerAddress","type":"address"},{"internalType":"string","name":"organisationName","type":"string"},{"internalType":"uint256","name":"companyRegisteredNumber","type":"uint256"}],"stateMutability":"view","type":"function"},{"inputs":[{"internalType":"uint256","name":"id","type":"uint256"}],"name":"allowedMint","outputs":[],"stateMutability":"nonpayable","type":"function"},{"inputs":[{"internalType":"address","name":"","type":"address"}],"name":"allowedPerson","outputs":[{"internalType":"bool","name":"access","type":"bool"},{"internalType":"address","name":"certificateIssuer","type":"address"},{"internalType":"string","name":"typeOfCertificate","type":"string"}],"stateMutability":"view","type":"function"},{"inputs":[{"internalType":"address","name":"_issuerAddress","type":"address"},{"internalType":"string","name":"_organisationName","type":"string"},{"internalType":"uint256","name":"_companyRegisteredNumber","type":"uint256"}],"name":"allowingIssuer","outputs":[],"stateMutability":"nonpayable","type":"function"},{"inputs":[{"internalType":"address","name":"peopleAddress","type":"address"},{"internalType":"uint256","name":"certificateID","type":"uint256"},{"internalType":"string","name":"_typeOfCertificate","type":"string"}],"name":"allowingPeople","outputs":[],"stateMutability":"nonpayable","type":"function"},{"inputs":[{"internalType":"address","name":"account","type":"address"},{"internalType":"uint256","name":"id","type":"uint256"}],"name":"balanceOf","outputs":[{"internalType":"uint256","name":"","type":"uint256"}],"stateMutability":"view","type":"function"},{"inputs":[{"internalType":"address[]","name":"accounts","type":"address[]"},{"internalType":"uint256[]","name":"ids","type":"uint256[]"}],"name":"balanceOfBatch","outputs":[{"internalType":"uint256[]","name":"","type":"uint256[]"}],"stateMutability":"view","type":"function"},{"inputs":[{"internalType":"address","name":"certificateHolderAddress","type":"address"}],"name":"getDetailsOfCertificateHolder","outputs":[{"components":[{"internalType":"bool","name":"access","type":"bool"},{"internalType":"uint256[]","name":"id","type":"uint256[]"},{"internalType":"address","name":"certificateIssuer","type":"address"},{"internalType":"string","name":"typeOfCertificate","type":"string"}],"internalType":"struct certificate.people","name":"","type":"tuple"}],"stateMutability":"view","type":"function"},{"inputs":[{"internalType":"address","name":"certificateIssuer","type":"address"}],"name":"getDetailsOfCertificateIssuer","outputs":[{"components":[{"internalType":"bool","name":"access","type":"bool"},{"internalType":"address","name":"issuerAddress","type":"address"},{"internalType":"string","name":"organisationName","type":"string"},{"internalType":"uint256","name":"companyRegisteredNumber","type":"uint256"}],"internalType":"struct certificate.issuer","name":"","type":"tuple"}],"stateMutability":"view","type":"function"},{"inputs":[{"internalType":"address","name":"account","type":"address"},{"internalType":"address","name":"operator","type":"address"}],"name":"isApprovedForAll","outputs":[{"internalType":"bool","name":"","type":"bool"}],"stateMutability":"view","type":"function"},{"inputs":[],"name":"owner","outputs":[{"internalType":"address","name":"","type":"address"}],"stateMutability":"view","type":"function"},{"inputs":[{"internalType":"address","name":"_issuerAddress","type":"address"}],"name":"removingIssuer","outputs":[],"stateMutability":"nonpayable","type":"function"},{"inputs":[{"internalType":"address","name":"from","type":"address"},{"internalType":"address","name":"to","type":"address"},{"internalType":"uint256[]","name":"ids","type":"uint256[]"},{"internalType":"uint256[]","name":"values","type":"uint256[]"},{"internalType":"bytes","name":"data","type":"bytes"}],"name":"safeBatchTransferFrom","outputs":[],"stateMutability":"nonpayable","type":"function"},{"inputs":[{"internalType":"address","name":"from","type":"address"},{"internalType":"address","name":"to","type":"address"},{"internalType":"uint256","name":"id","type":"uint256"},{"internalType":"uint256","name":"value","type":"uint256"},{"internalType":"bytes","name":"data","type":"bytes"}],"name":"safeTransferFrom","outputs":[],"stateMutability":"nonpayable","type":"function"},{"inputs":[{"internalType":"address","name":"operator","type":"address"},{"internalType":"bool","name":"approved","type":"bool"}],"name":"setApprovalForAll","outputs":[],"stateMutability":"nonpayable","type":"function"},{"inputs":[{"internalType":"string","name":"newuri","type":"string"}],"name":"setURI","outputs":[],"stateMutability":"nonpayable","type":"function"},{"inputs":[{"internalType":"bytes4","name":"interfaceId","type":"bytes4"}],"name":"supportsInterface","outputs":[{"internalType":"bool","name":"","type":"bool"}],"stateMutability":"view","type":"function"},{"inputs":[{"internalType":"uint256","name":"id","type":"uint256"}],"name":"uri","outputs":[{"internalType":"string","name":"","type":"string"}],"stateMutability":"view","type":"function"}],"evm":{"bytecode":{"linkReferences":{},"object":"60806040523480156200001157600080fd5b5060405180606001604052806036815260200162004325603691396200003d816200008560201b60201c565b5033600360006101000a81548173ffffffffffffffffffffffffffffffffffffffff021916908373ffffffffffffffffffffffffffffffffffffffff160217905550620003fb565b806002908162000096919062000314565b5050565b600081519050919050565b7f4e487b7100000000000000000000000000000000000000000000000000000000600052604160045260246000fd5b7f4e487b7100000000000000000000000000000000000000000000000000000000600052602260045260246000fd5b600060028204905060018216806200011c57607f821691505b602082108103620001325762000131620000d4565b5b50919050565b60008190508160005260206000209050919050565b60006020601f8301049050919050565b600082821b905092915050565b6000600883026200019c7fffffffffffffffffffffffffffffffffffffffffffffffffffffffffffffffff826200015d565b620001a886836200015d565b95508019841693508086168417925050509392505050565b6000819050919050565b6000819050919050565b6000620001f5620001ef620001e984620001c0565b620001ca565b620001c0565b9050919050565b6000819050919050565b6200021183620001d4565b620002296200022082620001fc565b8484546200016a565b825550505050565b600090565b6200024062000231565b6200024d81848462000206565b505050565b5b8181101562000275576200026960008262000236565b60018101905062000253565b5050565b601f821115620002c4576200028e8162000138565b62000299846200014d565b81016020851015620002a9578190505b620002c1620002b8856200014d565b83018262000252565b50505b505050565b600082821c905092915050565b6000620002e960001984600802620002c9565b1980831691505092915050565b6000620003048383620002d6565b9150826002028217905092915050565b6200031f826200009a565b67ffffffffffffffff8111156200033b576200033a620000a5565b5b62000347825462000103565b6200035482828562000279565b600060209050601f8311600181146200038c576000841562000377578287015190505b620003838582620002f6565b865550620003f3565b601f1984166200039c8662000138565b60005b82811015620003c6578489015182556001820191506020850194506020810190506200039f565b86831015620003e65784890151620003e2601f891682620002d6565b8355505b6001600288020188555050505b505050505050565b613f1a806200040b6000396000f3fe608060405234801561001057600080fd5b50600436106101155760003560e01c80638da5cb5b116100a2578063d96a9f5011610071578063d96a9f5014610300578063e3602eca14610332578063e61703b81461034e578063e985e9c514610381578063f242432a146103b157610115565b80638da5cb5b1461027a5780639daca61414610298578063a22cb465146102c8578063d164214d146102e457610115565b80631ce75209116100e95780631ce75209146101c65780632eb2c2d6146101f65780634e1273f41461021257806357e4be9a14610242578063812ebfd11461025e57610115565b8062fdd58e1461011a57806301ffc9a71461014a57806302fe53051461017a5780630e89341c14610196575b600080fd5b610134600480360381019061012f91906128d2565b6103cd565b6040516101419190612921565b60405180910390f35b610164600480360381019061015f9190612994565b610427565b60405161017191906129dc565b60405180910390f35b610194600480360381019061018f9190612b3d565b610509565b005b6101b060048036038101906101ab9190612b86565b610693565b6040516101bd9190612c32565b60405180910390f35b6101e060048036038101906101db9190612c54565b6106ce565b6040516101ed9190612e11565b60405180910390f35b610210600480360381019061020b9190612f9c565b610882565b005b61022c6004803603810190610227919061312e565b61092a565b6040516102399190613215565b60405180910390f35b61025c60048036038101906102579190612b86565b610a39565b005b61027860048036038101906102739190613237565b610c58565b005b610282610e60565b60405161028f91906132b5565b60405180910390f35b6102b260048036038101906102ad9190612c54565b610e86565b6040516102bf9190613333565b60405180910390f35b6102e260048036038101906102dd9190613381565b610fec565b005b6102fe60048036038101906102f991906133c1565b611002565b005b61031a60048036038101906103159190612c54565b61128f565b60405161032993929190613430565b60405180910390f35b61034c60048036038101906103479190612c54565b61136e565b005b61036860048036038101906103639190612c54565b61145c565b604051610378949392919061346e565b60405180910390f35b61039b600480360381019061039691906134ba565b611541565b6040516103a891906129dc565b60405180910390f35b6103cb60048036038101906103c691906134fa565b6115d5565b005b600080600083815260200190815260200160002060008473ffffffffffffffffffffffffffffffffffffffff1673ffffffffffffffffffffffffffffffffffffffff16815260200190815260200160002054905092915050565b60007fd9b67a26000000000000000000000000000000000000000000000000000000007bffffffffffffffffffffffffffffffffffffffffffffffffffffffff1916827bffffffffffffffffffffffffffffffffffffffffffffffffffffffff191614806104f257507f0e89341c000000000000000000000000000000000000000000000000000000007bffffffffffffffffffffffffffffffffffffffffffffffffffffffff1916827bffffffffffffffffffffffffffffffffffffffffffffffffffffffff1916145b8061050257506105018261167d565b5b9050919050565b3373ffffffffffffffffffffffffffffffffffffffff16600360009054906101000a900473ffffffffffffffffffffffffffffffffffffffff1673ffffffffffffffffffffffffffffffffffffffff1614610599576040517f08c379a000000000000000000000000000000000000000000000000000000000815260040161059090613603565b60405180910390fd5b3373ffffffffffffffffffffffffffffffffffffffff16600360009054906101000a900473ffffffffffffffffffffffffffffffffffffffff1673ffffffffffffffffffffffffffffffffffffffff161480610648575060011515600560003373ffffffffffffffffffffffffffffffffffffffff1673ffffffffffffffffffffffffffffffffffffffff16815260200190815260200160002060000160009054906101000a900460ff161515145b610687576040517f08c379a000000000000000000000000000000000000000000000000000000000815260040161067e9061366f565b60405180910390fd5b610690816116e7565b50565b606061069e826116fa565b6106a78361178e565b6040516020016106b8929190613717565b6040516020818303038152906040529050919050565b6106d66127aa565b600460008373ffffffffffffffffffffffffffffffffffffffff1673ffffffffffffffffffffffffffffffffffffffff1681526020019081526020016000206040518060800160405290816000820160009054906101000a900460ff161515151581526020016001820180548060200260200160405190810160405280929190818152602001828054801561078a57602002820191906000526020600020905b815481526020019060010190808311610776575b505050505081526020016002820160009054906101000a900473ffffffffffffffffffffffffffffffffffffffff1673ffffffffffffffffffffffffffffffffffffffff1673ffffffffffffffffffffffffffffffffffffffff1681526020016003820180546107f990613775565b80601f016020809104026020016040519081016040528092919081815260200182805461082590613775565b80156108725780601f1061084757610100808354040283529160200191610872565b820191906000526020600020905b81548152906001019060200180831161085557829003601f168201915b5050505050815250509050919050565b600061088c61185c565b90508073ffffffffffffffffffffffffffffffffffffffff168673ffffffffffffffffffffffffffffffffffffffff16141580156108d157506108cf8682611541565b155b156109155780866040517fe237d92200000000000000000000000000000000000000000000000000000000815260040161090c9291906137a6565b60405180910390fd5b6109228686868686611864565b505050505050565b6060815183511461097657815183516040517f5b05999100000000000000000000000000000000000000000000000000000000815260040161096d9291906137cf565b60405180910390fd5b6000835167ffffffffffffffff81111561099357610992612a12565b5b6040519080825280602002602001820160405280156109c15781602001602082028036833780820191505090505b50905060005b8451811015610a2e576109fe6109e6828761195c90919063ffffffff16565b6109f9838761197090919063ffffffff16565b6103cd565b828281518110610a1157610a106137f8565b5b60200260200101818152505080610a2790613856565b90506109c7565b508091505092915050565b600460003373ffffffffffffffffffffffffffffffffffffffff1673ffffffffffffffffffffffffffffffffffffffff16815260200190815260200160002060000160009054906101000a900460ff16610ac8576040517f08c379a0000000000000000000000000000000000000000000000000000000008152600401610abf90613910565b60405180910390fd5b6000805b600460003373ffffffffffffffffffffffffffffffffffffffff1673ffffffffffffffffffffffffffffffffffffffff16815260200190815260200160002060010180549050811015610bf75782600460003373ffffffffffffffffffffffffffffffffffffffff1673ffffffffffffffffffffffffffffffffffffffff1681526020019081526020016000206001018281548110610b6e57610b6d6137f8565b5b906000526020600020015403610be45782600460003373ffffffffffffffffffffffffffffffffffffffff1673ffffffffffffffffffffffffffffffffffffffff1681526020019081526020016000206001018281548110610bd357610bd26137f8565b5b906000526020600020505050600191505b8080610bef90613856565b915050610acc565b5080610c38576040517fe93b6b24000000000000000000000000000000000000000000000000000000008152600401610c2f906139a2565b60405180910390fd5b610c543383600160405180602001604052806000815250611984565b5050565b3373ffffffffffffffffffffffffffffffffffffffff16600360009054906101000a900473ffffffffffffffffffffffffffffffffffffffff1673ffffffffffffffffffffffffffffffffffffffff1614610ce8576040517f08c379a0000000000000000000000000000000000000000000000000000000008152600401610cdf90613603565b60405180910390fd5b6001600560008573ffffffffffffffffffffffffffffffffffffffff1673ffffffffffffffffffffffffffffffffffffffff16815260200190815260200160002060000160006101000a81548160ff02191690831515021790555082600560008573ffffffffffffffffffffffffffffffffffffffff1673ffffffffffffffffffffffffffffffffffffffff16815260200190815260200160002060000160016101000a81548173ffffffffffffffffffffffffffffffffffffffff021916908373ffffffffffffffffffffffffffffffffffffffff16021790555081600560008573ffffffffffffffffffffffffffffffffffffffff1673ffffffffffffffffffffffffffffffffffffffff1681526020019081526020016000206001019081610e139190613b6e565b5080600560008573ffffffffffffffffffffffffffffffffffffffff1673ffffffffffffffffffffffffffffffffffffffff16815260200190815260200160002060020181905550505050565b600360009054906101000a900473ffffffffffffffffffffffffffffffffffffffff1681565b610e8e6127ea565b600560008373ffffffffffffffffffffffffffffffffffffffff1673ffffffffffffffffffffffffffffffffffffffff1681526020019081526020016000206040518060800160405290816000820160009054906101000a900460ff161515151581526020016000820160019054906101000a900473ffffffffffffffffffffffffffffffffffffffff1673ffffffffffffffffffffffffffffffffffffffff1673ffffffffffffffffffffffffffffffffffffffff168152602001600182018054610f5990613775565b80601f0160208091040260200160405190810160405280929190818152602001828054610f8590613775565b8015610fd25780601f10610fa757610100808354040283529160200191610fd2565b820191906000526020600020905b815481529060010190602001808311610fb557829003601f168201915b505050505081526020016002820154815250509050919050565b610ffe610ff761185c565b8383611a1d565b5050565b60011515600560003373ffffffffffffffffffffffffffffffffffffffff1673ffffffffffffffffffffffffffffffffffffffff16815260200190815260200160002060000160009054906101000a900460ff16151514611098576040517f08c379a000000000000000000000000000000000000000000000000000000000815260040161108f90613c8c565b60405180910390fd5b6001600460008573ffffffffffffffffffffffffffffffffffffffff1673ffffffffffffffffffffffffffffffffffffffff16815260200190815260200160002060000160006101000a81548160ff0219169083151502179055506000600460008573ffffffffffffffffffffffffffffffffffffffff1673ffffffffffffffffffffffffffffffffffffffff16815260200190815260200160002060010180549050036111ae57600460008473ffffffffffffffffffffffffffffffffffffffff1673ffffffffffffffffffffffffffffffffffffffff1681526020019081526020016000206001018290806001815401808255809150506001900390600052602060002001600090919091909150556111b9565b6111b88383611b8d565b5b33600460008573ffffffffffffffffffffffffffffffffffffffff1673ffffffffffffffffffffffffffffffffffffffff16815260200190815260200160002060020160006101000a81548173ffffffffffffffffffffffffffffffffffffffff021916908373ffffffffffffffffffffffffffffffffffffffff16021790555080600460008573ffffffffffffffffffffffffffffffffffffffff1673ffffffffffffffffffffffffffffffffffffffff16815260200190815260200160002060030190816112899190613b6e565b50505050565b60046020528060005260406000206000915090508060000160009054906101000a900460ff16908060020160009054906101000a900473ffffffffffffffffffffffffffffffffffffffff16908060030180546112eb90613775565b80601f016020809104026020016040519081016040528092919081815260200182805461131790613775565b80156113645780601f1061133957610100808354040283529160200191611364565b820191906000526020600020905b81548152906001019060200180831161134757829003601f168201915b5050505050905083565b3373ffffffffffffffffffffffffffffffffffffffff16600360009054906101000a900473ffffffffffffffffffffffffffffffffffffffff1673ffffffffffffffffffffffffffffffffffffffff16146113fe576040517f08c379a00000000000000000000000000000000000000000000000000000000081526004016113f590613603565b60405180910390fd5b6000600560008373ffffffffffffffffffffffffffffffffffffffff1673ffffffffffffffffffffffffffffffffffffffff16815260200190815260200160002060000160006101000a81548160ff02191690831515021790555050565b60056020528060005260406000206000915090508060000160009054906101000a900460ff16908060000160019054906101000a900473ffffffffffffffffffffffffffffffffffffffff16908060010180546114b890613775565b80601f01602080910402602001604051908101604052809291908181526020018280546114e490613775565b80156115315780601f1061150657610100808354040283529160200191611531565b820191906000526020600020905b81548152906001019060200180831161151457829003601f168201915b5050505050908060020154905084565b6000600160008473ffffffffffffffffffffffffffffffffffffffff1673ffffffffffffffffffffffffffffffffffffffff16815260200190815260200160002060008373ffffffffffffffffffffffffffffffffffffffff1673ffffffffffffffffffffffffffffffffffffffff16815260200190815260200160002060009054906101000a900460ff16905092915050565b60006115df61185c565b90508073ffffffffffffffffffffffffffffffffffffffff168673ffffffffffffffffffffffffffffffffffffffff161415801561162457506116228682611541565b155b156116685780866040517fe237d92200000000000000000000000000000000000000000000000000000000815260040161165f9291906137a6565b60405180910390fd5b6116758686868686611d54565b505050505050565b60007f01ffc9a7000000000000000000000000000000000000000000000000000000007bffffffffffffffffffffffffffffffffffffffffffffffffffffffff1916827bffffffffffffffffffffffffffffffffffffffffffffffffffffffff1916149050919050565b80600290816116f69190613b6e565b5050565b60606002805461170990613775565b80601f016020809104026020016040519081016040528092919081815260200182805461173590613775565b80156117825780601f1061175757610100808354040283529160200191611782565b820191906000526020600020905b81548152906001019060200180831161176557829003601f168201915b50505050509050919050565b60606000600161179d84611e5f565b01905060008167ffffffffffffffff8111156117bc576117bb612a12565b5b6040519080825280601f01601f1916602001820160405280156117ee5781602001600182028036833780820191505090505b509050600082602001820190505b600115611851578080600190039150507f3031323334353637383961626364656600000000000000000000000000000000600a86061a8153600a858161184557611844613cac565b5b049450600085036117fc575b819350505050919050565b600033905090565b600073ffffffffffffffffffffffffffffffffffffffff168473ffffffffffffffffffffffffffffffffffffffff16036118d65760006040517f57f447ce0000000000000000000000000000000000000000000000000000000081526004016118cd91906132b5565b60405180910390fd5b600073ffffffffffffffffffffffffffffffffffffffff168573ffffffffffffffffffffffffffffffffffffffff16036119485760006040517f01a8351400000000000000000000000000000000000000000000000000000000815260040161193f91906132b5565b60405180910390fd5b6119558585858585611fb2565b5050505050565b600060208202602084010151905092915050565b600060208202602084010151905092915050565b600073ffffffffffffffffffffffffffffffffffffffff168473ffffffffffffffffffffffffffffffffffffffff16036119f65760006040517f57f447ce0000000000000000000000000000000000000000000000000000000081526004016119ed91906132b5565b60405180910390fd5b600080611a038585612064565b91509150611a15600087848487611fb2565b505050505050565b600073ffffffffffffffffffffffffffffffffffffffff168273ffffffffffffffffffffffffffffffffffffffff1603611a8f5760006040517fced3e100000000000000000000000000000000000000000000000000000000008152600401611a8691906132b5565b60405180910390fd5b80600160008573ffffffffffffffffffffffffffffffffffffffff1673ffffffffffffffffffffffffffffffffffffffff16815260200190815260200160002060008473ffffffffffffffffffffffffffffffffffffffff1673ffffffffffffffffffffffffffffffffffffffff16815260200190815260200160002060006101000a81548160ff0219169083151502179055508173ffffffffffffffffffffffffffffffffffffffff168373ffffffffffffffffffffffffffffffffffffffff167f17307eab39ab6107e8899845ad3d59bd9653f200f220920489ca2b5937696c3183604051611b8091906129dc565b60405180910390a3505050565b3373ffffffffffffffffffffffffffffffffffffffff16600360009054906101000a900473ffffffffffffffffffffffffffffffffffffffff1673ffffffffffffffffffffffffffffffffffffffff1614611c1d576040517f08c379a0000000000000000000000000000000000000000000000000000000008152600401611c1490613603565b60405180910390fd5b60005b600460008473ffffffffffffffffffffffffffffffffffffffff1673ffffffffffffffffffffffffffffffffffffffff16815260200190815260200160002060010180549050811015611d4f5781600460008573ffffffffffffffffffffffffffffffffffffffff1673ffffffffffffffffffffffffffffffffffffffff1681526020019081526020016000206001018281548110611cc257611cc16137f8565b5b906000526020600020015414611d3c57600460008473ffffffffffffffffffffffffffffffffffffffff1673ffffffffffffffffffffffffffffffffffffffff1681526020019081526020016000206001018290806001815401808255809150506001900390600052602060002001600090919091909150555b8080611d4790613856565b915050611c20565b505050565b600073ffffffffffffffffffffffffffffffffffffffff168473ffffffffffffffffffffffffffffffffffffffff1603611dc65760006040517f57f447ce000000000000000000000000000000000000000000000000000000008152600401611dbd91906132b5565b60405180910390fd5b600073ffffffffffffffffffffffffffffffffffffffff168573ffffffffffffffffffffffffffffffffffffffff1603611e385760006040517f01a83514000000000000000000000000000000000000000000000000000000008152600401611e2f91906132b5565b60405180910390fd5b600080611e458585612064565b91509150611e568787848487611fb2565b50505050505050565b600080600090507a184f03e93ff9f4daa797ed6e38ed64bf6a1f0100000000000000008310611ebd577a184f03e93ff9f4daa797ed6e38ed64bf6a1f0100000000000000008381611eb357611eb2613cac565b5b0492506040810190505b6d04ee2d6d415b85acef81000000008310611efa576d04ee2d6d415b85acef81000000008381611ef057611eef613cac565b5b0492506020810190505b662386f26fc100008310611f2957662386f26fc100008381611f1f57611f1e613cac565b5b0492506010810190505b6305f5e1008310611f52576305f5e1008381611f4857611f47613cac565b5b0492506008810190505b6127108310611f77576127108381611f6d57611f6c613cac565b5b0492506004810190505b60648310611f9a5760648381611f9057611f8f613cac565b5b0492506002810190505b600a8310611fa9576001810190505b80915050919050565b611fbe85858585612094565b600073ffffffffffffffffffffffffffffffffffffffff168473ffffffffffffffffffffffffffffffffffffffff161461205d576000611ffc61185c565b9050600184510361204c57600061201d60008661197090919063ffffffff16565b9050600061203560008661197090919063ffffffff16565b9050612045838989858589612442565b505061205b565b61205a8187878787876125f6565b5b505b5050505050565b60608060405191506001825283602083015260408201905060018152826020820152604081016040529250929050565b80518251146120de57815181516040517f5b0599910000000000000000000000000000000000000000000000000000000081526004016120d59291906137cf565b60405180910390fd5b60006120e861185c565b905060005b83518110156122fd57600061210b828661197090919063ffffffff16565b90506000612122838661197090919063ffffffff16565b9050600073ffffffffffffffffffffffffffffffffffffffff168873ffffffffffffffffffffffffffffffffffffffff161461224f57600080600084815260200190815260200160002060008a73ffffffffffffffffffffffffffffffffffffffff1673ffffffffffffffffffffffffffffffffffffffff168152602001908152602001600020549050818110156121f757888183856040517f03dee4c50000000000000000000000000000000000000000000000000000000081526004016121ee9493929190613cdb565b60405180910390fd5b81810360008085815260200190815260200160002060008b73ffffffffffffffffffffffffffffffffffffffff1673ffffffffffffffffffffffffffffffffffffffff16815260200190815260200160002081905550505b600073ffffffffffffffffffffffffffffffffffffffff168773ffffffffffffffffffffffffffffffffffffffff16146122ea578060008084815260200190815260200160002060008973ffffffffffffffffffffffffffffffffffffffff1673ffffffffffffffffffffffffffffffffffffffff16815260200190815260200160002060008282546122e29190613d20565b925050819055505b5050806122f690613856565b90506120ed565b5060018351036123bc57600061231d60008561197090919063ffffffff16565b9050600061233560008561197090919063ffffffff16565b90508573ffffffffffffffffffffffffffffffffffffffff168773ffffffffffffffffffffffffffffffffffffffff168473ffffffffffffffffffffffffffffffffffffffff167fc3d58168c5ae7397731d063d5bbf3d657854427343f4c083240f7aacaa2d0f6285856040516123ad9291906137cf565b60405180910390a4505061243b565b8373ffffffffffffffffffffffffffffffffffffffff168573ffffffffffffffffffffffffffffffffffffffff168273ffffffffffffffffffffffffffffffffffffffff167f4a39dc06d4c0dbc64b70af90fd698a233a518aa5d07e595d983b8c0526c8f7fb8686604051612432929190613d54565b60405180910390a45b5050505050565b60008473ffffffffffffffffffffffffffffffffffffffff163b11156125ee578373ffffffffffffffffffffffffffffffffffffffff1663f23a6e6187878686866040518663ffffffff1660e01b81526004016124a3959493929190613de0565b6020604051808303816000875af19250505080156124df57506040513d601f19601f820116820180604052508101906124dc9190613e4f565b60015b612563573d806000811461250f576040519150601f19603f3d011682016040523d82523d6000602084013e612514565b606091505b50600081510361255b57846040517f57f447ce00000000000000000000000000000000000000000000000000000000815260040161255291906132b5565b60405180910390fd5b805181602001fd5b63f23a6e6160e01b7bffffffffffffffffffffffffffffffffffffffffffffffffffffffff1916817bffffffffffffffffffffffffffffffffffffffffffffffffffffffff1916146125ec57846040517f57f447ce0000000000000000000000000000000000000000000000000000000081526004016125e391906132b5565b60405180910390fd5b505b505050505050565b60008473ffffffffffffffffffffffffffffffffffffffff163b11156127a2578373ffffffffffffffffffffffffffffffffffffffff1663bc197c8187878686866040518663ffffffff1660e01b8152600401612657959493929190613e7c565b6020604051808303816000875af192505050801561269357506040513d601f19601f820116820180604052508101906126909190613e4f565b60015b612717573d80600081146126c3576040519150601f19603f3d011682016040523d82523d6000602084013e6126c8565b606091505b50600081510361270f57846040517f57f447ce00000000000000000000000000000000000000000000000000000000815260040161270691906132b5565b60405180910390fd5b805181602001fd5b63bc197c8160e01b7bffffffffffffffffffffffffffffffffffffffffffffffffffffffff1916817bffffffffffffffffffffffffffffffffffffffffffffffffffffffff1916146127a057846040517f57f447ce00000000000000000000000000000000000000000000000000000000815260040161279791906132b5565b60405180910390fd5b505b505050505050565b604051806080016040528060001515815260200160608152602001600073ffffffffffffffffffffffffffffffffffffffff168152602001606081525090565b6040518060800160405280600015158152602001600073ffffffffffffffffffffffffffffffffffffffff16815260200160608152602001600081525090565b6000604051905090565b600080fd5b600080fd5b600073ffffffffffffffffffffffffffffffffffffffff82169050919050565b60006128698261283e565b9050919050565b6128798161285e565b811461288457600080fd5b50565b60008135905061289681612870565b92915050565b6000819050919050565b6128af8161289c565b81146128ba57600080fd5b50565b6000813590506128cc816128a6565b92915050565b600080604083850312156128e9576128e8612834565b5b60006128f785828601612887565b9250506020612908858286016128bd565b9150509250929050565b61291b8161289c565b82525050565b60006020820190506129366000830184612912565b92915050565b60007fffffffff0000000000000000000000000000000000000000000000000000000082169050919050565b6129718161293c565b811461297c57600080fd5b50565b60008135905061298e81612968565b92915050565b6000602082840312156129aa576129a9612834565b5b60006129b88482850161297f565b91505092915050565b60008115159050919050565b6129d6816129c1565b82525050565b60006020820190506129f160008301846129cd565b92915050565b600080fd5b600080fd5b6000601f19601f8301169050919050565b7f4e487b7100000000000000000000000000000000000000000000000000000000600052604160045260246000fd5b612a4a82612a01565b810181811067ffffffffffffffff82111715612a6957612a68612a12565b5b80604052505050565b6000612a7c61282a565b9050612a888282612a41565b919050565b600067ffffffffffffffff821115612aa857612aa7612a12565b5b612ab182612a01565b9050602081019050919050565b82818337600083830152505050565b6000612ae0612adb84612a8d565b612a72565b905082815260208101848484011115612afc57612afb6129fc565b5b612b07848285612abe565b509392505050565b600082601f830112612b2457612b236129f7565b5b8135612b34848260208601612acd565b91505092915050565b600060208284031215612b5357612b52612834565b5b600082013567ffffffffffffffff811115612b7157612b70612839565b5b612b7d84828501612b0f565b91505092915050565b600060208284031215612b9c57612b9b612834565b5b6000612baa848285016128bd565b91505092915050565b600081519050919050565b600082825260208201905092915050565b60005b83811015612bed578082015181840152602081019050612bd2565b60008484015250505050565b6000612c0482612bb3565b612c0e8185612bbe565b9350612c1e818560208601612bcf565b612c2781612a01565b840191505092915050565b60006020820190508181036000830152612c4c8184612bf9565b905092915050565b600060208284031215612c6a57612c69612834565b5b6000612c7884828501612887565b91505092915050565b612c8a816129c1565b82525050565b600081519050919050565b600082825260208201905092915050565b6000819050602082019050919050565b612cc58161289c565b82525050565b6000612cd78383612cbc565b60208301905092915050565b6000602082019050919050565b6000612cfb82612c90565b612d058185612c9b565b9350612d1083612cac565b8060005b83811015612d41578151612d288882612ccb565b9750612d3383612ce3565b925050600181019050612d14565b5085935050505092915050565b612d578161285e565b82525050565b600082825260208201905092915050565b6000612d7982612bb3565b612d838185612d5d565b9350612d93818560208601612bcf565b612d9c81612a01565b840191505092915050565b6000608083016000830151612dbf6000860182612c81565b5060208301518482036020860152612dd78282612cf0565b9150506040830151612dec6040860182612d4e565b5060608301518482036060860152612e048282612d6e565b9150508091505092915050565b60006020820190508181036000830152612e2b8184612da7565b905092915050565b600067ffffffffffffffff821115612e4e57612e4d612a12565b5b602082029050602081019050919050565b600080fd5b6000612e77612e7284612e33565b612a72565b90508083825260208201905060208402830185811115612e9a57612e99612e5f565b5b835b81811015612ec35780612eaf88826128bd565b845260208401935050602081019050612e9c565b5050509392505050565b600082601f830112612ee257612ee16129f7565b5b8135612ef2848260208601612e64565b91505092915050565b600067ffffffffffffffff821115612f1657612f15612a12565b5b612f1f82612a01565b9050602081019050919050565b6000612f3f612f3a84612efb565b612a72565b905082815260208101848484011115612f5b57612f5a6129fc565b5b612f66848285612abe565b509392505050565b600082601f830112612f8357612f826129f7565b5b8135612f93848260208601612f2c565b91505092915050565b600080600080600060a08688031215612fb857612fb7612834565b5b6000612fc688828901612887565b9550506020612fd788828901612887565b945050604086013567ffffffffffffffff811115612ff857612ff7612839565b5b61300488828901612ecd565b935050606086013567ffffffffffffffff81111561302557613024612839565b5b61303188828901612ecd565b925050608086013567ffffffffffffffff81111561305257613051612839565b5b61305e88828901612f6e565b9150509295509295909350565b600067ffffffffffffffff82111561308657613085612a12565b5b602082029050602081019050919050565b60006130aa6130a58461306b565b612a72565b905080838252602082019050602084028301858111156130cd576130cc612e5f565b5b835b818110156130f657806130e28882612887565b8452602084019350506020810190506130cf565b5050509392505050565b600082601f830112613115576131146129f7565b5b8135613125848260208601613097565b91505092915050565b6000806040838503121561314557613144612834565b5b600083013567ffffffffffffffff81111561316357613162612839565b5b61316f85828601613100565b925050602083013567ffffffffffffffff8111156131905761318f612839565b5b61319c85828601612ecd565b9150509250929050565b600082825260208201905092915050565b60006131c282612c90565b6131cc81856131a6565b93506131d783612cac565b8060005b838110156132085781516131ef8882612ccb565b97506131fa83612ce3565b9250506001810190506131db565b5085935050505092915050565b6000602082019050818103600083015261322f81846131b7565b905092915050565b6000806000606084860312156132505761324f612834565b5b600061325e86828701612887565b935050602084013567ffffffffffffffff81111561327f5761327e612839565b5b61328b86828701612b0f565b925050604061329c868287016128bd565b9150509250925092565b6132af8161285e565b82525050565b60006020820190506132ca60008301846132a6565b92915050565b60006080830160008301516132e86000860182612c81565b5060208301516132fb6020860182612d4e565b50604083015184820360408601526133138282612d6e565b91505060608301516133286060860182612cbc565b508091505092915050565b6000602082019050818103600083015261334d81846132d0565b905092915050565b61335e816129c1565b811461336957600080fd5b50565b60008135905061337b81613355565b92915050565b6000806040838503121561339857613397612834565b5b60006133a685828601612887565b92505060206133b78582860161336c565b9150509250929050565b6000806000606084860312156133da576133d9612834565b5b60006133e886828701612887565b93505060206133f9868287016128bd565b925050604084013567ffffffffffffffff81111561341a57613419612839565b5b61342686828701612b0f565b9150509250925092565b600060608201905061344560008301866129cd565b61345260208301856132a6565b81810360408301526134648184612bf9565b9050949350505050565b600060808201905061348360008301876129cd565b61349060208301866132a6565b81810360408301526134a28185612bf9565b90506134b16060830184612912565b95945050505050565b600080604083850312156134d1576134d0612834565b5b60006134df85828601612887565b92505060206134f085828601612887565b9150509250929050565b600080600080600060a0868803121561351657613515612834565b5b600061352488828901612887565b955050602061353588828901612887565b9450506040613546888289016128bd565b9350506060613557888289016128bd565b925050608086013567ffffffffffffffff81111561357857613577612839565b5b61358488828901612f6e565b9150509295509295909350565b7f596f7520617265206e6f7420746865206f776e6572206f66207468697320636f60008201527f6e74726163740000000000000000000000000000000000000000000000000000602082015250565b60006135ed602683612bbe565b91506135f882613591565b604082019050919050565b6000602082019050818103600083015261361c816135e0565b9050919050565b7f596f7520617265206e6f7420616c6c6f77656420746f20736574205552490000600082015250565b6000613659601e83612bbe565b915061366482613623565b602082019050919050565b600060208201905081810360008301526136888161364c565b9050919050565b600081905092915050565b60006136a582612bb3565b6136af818561368f565b93506136bf818560208601612bcf565b80840191505092915050565b7f2e6a736f6e000000000000000000000000000000000000000000000000000000600082015250565b600061370160058361368f565b915061370c826136cb565b600582019050919050565b6000613723828561369a565b915061372f828461369a565b915061373a826136f4565b91508190509392505050565b7f4e487b7100000000000000000000000000000000000000000000000000000000600052602260045260246000fd5b6000600282049050600182168061378d57607f821691505b6020821081036137a05761379f613746565b5b50919050565b60006040820190506137bb60008301856132a6565b6137c860208301846132a6565b9392505050565b60006040820190506137e46000830185612912565b6137f16020830184612912565b9392505050565b7f4e487b7100000000000000000000000000000000000000000000000000000000600052603260045260246000fd5b7f4e487b7100000000000000000000000000000000000000000000000000000000600052601160045260246000fd5b60006138618261289c565b91507fffffffffffffffffffffffffffffffffffffffffffffffffffffffffffffffff820361389357613892613827565b5b600182019050919050565b7f596f7520617265206e6f7420616c6c6f77656420746f2061636365737320636560008201527f7274696669636174650000000000000000000000000000000000000000000000602082015250565b60006138fa602983612bbe565b91506139058261389e565b604082019050919050565b60006020820190508181036000830152613929816138ed565b9050919050565b7f596f7520617265206d696e74696e67207468652077726f6e672063657274696660008201527f6963617465000000000000000000000000000000000000000000000000000000602082015250565b600061398c602583612bbe565b915061399782613930565b604082019050919050565b600060208201905081810360008301526139bb8161397f565b9050919050565b60008190508160005260206000209050919050565b60006020601f8301049050919050565b600082821b905092915050565b600060088302613a247fffffffffffffffffffffffffffffffffffffffffffffffffffffffffffffffff826139e7565b613a2e86836139e7565b95508019841693508086168417925050509392505050565b6000819050919050565b6000613a6b613a66613a618461289c565b613a46565b61289c565b9050919050565b6000819050919050565b613a8583613a50565b613a99613a9182613a72565b8484546139f4565b825550505050565b600090565b613aae613aa1565b613ab9818484613a7c565b505050565b5b81811015613add57613ad2600082613aa6565b600181019050613abf565b5050565b601f821115613b2257613af3816139c2565b613afc846139d7565b81016020851015613b0b578190505b613b1f613b17856139d7565b830182613abe565b50505b505050565b600082821c905092915050565b6000613b4560001984600802613b27565b1980831691505092915050565b6000613b5e8383613b34565b9150826002028217905092915050565b613b7782612bb3565b67ffffffffffffffff811115613b9057613b8f612a12565b5b613b9a8254613775565b613ba5828285613ae1565b600060209050601f831160018114613bd85760008415613bc6578287015190505b613bd08582613b52565b865550613c38565b601f198416613be6866139c2565b60005b82811015613c0e57848901518255600182019150602085019450602081019050613be9565b86831015613c2b5784890151613c27601f891682613b34565b8355505b6001600288020188555050505b505050505050565b7f596f7520617265206e6f74206120766572696669656420697373756572000000600082015250565b6000613c76601d83612bbe565b9150613c8182613c40565b602082019050919050565b60006020820190508181036000830152613ca581613c69565b9050919050565b7f4e487b7100000000000000000000000000000000000000000000000000000000600052601260045260246000fd5b6000608082019050613cf060008301876132a6565b613cfd6020830186612912565b613d0a6040830185612912565b613d176060830184612912565b95945050505050565b6000613d2b8261289c565b9150613d368361289c565b9250828201905080821115613d4e57613d4d613827565b5b92915050565b60006040820190508181036000830152613d6e81856131b7565b90508181036020830152613d8281846131b7565b90509392505050565b600081519050919050565b600082825260208201905092915050565b6000613db282613d8b565b613dbc8185613d96565b9350613dcc818560208601612bcf565b613dd581612a01565b840191505092915050565b600060a082019050613df560008301886132a6565b613e0260208301876132a6565b613e0f6040830186612912565b613e1c6060830185612912565b8181036080830152613e2e8184613da7565b90509695505050505050565b600081519050613e4981612968565b92915050565b600060208284031215613e6557613e64612834565b5b6000613e7384828501613e3a565b91505092915050565b600060a082019050613e9160008301886132a6565b613e9e60208301876132a6565b8181036040830152613eb081866131b7565b90508181036060830152613ec481856131b7565b90508181036080830152613ed88184613da7565b9050969550505050505056fea2646970667358221220155e2fdf5424cea89526a92b4eb4619a68930bb7544f15e23b52426d101dbad664736f6c63430008140033697066733a2f2f516d507a794c436d694a614e487764746f6e355a6f6a736e34763862525a61706535526b4e4764363364643141322f","opcodes":"PUSH1 0x80 PUSH1 0x40 MSTORE CALLVALUE DUP1 ISZERO PUSH3 0x11 JUMPI PUSH1 0x0 DUP1 REVERT JUMPDEST POP PUSH1 0x40 MLOAD DUP1 PUSH1 0x60 ADD PUSH1 0x40 MSTORE DUP1 PUSH1 0x36 DUP2 MSTORE PUSH1 0x20 ADD PUSH3 0x4325 PUSH1 0x36 SWAP2 CODECOPY PUSH3 0x3D DUP2 PUSH3 0x85 PUSH1 0x20 SHL PUSH1 0x20 SHR JUMP JUMPDEST POP CALLER PUSH1 0x3 PUSH1 0x0 PUSH2 0x100 EXP DUP2 SLOAD DUP2 PUSH20 0xFFFFFFFFFFFFFFFFFFFFFFFFFFFFFFFFFFFFFFFF MUL NOT AND SWAP1 DUP4 PUSH20 0xFFFFFFFFFFFFFFFFFFFFFFFFFFFFFFFFFFFFFFFF AND MUL OR SWAP1 SSTORE POP PUSH3 0x3FB JUMP JUMPDEST DUP1 PUSH1 0x2 SWAP1 DUP2 PUSH3 0x96 SWAP2 SWAP1 PUSH3 0x314 JUMP JUMPDEST POP POP JUMP JUMPDEST PUSH1 0x0 DUP2 MLOAD SWAP1 POP SWAP2 SWAP1 POP JUMP JUMPDEST PUSH32 0x4E487B7100000000000000000000000000000000000000000000000000000000 PUSH1 0x0 MSTORE PUSH1 0x41 PUSH1 0x4 MSTORE PUSH1 0x24 PUSH1 0x0 REVERT JUMPDEST PUSH32 0x4E487B7100000000000000000000000000000000000000000000000000000000 PUSH1 0x0 MSTORE PUSH1 0x22 PUSH1 0x4 MSTORE PUSH1 0x24 PUSH1 0x0 REVERT JUMPDEST PUSH1 0x0 PUSH1 0x2 DUP3 DIV SWAP1 POP PUSH1 0x1 DUP3 AND DUP1 PUSH3 0x11C JUMPI PUSH1 0x7F DUP3 AND SWAP2 POP JUMPDEST PUSH1 0x20 DUP3 LT DUP2 SUB PUSH3 0x132 JUMPI PUSH3 0x131 PUSH3 0xD4 JUMP JUMPDEST JUMPDEST POP SWAP2 SWAP1 POP JUMP JUMPDEST PUSH1 0x0 DUP2 SWAP1 POP DUP2 PUSH1 0x0 MSTORE PUSH1 0x20 PUSH1 0x0 KECCAK256 SWAP1 POP SWAP2 SWAP1 POP JUMP JUMPDEST PUSH1 0x0 PUSH1 0x20 PUSH1 0x1F DUP4 ADD DIV SWAP1 POP SWAP2 SWAP1 POP JUMP JUMPDEST PUSH1 0x0 DUP3 DUP3 SHL SWAP1 POP SWAP3 SWAP2 POP POP JUMP JUMPDEST PUSH1 0x0 PUSH1 0x8 DUP4 MUL PUSH3 0x19C PUSH32 0xFFFFFFFFFFFFFFFFFFFFFFFFFFFFFFFFFFFFFFFFFFFFFFFFFFFFFFFFFFFFFFFF DUP3 PUSH3 0x15D JUMP JUMPDEST PUSH3 0x1A8 DUP7 DUP4 PUSH3 0x15D JUMP JUMPDEST SWAP6 POP DUP1 NOT DUP5 AND SWAP4 POP DUP1 DUP7 AND DUP5 OR SWAP3 POP POP POP SWAP4 SWAP3 POP POP POP JUMP JUMPDEST PUSH1 0x0 DUP2 SWAP1 POP SWAP2 SWAP1 POP JUMP JUMPDEST PUSH1 0x0 DUP2 SWAP1 POP SWAP2 SWAP1 POP JUMP JUMPDEST PUSH1 0x0 PUSH3 0x1F5 PUSH3 0x1EF PUSH3 0x1E9 DUP5 PUSH3 0x1C0 JUMP JUMPDEST PUSH3 0x1CA JUMP JUMPDEST PUSH3 0x1C0 JUMP JUMPDEST SWAP1 POP SWAP2 SWAP1 POP JUMP JUMPDEST PUSH1 0x0 DUP2 SWAP1 POP SWAP2 SWAP1 POP JUMP JUMPDEST PUSH3 0x211 DUP4 PUSH3 0x1D4 JUMP JUMPDEST PUSH3 0x229 PUSH3 0x220 DUP3 PUSH3 0x1FC JUMP JUMPDEST DUP5 DUP5 SLOAD PUSH3 0x16A JUMP JUMPDEST DUP3 SSTORE POP POP POP POP JUMP JUMPDEST PUSH1 0x0 SWAP1 JUMP JUMPDEST PUSH3 0x240 PUSH3 0x231 JUMP JUMPDEST PUSH3 0x24D DUP2 DUP5 DUP5 PUSH3 0x206 JUMP JUMPDEST POP POP POP JUMP JUMPDEST JUMPDEST DUP2 DUP2 LT ISZERO PUSH3 0x275 JUMPI PUSH3 0x269 PUSH1 0x0 DUP3 PUSH3 0x236 JUMP JUMPDEST PUSH1 0x1 DUP2 ADD SWAP1 POP PUSH3 0x253 JUMP JUMPDEST POP POP JUMP JUMPDEST PUSH1 0x1F DUP3 GT ISZERO PUSH3 0x2C4 JUMPI PUSH3 0x28E DUP2 PUSH3 0x138 JUMP JUMPDEST PUSH3 0x299 DUP5 PUSH3 0x14D JUMP JUMPDEST DUP2 ADD PUSH1 0x20 DUP6 LT ISZERO PUSH3 0x2A9 JUMPI DUP2 SWAP1 POP JUMPDEST PUSH3 0x2C1 PUSH3 0x2B8 DUP6 PUSH3 0x14D JUMP JUMPDEST DUP4 ADD DUP3 PUSH3 0x252 JUMP JUMPDEST POP POP JUMPDEST POP POP POP JUMP JUMPDEST PUSH1 0x0 DUP3 DUP3 SHR SWAP1 POP SWAP3 SWAP2 POP POP JUMP JUMPDEST PUSH1 0x0 PUSH3 0x2E9 PUSH1 0x0 NOT DUP5 PUSH1 0x8 MUL PUSH3 0x2C9 JUMP JUMPDEST NOT DUP1 DUP4 AND SWAP2 POP POP SWAP3 SWAP2 POP POP JUMP JUMPDEST PUSH1 0x0 PUSH3 0x304 DUP4 DUP4 PUSH3 0x2D6 JUMP JUMPDEST SWAP2 POP DUP3 PUSH1 0x2 MUL DUP3 OR SWAP1 POP SWAP3 SWAP2 POP POP JUMP JUMPDEST PUSH3 0x31F DUP3 PUSH3 0x9A JUMP JUMPDEST PUSH8 0xFFFFFFFFFFFFFFFF DUP2 GT ISZERO PUSH3 0x33B JUMPI PUSH3 0x33A PUSH3 0xA5 JUMP JUMPDEST JUMPDEST PUSH3 0x347 DUP3 SLOAD PUSH3 0x103 JUMP JUMPDEST PUSH3 0x354 DUP3 DUP3 DUP6 PUSH3 0x279 JUMP JUMPDEST PUSH1 0x0 PUSH1 0x20 SWAP1 POP PUSH1 0x1F DUP4 GT PUSH1 0x1 DUP2 EQ PUSH3 0x38C JUMPI PUSH1 0x0 DUP5 ISZERO PUSH3 0x377 JUMPI DUP3 DUP8 ADD MLOAD SWAP1 POP JUMPDEST PUSH3 0x383 DUP6 DUP3 PUSH3 0x2F6 JUMP JUMPDEST DUP7 SSTORE POP PUSH3 0x3F3 JUMP JUMPDEST PUSH1 0x1F NOT DUP5 AND PUSH3 0x39C DUP7 PUSH3 0x138 JUMP JUMPDEST PUSH1 0x0 JUMPDEST DUP3 DUP2 LT ISZERO PUSH3 0x3C6 JUMPI DUP5 DUP10 ADD MLOAD DUP3 SSTORE PUSH1 0x1 DUP3 ADD SWAP2 POP PUSH1 0x20 DUP6 ADD SWAP5 POP PUSH1 0x20 DUP2 ADD SWAP1 POP PUSH3 0x39F JUMP JUMPDEST DUP7 DUP4 LT ISZERO PUSH3 0x3E6 JUMPI DUP5 DUP10 ADD MLOAD PUSH3 0x3E2 PUSH1 0x1F DUP10 AND DUP3 PUSH3 0x2D6 JUMP JUMPDEST DUP4 SSTORE POP JUMPDEST PUSH1 0x1 PUSH1 0x2 DUP9 MUL ADD DUP9 SSTORE POP POP POP JUMPDEST POP POP POP POP POP POP JUMP JUMPDEST PUSH2 0x3F1A DUP1 PUSH3 0x40B PUSH1 0x0 CODECOPY PUSH1 0x0 RETURN INVALID PUSH1 0x80 PUSH1 0x40 MSTORE CALLVALUE DUP1 ISZERO PUSH2 0x10 JUMPI PUSH1 0x0 DUP1 REVERT JUMPDEST POP PUSH1 0x4 CALLDATASIZE LT PUSH2 0x115 JUMPI PUSH1 0x0 CALLDATALOAD PUSH1 0xE0 SHR DUP1 PUSH4 0x8DA5CB5B GT PUSH2 0xA2 JUMPI DUP1 PUSH4 0xD96A9F50 GT PUSH2 0x71 JUMPI DUP1 PUSH4 0xD96A9F50 EQ PUSH2 0x300 JUMPI DUP1 PUSH4 0xE3602ECA EQ PUSH2 0x332 JUMPI DUP1 PUSH4 0xE61703B8 EQ PUSH2 0x34E JUMPI DUP1 PUSH4 0xE985E9C5 EQ PUSH2 0x381 JUMPI DUP1 PUSH4 0xF242432A EQ PUSH2 0x3B1 JUMPI PUSH2 0x115 JUMP JUMPDEST DUP1 PUSH4 0x8DA5CB5B EQ PUSH2 0x27A JUMPI DUP1 PUSH4 0x9DACA614 EQ PUSH2 0x298 JUMPI DUP1 PUSH4 0xA22CB465 EQ PUSH2 0x2C8 JUMPI DUP1 PUSH4 0xD164214D EQ PUSH2 0x2E4 JUMPI PUSH2 0x115 JUMP JUMPDEST DUP1 PUSH4 0x1CE75209 GT PUSH2 0xE9 JUMPI DUP1 PUSH4 0x1CE75209 EQ PUSH2 0x1C6 JUMPI DUP1 PUSH4 0x2EB2C2D6 EQ PUSH2 0x1F6 JUMPI DUP1 PUSH4 0x4E1273F4 EQ PUSH2 0x212 JUMPI DUP1 PUSH4 0x57E4BE9A EQ PUSH2 0x242 JUMPI DUP1 PUSH4 0x812EBFD1 EQ PUSH2 0x25E JUMPI PUSH2 0x115 JUMP JUMPDEST DUP1 PUSH3 0xFDD58E EQ PUSH2 0x11A JUMPI DUP1 PUSH4 0x1FFC9A7 EQ PUSH2 0x14A JUMPI DUP1 PUSH4 0x2FE5305 EQ PUSH2 0x17A JUMPI DUP1 PUSH4 0xE89341C EQ PUSH2 0x196 JUMPI JUMPDEST PUSH1 0x0 DUP1 REVERT JUMPDEST PUSH2 0x134 PUSH1 0x4 DUP1 CALLDATASIZE SUB DUP2 ADD SWAP1 PUSH2 0x12F SWAP2 SWAP1 PUSH2 0x28D2 JUMP JUMPDEST PUSH2 0x3CD JUMP JUMPDEST PUSH1 0x40 MLOAD PUSH2 0x141 SWAP2 SWAP1 PUSH2 0x2921 JUMP JUMPDEST PUSH1 0x40 MLOAD DUP1 SWAP2 SUB SWAP1 RETURN JUMPDEST PUSH2 0x164 PUSH1 0x4 DUP1 CALLDATASIZE SUB DUP2 ADD SWAP1 PUSH2 0x15F SWAP2 SWAP1 PUSH2 0x2994 JUMP JUMPDEST PUSH2 0x427 JUMP JUMPDEST PUSH1 0x40 MLOAD PUSH2 0x171 SWAP2 SWAP1 PUSH2 0x29DC JUMP JUMPDEST PUSH1 0x40 MLOAD DUP1 SWAP2 SUB SWAP1 RETURN JUMPDEST PUSH2 0x194 PUSH1 0x4 DUP1 CALLDATASIZE SUB DUP2 ADD SWAP1 PUSH2 0x18F SWAP2 SWAP1 PUSH2 0x2B3D JUMP JUMPDEST PUSH2 0x509 JUMP JUMPDEST STOP JUMPDEST PUSH2 0x1B0 PUSH1 0x4 DUP1 CALLDATASIZE SUB DUP2 ADD SWAP1 PUSH2 0x1AB SWAP2 SWAP1 PUSH2 0x2B86 JUMP JUMPDEST PUSH2 0x693 JUMP JUMPDEST PUSH1 0x40 MLOAD PUSH2 0x1BD SWAP2 SWAP1 PUSH2 0x2C32 JUMP JUMPDEST PUSH1 0x40 MLOAD DUP1 SWAP2 SUB SWAP1 RETURN JUMPDEST PUSH2 0x1E0 PUSH1 0x4 DUP1 CALLDATASIZE SUB DUP2 ADD SWAP1 PUSH2 0x1DB SWAP2 SWAP1 PUSH2 0x2C54 JUMP JUMPDEST PUSH2 0x6CE JUMP JUMPDEST PUSH1 0x40 MLOAD PUSH2 0x1ED SWAP2 SWAP1 PUSH2 0x2E11 JUMP JUMPDEST PUSH1 0x40 MLOAD DUP1 SWAP2 SUB SWAP1 RETURN JUMPDEST PUSH2 0x210 PUSH1 0x4 DUP1 CALLDATASIZE SUB DUP2 ADD SWAP1 PUSH2 0x20B SWAP2 SWAP1 PUSH2 0x2F9C JUMP JUMPDEST PUSH2 0x882 JUMP JUMPDEST STOP JUMPDEST PUSH2 0x22C PUSH1 0x4 DUP1 CALLDATASIZE SUB DUP2 ADD SWAP1 PUSH2 0x227 SWAP2 SWAP1 PUSH2 0x312E JUMP JUMPDEST PUSH2 0x92A JUMP JUMPDEST PUSH1 0x40 MLOAD PUSH2 0x239 SWAP2 SWAP1 PUSH2 0x3215 JUMP JUMPDEST PUSH1 0x40 MLOAD DUP1 SWAP2 SUB SWAP1 RETURN JUMPDEST PUSH2 0x25C PUSH1 0x4 DUP1 CALLDATASIZE SUB DUP2 ADD SWAP1 PUSH2 0x257 SWAP2 SWAP1 PUSH2 0x2B86 JUMP JUMPDEST PUSH2 0xA39 JUMP JUMPDEST STOP JUMPDEST PUSH2 0x278 PUSH1 0x4 DUP1 CALLDATASIZE SUB DUP2 ADD SWAP1 PUSH2 0x273 SWAP2 SWAP1 PUSH2 0x3237 JUMP JUMPDEST PUSH2 0xC58 JUMP JUMPDEST STOP JUMPDEST PUSH2 0x282 PUSH2 0xE60 JUMP JUMPDEST PUSH1 0x40 MLOAD PUSH2 0x28F SWAP2 SWAP1 PUSH2 0x32B5 JUMP JUMPDEST PUSH1 0x40 MLOAD DUP1 SWAP2 SUB SWAP1 RETURN JUMPDEST PUSH2 0x2B2 PUSH1 0x4 DUP1 CALLDATASIZE SUB DUP2 ADD SWAP1 PUSH2 0x2AD SWAP2 SWAP1 PUSH2 0x2C54 JUMP JUMPDEST PUSH2 0xE86 JUMP JUMPDEST PUSH1 0x40 MLOAD PUSH2 0x2BF SWAP2 SWAP1 PUSH2 0x3333 JUMP JUMPDEST PUSH1 0x40 MLOAD DUP1 SWAP2 SUB SWAP1 RETURN JUMPDEST PUSH2 0x2E2 PUSH1 0x4 DUP1 CALLDATASIZE SUB DUP2 ADD SWAP1 PUSH2 0x2DD SWAP2 SWAP1 PUSH2 0x3381 JUMP JUMPDEST PUSH2 0xFEC JUMP JUMPDEST STOP JUMPDEST PUSH2 0x2FE PUSH1 0x4 DUP1 CALLDATASIZE SUB DUP2 ADD SWAP1 PUSH2 0x2F9 SWAP2 SWAP1 PUSH2 0x33C1 JUMP JUMPDEST PUSH2 0x1002 JUMP JUMPDEST STOP JUMPDEST PUSH2 0x31A PUSH1 0x4 DUP1 CALLDATASIZE SUB DUP2 ADD SWAP1 PUSH2 0x315 SWAP2 SWAP1 PUSH2 0x2C54 JUMP JUMPDEST PUSH2 0x128F JUMP JUMPDEST PUSH1 0x40 MLOAD PUSH2 0x329 SWAP4 SWAP3 SWAP2 SWAP1 PUSH2 0x3430 JUMP JUMPDEST PUSH1 0x40 MLOAD DUP1 SWAP2 SUB SWAP1 RETURN JUMPDEST PUSH2 0x34C PUSH1 0x4 DUP1 CALLDATASIZE SUB DUP2 ADD SWAP1 PUSH2 0x347 SWAP2 SWAP1 PUSH2 0x2C54 JUMP JUMPDEST PUSH2 0x136E JUMP JUMPDEST STOP JUMPDEST PUSH2 0x368 PUSH1 0x4 DUP1 CALLDATASIZE SUB DUP2 ADD SWAP1 PUSH2 0x363 SWAP2 SWAP1 PUSH2 0x2C54 JUMP JUMPDEST PUSH2 0x145C JUMP JUMPDEST PUSH1 0x40 MLOAD PUSH2 0x378 SWAP5 SWAP4 SWAP3 SWAP2 SWAP1 PUSH2 0x346E JUMP JUMPDEST PUSH1 0x40 MLOAD DUP1 SWAP2 SUB SWAP1 RETURN JUMPDEST PUSH2 0x39B PUSH1 0x4 DUP1 CALLDATASIZE SUB DUP2 ADD SWAP1 PUSH2 0x396 SWAP2 SWAP1 PUSH2 0x34BA JUMP JUMPDEST PUSH2 0x1541 JUMP JUMPDEST PUSH1 0x40 MLOAD PUSH2 0x3A8 SWAP2 SWAP1 PUSH2 0x29DC JUMP JUMPDEST PUSH1 0x40 MLOAD DUP1 SWAP2 SUB SWAP1 RETURN JUMPDEST PUSH2 0x3CB PUSH1 0x4 DUP1 CALLDATASIZE SUB DUP2 ADD SWAP1 PUSH2 0x3C6 SWAP2 SWAP1 PUSH2 0x34FA JUMP JUMPDEST PUSH2 0x15D5 JUMP JUMPDEST STOP JUMPDEST PUSH1 0x0 DUP1 PUSH1 0x0 DUP4 DUP2 MSTORE PUSH1 0x20 ADD SWAP1 DUP2 MSTORE PUSH1 0x20 ADD PUSH1 0x0 KECCAK256 PUSH1 0x0 DUP5 PUSH20 0xFFFFFFFFFFFFFFFFFFFFFFFFFFFFFFFFFFFFFFFF AND PUSH20 0xFFFFFFFFFFFFFFFFFFFFFFFFFFFFFFFFFFFFFFFF AND DUP2 MSTORE PUSH1 0x20 ADD SWAP1 DUP2 MSTORE PUSH1 0x20 ADD PUSH1 0x0 KECCAK256 SLOAD SWAP1 POP SWAP3 SWAP2 POP POP JUMP JUMPDEST PUSH1 0x0 PUSH32 0xD9B67A2600000000000000000000000000000000000000000000000000000000 PUSH28 0xFFFFFFFFFFFFFFFFFFFFFFFFFFFFFFFFFFFFFFFFFFFFFFFFFFFFFFFF NOT AND DUP3 PUSH28 0xFFFFFFFFFFFFFFFFFFFFFFFFFFFFFFFFFFFFFFFFFFFFFFFFFFFFFFFF NOT AND EQ DUP1 PUSH2 0x4F2 JUMPI POP PUSH32 0xE89341C00000000000000000000000000000000000000000000000000000000 PUSH28 0xFFFFFFFFFFFFFFFFFFFFFFFFFFFFFFFFFFFFFFFFFFFFFFFFFFFFFFFF NOT AND DUP3 PUSH28 0xFFFFFFFFFFFFFFFFFFFFFFFFFFFFFFFFFFFFFFFFFFFFFFFFFFFFFFFF NOT AND EQ JUMPDEST DUP1 PUSH2 0x502 JUMPI POP PUSH2 0x501 DUP3 PUSH2 0x167D JUMP JUMPDEST JUMPDEST SWAP1 POP SWAP2 SWAP1 POP JUMP JUMPDEST CALLER PUSH20 0xFFFFFFFFFFFFFFFFFFFFFFFFFFFFFFFFFFFFFFFF AND PUSH1 0x3 PUSH1 0x0 SWAP1 SLOAD SWAP1 PUSH2 0x100 EXP SWAP1 DIV PUSH20 0xFFFFFFFFFFFFFFFFFFFFFFFFFFFFFFFFFFFFFFFF AND PUSH20 0xFFFFFFFFFFFFFFFFFFFFFFFFFFFFFFFFFFFFFFFF AND EQ PUSH2 0x599 JUMPI PUSH1 0x40 MLOAD PUSH32 0x8C379A000000000000000000000000000000000000000000000000000000000 DUP2 MSTORE PUSH1 0x4 ADD PUSH2 0x590 SWAP1 PUSH2 0x3603 JUMP JUMPDEST PUSH1 0x40 MLOAD DUP1 SWAP2 SUB SWAP1 REVERT JUMPDEST CALLER PUSH20 0xFFFFFFFFFFFFFFFFFFFFFFFFFFFFFFFFFFFFFFFF AND PUSH1 0x3 PUSH1 0x0 SWAP1 SLOAD SWAP1 PUSH2 0x100 EXP SWAP1 DIV PUSH20 0xFFFFFFFFFFFFFFFFFFFFFFFFFFFFFFFFFFFFFFFF AND PUSH20 0xFFFFFFFFFFFFFFFFFFFFFFFFFFFFFFFFFFFFFFFF AND EQ DUP1 PUSH2 0x648 JUMPI POP PUSH1 0x1 ISZERO ISZERO PUSH1 0x5 PUSH1 0x0 CALLER PUSH20 0xFFFFFFFFFFFFFFFFFFFFFFFFFFFFFFFFFFFFFFFF AND PUSH20 0xFFFFFFFFFFFFFFFFFFFFFFFFFFFFFFFFFFFFFFFF AND DUP2 MSTORE PUSH1 0x20 ADD SWAP1 DUP2 MSTORE PUSH1 0x20 ADD PUSH1 0x0 KECCAK256 PUSH1 0x0 ADD PUSH1 0x0 SWAP1 SLOAD SWAP1 PUSH2 0x100 EXP SWAP1 DIV PUSH1 0xFF AND ISZERO ISZERO EQ JUMPDEST PUSH2 0x687 JUMPI PUSH1 0x40 MLOAD PUSH32 0x8C379A000000000000000000000000000000000000000000000000000000000 DUP2 MSTORE PUSH1 0x4 ADD PUSH2 0x67E SWAP1 PUSH2 0x366F JUMP JUMPDEST PUSH1 0x40 MLOAD DUP1 SWAP2 SUB SWAP1 REVERT JUMPDEST PUSH2 0x690 DUP2 PUSH2 0x16E7 JUMP JUMPDEST POP JUMP JUMPDEST PUSH1 0x60 PUSH2 0x69E DUP3 PUSH2 0x16FA JUMP JUMPDEST PUSH2 0x6A7 DUP4 PUSH2 0x178E JUMP JUMPDEST PUSH1 0x40 MLOAD PUSH1 0x20 ADD PUSH2 0x6B8 SWAP3 SWAP2 SWAP1 PUSH2 0x3717 JUMP JUMPDEST PUSH1 0x40 MLOAD PUSH1 0x20 DUP2 DUP4 SUB SUB DUP2 MSTORE SWAP1 PUSH1 0x40 MSTORE SWAP1 POP SWAP2 SWAP1 POP JUMP JUMPDEST PUSH2 0x6D6 PUSH2 0x27AA JUMP JUMPDEST PUSH1 0x4 PUSH1 0x0 DUP4 PUSH20 0xFFFFFFFFFFFFFFFFFFFFFFFFFFFFFFFFFFFFFFFF AND PUSH20 0xFFFFFFFFFFFFFFFFFFFFFFFFFFFFFFFFFFFFFFFF AND DUP2 MSTORE PUSH1 0x20 ADD SWAP1 DUP2 MSTORE PUSH1 0x20 ADD PUSH1 0x0 KECCAK256 PUSH1 0x40 MLOAD DUP1 PUSH1 0x80 ADD PUSH1 0x40 MSTORE SWAP1 DUP2 PUSH1 0x0 DUP3 ADD PUSH1 0x0 SWAP1 SLOAD SWAP1 PUSH2 0x100 EXP SWAP1 DIV PUSH1 0xFF AND ISZERO ISZERO ISZERO ISZERO DUP2 MSTORE PUSH1 0x20 ADD PUSH1 0x1 DUP3 ADD DUP1 SLOAD DUP1 PUSH1 0x20 MUL PUSH1 0x20 ADD PUSH1 0x40 MLOAD SWAP1 DUP2 ADD PUSH1 0x40 MSTORE DUP1 SWAP3 SWAP2 SWAP1 DUP2 DUP2 MSTORE PUSH1 0x20 ADD DUP3 DUP1 SLOAD DUP1 ISZERO PUSH2 0x78A JUMPI PUSH1 0x20 MUL DUP3 ADD SWAP2 SWAP1 PUSH1 0x0 MSTORE PUSH1 0x20 PUSH1 0x0 KECCAK256 SWAP1 JUMPDEST DUP2 SLOAD DUP2 MSTORE PUSH1 0x20 ADD SWAP1 PUSH1 0x1 ADD SWAP1 DUP1 DUP4 GT PUSH2 0x776 JUMPI JUMPDEST POP POP POP POP POP DUP2 MSTORE PUSH1 0x20 ADD PUSH1 0x2 DUP3 ADD PUSH1 0x0 SWAP1 SLOAD SWAP1 PUSH2 0x100 EXP SWAP1 DIV PUSH20 0xFFFFFFFFFFFFFFFFFFFFFFFFFFFFFFFFFFFFFFFF AND PUSH20 0xFFFFFFFFFFFFFFFFFFFFFFFFFFFFFFFFFFFFFFFF AND PUSH20 0xFFFFFFFFFFFFFFFFFFFFFFFFFFFFFFFFFFFFFFFF AND DUP2 MSTORE PUSH1 0x20 ADD PUSH1 0x3 DUP3 ADD DUP1 SLOAD PUSH2 0x7F9 SWAP1 PUSH2 0x3775 JUMP JUMPDEST DUP1 PUSH1 0x1F ADD PUSH1 0x20 DUP1 SWAP2 DIV MUL PUSH1 0x20 ADD PUSH1 0x40 MLOAD SWAP1 DUP2 ADD PUSH1 0x40 MSTORE DUP1 SWAP3 SWAP2 SWAP1 DUP2 DUP2 MSTORE PUSH1 0x20 ADD DUP3 DUP1 SLOAD PUSH2 0x825 SWAP1 PUSH2 0x3775 JUMP JUMPDEST DUP1 ISZERO PUSH2 0x872 JUMPI DUP1 PUSH1 0x1F LT PUSH2 0x847 JUMPI PUSH2 0x100 DUP1 DUP4 SLOAD DIV MUL DUP4 MSTORE SWAP2 PUSH1 0x20 ADD SWAP2 PUSH2 0x872 JUMP JUMPDEST DUP3 ADD SWAP2 SWAP1 PUSH1 0x0 MSTORE PUSH1 0x20 PUSH1 0x0 KECCAK256 SWAP1 JUMPDEST DUP2 SLOAD DUP2 MSTORE SWAP1 PUSH1 0x1 ADD SWAP1 PUSH1 0x20 ADD DUP1 DUP4 GT PUSH2 0x855 JUMPI DUP3 SWAP1 SUB PUSH1 0x1F AND DUP3 ADD SWAP2 JUMPDEST POP POP POP POP POP DUP2 MSTORE POP POP SWAP1 POP SWAP2 SWAP1 POP JUMP JUMPDEST PUSH1 0x0 PUSH2 0x88C PUSH2 0x185C JUMP JUMPDEST SWAP1 POP DUP1 PUSH20 0xFFFFFFFFFFFFFFFFFFFFFFFFFFFFFFFFFFFFFFFF AND DUP7 PUSH20 0xFFFFFFFFFFFFFFFFFFFFFFFFFFFFFFFFFFFFFFFF AND EQ ISZERO DUP1 ISZERO PUSH2 0x8D1 JUMPI POP PUSH2 0x8CF DUP7 DUP3 PUSH2 0x1541 JUMP JUMPDEST ISZERO JUMPDEST ISZERO PUSH2 0x915 JUMPI DUP1 DUP7 PUSH1 0x40 MLOAD PUSH32 0xE237D92200000000000000000000000000000000000000000000000000000000 DUP2 MSTORE PUSH1 0x4 ADD PUSH2 0x90C SWAP3 SWAP2 SWAP1 PUSH2 0x37A6 JUMP JUMPDEST PUSH1 0x40 MLOAD DUP1 SWAP2 SUB SWAP1 REVERT JUMPDEST PUSH2 0x922 DUP7 DUP7 DUP7 DUP7 DUP7 PUSH2 0x1864 JUMP JUMPDEST POP POP POP POP POP POP JUMP JUMPDEST PUSH1 0x60 DUP2 MLOAD DUP4 MLOAD EQ PUSH2 0x976 JUMPI DUP2 MLOAD DUP4 MLOAD PUSH1 0x40 MLOAD PUSH32 0x5B05999100000000000000000000000000000000000000000000000000000000 DUP2 MSTORE PUSH1 0x4 ADD PUSH2 0x96D SWAP3 SWAP2 SWAP1 PUSH2 0x37CF JUMP JUMPDEST PUSH1 0x40 MLOAD DUP1 SWAP2 SUB SWAP1 REVERT JUMPDEST PUSH1 0x0 DUP4 MLOAD PUSH8 0xFFFFFFFFFFFFFFFF DUP2 GT ISZERO PUSH2 0x993 JUMPI PUSH2 0x992 PUSH2 0x2A12 JUMP JUMPDEST JUMPDEST PUSH1 0x40 MLOAD SWAP1 DUP1 DUP3 MSTORE DUP1 PUSH1 0x20 MUL PUSH1 0x20 ADD DUP3 ADD PUSH1 0x40 MSTORE DUP1 ISZERO PUSH2 0x9C1 JUMPI DUP2 PUSH1 0x20 ADD PUSH1 0x20 DUP3 MUL DUP1 CALLDATASIZE DUP4 CALLDATACOPY DUP1 DUP3 ADD SWAP2 POP POP SWAP1 POP JUMPDEST POP SWAP1 POP PUSH1 0x0 JUMPDEST DUP5 MLOAD DUP2 LT ISZERO PUSH2 0xA2E JUMPI PUSH2 0x9FE PUSH2 0x9E6 DUP3 DUP8 PUSH2 0x195C SWAP1 SWAP2 SWAP1 PUSH4 0xFFFFFFFF AND JUMP JUMPDEST PUSH2 0x9F9 DUP4 DUP8 PUSH2 0x1970 SWAP1 SWAP2 SWAP1 PUSH4 0xFFFFFFFF AND JUMP JUMPDEST PUSH2 0x3CD JUMP JUMPDEST DUP3 DUP3 DUP2 MLOAD DUP2 LT PUSH2 0xA11 JUMPI PUSH2 0xA10 PUSH2 0x37F8 JUMP JUMPDEST JUMPDEST PUSH1 0x20 MUL PUSH1 0x20 ADD ADD DUP2 DUP2 MSTORE POP POP DUP1 PUSH2 0xA27 SWAP1 PUSH2 0x3856 JUMP JUMPDEST SWAP1 POP PUSH2 0x9C7 JUMP JUMPDEST POP DUP1 SWAP2 POP POP SWAP3 SWAP2 POP POP JUMP JUMPDEST PUSH1 0x4 PUSH1 0x0 CALLER PUSH20 0xFFFFFFFFFFFFFFFFFFFFFFFFFFFFFFFFFFFFFFFF AND PUSH20 0xFFFFFFFFFFFFFFFFFFFFFFFFFFFFFFFFFFFFFFFF AND DUP2 MSTORE PUSH1 0x20 ADD SWAP1 DUP2 MSTORE PUSH1 0x20 ADD PUSH1 0x0 KECCAK256 PUSH1 0x0 ADD PUSH1 0x0 SWAP1 SLOAD SWAP1 PUSH2 0x100 EXP SWAP1 DIV PUSH1 0xFF AND PUSH2 0xAC8 JUMPI PUSH1 0x40 MLOAD PUSH32 0x8C379A000000000000000000000000000000000000000000000000000000000 DUP2 MSTORE PUSH1 0x4 ADD PUSH2 0xABF SWAP1 PUSH2 0x3910 JUMP JUMPDEST PUSH1 0x40 MLOAD DUP1 SWAP2 SUB SWAP1 REVERT JUMPDEST PUSH1 0x0 DUP1 JUMPDEST PUSH1 0x4 PUSH1 0x0 CALLER PUSH20 0xFFFFFFFFFFFFFFFFFFFFFFFFFFFFFFFFFFFFFFFF AND PUSH20 0xFFFFFFFFFFFFFFFFFFFFFFFFFFFFFFFFFFFFFFFF AND DUP2 MSTORE PUSH1 0x20 ADD SWAP1 DUP2 MSTORE PUSH1 0x20 ADD PUSH1 0x0 KECCAK256 PUSH1 0x1 ADD DUP1 SLOAD SWAP1 POP DUP2 LT ISZERO PUSH2 0xBF7 JUMPI DUP3 PUSH1 0x4 PUSH1 0x0 CALLER PUSH20 0xFFFFFFFFFFFFFFFFFFFFFFFFFFFFFFFFFFFFFFFF AND PUSH20 0xFFFFFFFFFFFFFFFFFFFFFFFFFFFFFFFFFFFFFFFF AND DUP2 MSTORE PUSH1 0x20 ADD SWAP1 DUP2 MSTORE PUSH1 0x20 ADD PUSH1 0x0 KECCAK256 PUSH1 0x1 ADD DUP3 DUP2 SLOAD DUP2 LT PUSH2 0xB6E JUMPI PUSH2 0xB6D PUSH2 0x37F8 JUMP JUMPDEST JUMPDEST SWAP1 PUSH1 0x0 MSTORE PUSH1 0x20 PUSH1 0x0 KECCAK256 ADD SLOAD SUB PUSH2 0xBE4 JUMPI DUP3 PUSH1 0x4 PUSH1 0x0 CALLER PUSH20 0xFFFFFFFFFFFFFFFFFFFFFFFFFFFFFFFFFFFFFFFF AND PUSH20 0xFFFFFFFFFFFFFFFFFFFFFFFFFFFFFFFFFFFFFFFF AND DUP2 MSTORE PUSH1 0x20 ADD SWAP1 DUP2 MSTORE PUSH1 0x20 ADD PUSH1 0x0 KECCAK256 PUSH1 0x1 ADD DUP3 DUP2 SLOAD DUP2 LT PUSH2 0xBD3 JUMPI PUSH2 0xBD2 PUSH2 0x37F8 JUMP JUMPDEST JUMPDEST SWAP1 PUSH1 0x0 MSTORE PUSH1 0x20 PUSH1 0x0 KECCAK256 POP POP POP PUSH1 0x1 SWAP2 POP JUMPDEST DUP1 DUP1 PUSH2 0xBEF SWAP1 PUSH2 0x3856 JUMP JUMPDEST SWAP2 POP POP PUSH2 0xACC JUMP JUMPDEST POP DUP1 PUSH2 0xC38 JUMPI PUSH1 0x40 MLOAD PUSH32 0xE93B6B2400000000000000000000000000000000000000000000000000000000 DUP2 MSTORE PUSH1 0x4 ADD PUSH2 0xC2F SWAP1 PUSH2 0x39A2 JUMP JUMPDEST PUSH1 0x40 MLOAD DUP1 SWAP2 SUB SWAP1 REVERT JUMPDEST PUSH2 0xC54 CALLER DUP4 PUSH1 0x1 PUSH1 0x40 MLOAD DUP1 PUSH1 0x20 ADD PUSH1 0x40 MSTORE DUP1 PUSH1 0x0 DUP2 MSTORE POP PUSH2 0x1984 JUMP JUMPDEST POP POP JUMP JUMPDEST CALLER PUSH20 0xFFFFFFFFFFFFFFFFFFFFFFFFFFFFFFFFFFFFFFFF AND PUSH1 0x3 PUSH1 0x0 SWAP1 SLOAD SWAP1 PUSH2 0x100 EXP SWAP1 DIV PUSH20 0xFFFFFFFFFFFFFFFFFFFFFFFFFFFFFFFFFFFFFFFF AND PUSH20 0xFFFFFFFFFFFFFFFFFFFFFFFFFFFFFFFFFFFFFFFF AND EQ PUSH2 0xCE8 JUMPI PUSH1 0x40 MLOAD PUSH32 0x8C379A000000000000000000000000000000000000000000000000000000000 DUP2 MSTORE PUSH1 0x4 ADD PUSH2 0xCDF SWAP1 PUSH2 0x3603 JUMP JUMPDEST PUSH1 0x40 MLOAD DUP1 SWAP2 SUB SWAP1 REVERT JUMPDEST PUSH1 0x1 PUSH1 0x5 PUSH1 0x0 DUP6 PUSH20 0xFFFFFFFFFFFFFFFFFFFFFFFFFFFFFFFFFFFFFFFF AND PUSH20 0xFFFFFFFFFFFFFFFFFFFFFFFFFFFFFFFFFFFFFFFF AND DUP2 MSTORE PUSH1 0x20 ADD SWAP1 DUP2 MSTORE PUSH1 0x20 ADD PUSH1 0x0 KECCAK256 PUSH1 0x0 ADD PUSH1 0x0 PUSH2 0x100 EXP DUP2 SLOAD DUP2 PUSH1 0xFF MUL NOT AND SWAP1 DUP4 ISZERO ISZERO MUL OR SWAP1 SSTORE POP DUP3 PUSH1 0x5 PUSH1 0x0 DUP6 PUSH20 0xFFFFFFFFFFFFFFFFFFFFFFFFFFFFFFFFFFFFFFFF AND PUSH20 0xFFFFFFFFFFFFFFFFFFFFFFFFFFFFFFFFFFFFFFFF AND DUP2 MSTORE PUSH1 0x20 ADD SWAP1 DUP2 MSTORE PUSH1 0x20 ADD PUSH1 0x0 KECCAK256 PUSH1 0x0 ADD PUSH1 0x1 PUSH2 0x100 EXP DUP2 SLOAD DUP2 PUSH20 0xFFFFFFFFFFFFFFFFFFFFFFFFFFFFFFFFFFFFFFFF MUL NOT AND SWAP1 DUP4 PUSH20 0xFFFFFFFFFFFFFFFFFFFFFFFFFFFFFFFFFFFFFFFF AND MUL OR SWAP1 SSTORE POP DUP2 PUSH1 0x5 PUSH1 0x0 DUP6 PUSH20 0xFFFFFFFFFFFFFFFFFFFFFFFFFFFFFFFFFFFFFFFF AND PUSH20 0xFFFFFFFFFFFFFFFFFFFFFFFFFFFFFFFFFFFFFFFF AND DUP2 MSTORE PUSH1 0x20 ADD SWAP1 DUP2 MSTORE PUSH1 0x20 ADD PUSH1 0x0 KECCAK256 PUSH1 0x1 ADD SWAP1 DUP2 PUSH2 0xE13 SWAP2 SWAP1 PUSH2 0x3B6E JUMP JUMPDEST POP DUP1 PUSH1 0x5 PUSH1 0x0 DUP6 PUSH20 0xFFFFFFFFFFFFFFFFFFFFFFFFFFFFFFFFFFFFFFFF AND PUSH20 0xFFFFFFFFFFFFFFFFFFFFFFFFFFFFFFFFFFFFFFFF AND DUP2 MSTORE PUSH1 0x20 ADD SWAP1 DUP2 MSTORE PUSH1 0x20 ADD PUSH1 0x0 KECCAK256 PUSH1 0x2 ADD DUP2 SWAP1 SSTORE POP POP POP POP JUMP JUMPDEST PUSH1 0x3 PUSH1 0x0 SWAP1 SLOAD SWAP1 PUSH2 0x100 EXP SWAP1 DIV PUSH20 0xFFFFFFFFFFFFFFFFFFFFFFFFFFFFFFFFFFFFFFFF AND DUP2 JUMP JUMPDEST PUSH2 0xE8E PUSH2 0x27EA JUMP JUMPDEST PUSH1 0x5 PUSH1 0x0 DUP4 PUSH20 0xFFFFFFFFFFFFFFFFFFFFFFFFFFFFFFFFFFFFFFFF AND PUSH20 0xFFFFFFFFFFFFFFFFFFFFFFFFFFFFFFFFFFFFFFFF AND DUP2 MSTORE PUSH1 0x20 ADD SWAP1 DUP2 MSTORE PUSH1 0x20 ADD PUSH1 0x0 KECCAK256 PUSH1 0x40 MLOAD DUP1 PUSH1 0x80 ADD PUSH1 0x40 MSTORE SWAP1 DUP2 PUSH1 0x0 DUP3 ADD PUSH1 0x0 SWAP1 SLOAD SWAP1 PUSH2 0x100 EXP SWAP1 DIV PUSH1 0xFF AND ISZERO ISZERO ISZERO ISZERO DUP2 MSTORE PUSH1 0x20 ADD PUSH1 0x0 DUP3 ADD PUSH1 0x1 SWAP1 SLOAD SWAP1 PUSH2 0x100 EXP SWAP1 DIV PUSH20 0xFFFFFFFFFFFFFFFFFFFFFFFFFFFFFFFFFFFFFFFF AND PUSH20 0xFFFFFFFFFFFFFFFFFFFFFFFFFFFFFFFFFFFFFFFF AND PUSH20 0xFFFFFFFFFFFFFFFFFFFFFFFFFFFFFFFFFFFFFFFF AND DUP2 MSTORE PUSH1 0x20 ADD PUSH1 0x1 DUP3 ADD DUP1 SLOAD PUSH2 0xF59 SWAP1 PUSH2 0x3775 JUMP JUMPDEST DUP1 PUSH1 0x1F ADD PUSH1 0x20 DUP1 SWAP2 DIV MUL PUSH1 0x20 ADD PUSH1 0x40 MLOAD SWAP1 DUP2 ADD PUSH1 0x40 MSTORE DUP1 SWAP3 SWAP2 SWAP1 DUP2 DUP2 MSTORE PUSH1 0x20 ADD DUP3 DUP1 SLOAD PUSH2 0xF85 SWAP1 PUSH2 0x3775 JUMP JUMPDEST DUP1 ISZERO PUSH2 0xFD2 JUMPI DUP1 PUSH1 0x1F LT PUSH2 0xFA7 JUMPI PUSH2 0x100 DUP1 DUP4 SLOAD DIV MUL DUP4 MSTORE SWAP2 PUSH1 0x20 ADD SWAP2 PUSH2 0xFD2 JUMP JUMPDEST DUP3 ADD SWAP2 SWAP1 PUSH1 0x0 MSTORE PUSH1 0x20 PUSH1 0x0 KECCAK256 SWAP1 JUMPDEST DUP2 SLOAD DUP2 MSTORE SWAP1 PUSH1 0x1 ADD SWAP1 PUSH1 0x20 ADD DUP1 DUP4 GT PUSH2 0xFB5 JUMPI DUP3 SWAP1 SUB PUSH1 0x1F AND DUP3 ADD SWAP2 JUMPDEST POP POP POP POP POP DUP2 MSTORE PUSH1 0x20 ADD PUSH1 0x2 DUP3 ADD SLOAD DUP2 MSTORE POP POP SWAP1 POP SWAP2 SWAP1 POP JUMP JUMPDEST PUSH2 0xFFE PUSH2 0xFF7 PUSH2 0x185C JUMP JUMPDEST DUP4 DUP4 PUSH2 0x1A1D JUMP JUMPDEST POP POP JUMP JUMPDEST PUSH1 0x1 ISZERO ISZERO PUSH1 0x5 PUSH1 0x0 CALLER PUSH20 0xFFFFFFFFFFFFFFFFFFFFFFFFFFFFFFFFFFFFFFFF AND PUSH20 0xFFFFFFFFFFFFFFFFFFFFFFFFFFFFFFFFFFFFFFFF AND DUP2 MSTORE PUSH1 0x20 ADD SWAP1 DUP2 MSTORE PUSH1 0x20 ADD PUSH1 0x0 KECCAK256 PUSH1 0x0 ADD PUSH1 0x0 SWAP1 SLOAD SWAP1 PUSH2 0x100 EXP SWAP1 DIV PUSH1 0xFF AND ISZERO ISZERO EQ PUSH2 0x1098 JUMPI PUSH1 0x40 MLOAD PUSH32 0x8C379A000000000000000000000000000000000000000000000000000000000 DUP2 MSTORE PUSH1 0x4 ADD PUSH2 0x108F SWAP1 PUSH2 0x3C8C JUMP JUMPDEST PUSH1 0x40 MLOAD DUP1 SWAP2 SUB SWAP1 REVERT JUMPDEST PUSH1 0x1 PUSH1 0x4 PUSH1 0x0 DUP6 PUSH20 0xFFFFFFFFFFFFFFFFFFFFFFFFFFFFFFFFFFFFFFFF AND PUSH20 0xFFFFFFFFFFFFFFFFFFFFFFFFFFFFFFFFFFFFFFFF AND DUP2 MSTORE PUSH1 0x20 ADD SWAP1 DUP2 MSTORE PUSH1 0x20 ADD PUSH1 0x0 KECCAK256 PUSH1 0x0 ADD PUSH1 0x0 PUSH2 0x100 EXP DUP2 SLOAD DUP2 PUSH1 0xFF MUL NOT AND SWAP1 DUP4 ISZERO ISZERO MUL OR SWAP1 SSTORE POP PUSH1 0x0 PUSH1 0x4 PUSH1 0x0 DUP6 PUSH20 0xFFFFFFFFFFFFFFFFFFFFFFFFFFFFFFFFFFFFFFFF AND PUSH20 0xFFFFFFFFFFFFFFFFFFFFFFFFFFFFFFFFFFFFFFFF AND DUP2 MSTORE PUSH1 0x20 ADD SWAP1 DUP2 MSTORE PUSH1 0x20 ADD PUSH1 0x0 KECCAK256 PUSH1 0x1 ADD DUP1 SLOAD SWAP1 POP SUB PUSH2 0x11AE JUMPI PUSH1 0x4 PUSH1 0x0 DUP5 PUSH20 0xFFFFFFFFFFFFFFFFFFFFFFFFFFFFFFFFFFFFFFFF AND PUSH20 0xFFFFFFFFFFFFFFFFFFFFFFFFFFFFFFFFFFFFFFFF AND DUP2 MSTORE PUSH1 0x20 ADD SWAP1 DUP2 MSTORE PUSH1 0x20 ADD PUSH1 0x0 KECCAK256 PUSH1 0x1 ADD DUP3 SWAP1 DUP1 PUSH1 0x1 DUP2 SLOAD ADD DUP1 DUP3 SSTORE DUP1 SWAP2 POP POP PUSH1 0x1 SWAP1 SUB SWAP1 PUSH1 0x0 MSTORE PUSH1 0x20 PUSH1 0x0 KECCAK256 ADD PUSH1 0x0 SWAP1 SWAP2 SWAP1 SWAP2 SWAP1 SWAP2 POP SSTORE PUSH2 0x11B9 JUMP JUMPDEST PUSH2 0x11B8 DUP4 DUP4 PUSH2 0x1B8D JUMP JUMPDEST JUMPDEST CALLER PUSH1 0x4 PUSH1 0x0 DUP6 PUSH20 0xFFFFFFFFFFFFFFFFFFFFFFFFFFFFFFFFFFFFFFFF AND PUSH20 0xFFFFFFFFFFFFFFFFFFFFFFFFFFFFFFFFFFFFFFFF AND DUP2 MSTORE PUSH1 0x20 ADD SWAP1 DUP2 MSTORE PUSH1 0x20 ADD PUSH1 0x0 KECCAK256 PUSH1 0x2 ADD PUSH1 0x0 PUSH2 0x100 EXP DUP2 SLOAD DUP2 PUSH20 0xFFFFFFFFFFFFFFFFFFFFFFFFFFFFFFFFFFFFFFFF MUL NOT AND SWAP1 DUP4 PUSH20 0xFFFFFFFFFFFFFFFFFFFFFFFFFFFFFFFFFFFFFFFF AND MUL OR SWAP1 SSTORE POP DUP1 PUSH1 0x4 PUSH1 0x0 DUP6 PUSH20 0xFFFFFFFFFFFFFFFFFFFFFFFFFFFFFFFFFFFFFFFF AND PUSH20 0xFFFFFFFFFFFFFFFFFFFFFFFFFFFFFFFFFFFFFFFF AND DUP2 MSTORE PUSH1 0x20 ADD SWAP1 DUP2 MSTORE PUSH1 0x20 ADD PUSH1 0x0 KECCAK256 PUSH1 0x3 ADD SWAP1 DUP2 PUSH2 0x1289 SWAP2 SWAP1 PUSH2 0x3B6E JUMP JUMPDEST POP POP POP POP JUMP JUMPDEST PUSH1 0x4 PUSH1 0x20 MSTORE DUP1 PUSH1 0x0 MSTORE PUSH1 0x40 PUSH1 0x0 KECCAK256 PUSH1 0x0 SWAP2 POP SWAP1 POP DUP1 PUSH1 0x0 ADD PUSH1 0x0 SWAP1 SLOAD SWAP1 PUSH2 0x100 EXP SWAP1 DIV PUSH1 0xFF AND SWAP1 DUP1 PUSH1 0x2 ADD PUSH1 0x0 SWAP1 SLOAD SWAP1 PUSH2 0x100 EXP SWAP1 DIV PUSH20 0xFFFFFFFFFFFFFFFFFFFFFFFFFFFFFFFFFFFFFFFF AND SWAP1 DUP1 PUSH1 0x3 ADD DUP1 SLOAD PUSH2 0x12EB SWAP1 PUSH2 0x3775 JUMP JUMPDEST DUP1 PUSH1 0x1F ADD PUSH1 0x20 DUP1 SWAP2 DIV MUL PUSH1 0x20 ADD PUSH1 0x40 MLOAD SWAP1 DUP2 ADD PUSH1 0x40 MSTORE DUP1 SWAP3 SWAP2 SWAP1 DUP2 DUP2 MSTORE PUSH1 0x20 ADD DUP3 DUP1 SLOAD PUSH2 0x1317 SWAP1 PUSH2 0x3775 JUMP JUMPDEST DUP1 ISZERO PUSH2 0x1364 JUMPI DUP1 PUSH1 0x1F LT PUSH2 0x1339 JUMPI PUSH2 0x100 DUP1 DUP4 SLOAD DIV MUL DUP4 MSTORE SWAP2 PUSH1 0x20 ADD SWAP2 PUSH2 0x1364 JUMP JUMPDEST DUP3 ADD SWAP2 SWAP1 PUSH1 0x0 MSTORE PUSH1 0x20 PUSH1 0x0 KECCAK256 SWAP1 JUMPDEST DUP2 SLOAD DUP2 MSTORE SWAP1 PUSH1 0x1 ADD SWAP1 PUSH1 0x20 ADD DUP1 DUP4 GT PUSH2 0x1347 JUMPI DUP3 SWAP1 SUB PUSH1 0x1F AND DUP3 ADD SWAP2 JUMPDEST POP POP POP POP POP SWAP1 POP DUP4 JUMP JUMPDEST CALLER PUSH20 0xFFFFFFFFFFFFFFFFFFFFFFFFFFFFFFFFFFFFFFFF AND PUSH1 0x3 PUSH1 0x0 SWAP1 SLOAD SWAP1 PUSH2 0x100 EXP SWAP1 DIV PUSH20 0xFFFFFFFFFFFFFFFFFFFFFFFFFFFFFFFFFFFFFFFF AND PUSH20 0xFFFFFFFFFFFFFFFFFFFFFFFFFFFFFFFFFFFFFFFF AND EQ PUSH2 0x13FE JUMPI PUSH1 0x40 MLOAD PUSH32 0x8C379A000000000000000000000000000000000000000000000000000000000 DUP2 MSTORE PUSH1 0x4 ADD PUSH2 0x13F5 SWAP1 PUSH2 0x3603 JUMP JUMPDEST PUSH1 0x40 MLOAD DUP1 SWAP2 SUB SWAP1 REVERT JUMPDEST PUSH1 0x0 PUSH1 0x5 PUSH1 0x0 DUP4 PUSH20 0xFFFFFFFFFFFFFFFFFFFFFFFFFFFFFFFFFFFFFFFF AND PUSH20 0xFFFFFFFFFFFFFFFFFFFFFFFFFFFFFFFFFFFFFFFF AND DUP2 MSTORE PUSH1 0x20 ADD SWAP1 DUP2 MSTORE PUSH1 0x20 ADD PUSH1 0x0 KECCAK256 PUSH1 0x0 ADD PUSH1 0x0 PUSH2 0x100 EXP DUP2 SLOAD DUP2 PUSH1 0xFF MUL NOT AND SWAP1 DUP4 ISZERO ISZERO MUL OR SWAP1 SSTORE POP POP JUMP JUMPDEST PUSH1 0x5 PUSH1 0x20 MSTORE DUP1 PUSH1 0x0 MSTORE PUSH1 0x40 PUSH1 0x0 KECCAK256 PUSH1 0x0 SWAP2 POP SWAP1 POP DUP1 PUSH1 0x0 ADD PUSH1 0x0 SWAP1 SLOAD SWAP1 PUSH2 0x100 EXP SWAP1 DIV PUSH1 0xFF AND SWAP1 DUP1 PUSH1 0x0 ADD PUSH1 0x1 SWAP1 SLOAD SWAP1 PUSH2 0x100 EXP SWAP1 DIV PUSH20 0xFFFFFFFFFFFFFFFFFFFFFFFFFFFFFFFFFFFFFFFF AND SWAP1 DUP1 PUSH1 0x1 ADD DUP1 SLOAD PUSH2 0x14B8 SWAP1 PUSH2 0x3775 JUMP JUMPDEST DUP1 PUSH1 0x1F ADD PUSH1 0x20 DUP1 SWAP2 DIV MUL PUSH1 0x20 ADD PUSH1 0x40 MLOAD SWAP1 DUP2 ADD PUSH1 0x40 MSTORE DUP1 SWAP3 SWAP2 SWAP1 DUP2 DUP2 MSTORE PUSH1 0x20 ADD DUP3 DUP1 SLOAD PUSH2 0x14E4 SWAP1 PUSH2 0x3775 JUMP JUMPDEST DUP1 ISZERO PUSH2 0x1531 JUMPI DUP1 PUSH1 0x1F LT PUSH2 0x1506 JUMPI PUSH2 0x100 DUP1 DUP4 SLOAD DIV MUL DUP4 MSTORE SWAP2 PUSH1 0x20 ADD SWAP2 PUSH2 0x1531 JUMP JUMPDEST DUP3 ADD SWAP2 SWAP1 PUSH1 0x0 MSTORE PUSH1 0x20 PUSH1 0x0 KECCAK256 SWAP1 JUMPDEST DUP2 SLOAD DUP2 MSTORE SWAP1 PUSH1 0x1 ADD SWAP1 PUSH1 0x20 ADD DUP1 DUP4 GT PUSH2 0x1514 JUMPI DUP3 SWAP1 SUB PUSH1 0x1F AND DUP3 ADD SWAP2 JUMPDEST POP POP POP POP POP SWAP1 DUP1 PUSH1 0x2 ADD SLOAD SWAP1 POP DUP5 JUMP JUMPDEST PUSH1 0x0 PUSH1 0x1 PUSH1 0x0 DUP5 PUSH20 0xFFFFFFFFFFFFFFFFFFFFFFFFFFFFFFFFFFFFFFFF AND PUSH20 0xFFFFFFFFFFFFFFFFFFFFFFFFFFFFFFFFFFFFFFFF AND DUP2 MSTORE PUSH1 0x20 ADD SWAP1 DUP2 MSTORE PUSH1 0x20 ADD PUSH1 0x0 KECCAK256 PUSH1 0x0 DUP4 PUSH20 0xFFFFFFFFFFFFFFFFFFFFFFFFFFFFFFFFFFFFFFFF AND PUSH20 0xFFFFFFFFFFFFFFFFFFFFFFFFFFFFFFFFFFFFFFFF AND DUP2 MSTORE PUSH1 0x20 ADD SWAP1 DUP2 MSTORE PUSH1 0x20 ADD PUSH1 0x0 KECCAK256 PUSH1 0x0 SWAP1 SLOAD SWAP1 PUSH2 0x100 EXP SWAP1 DIV PUSH1 0xFF AND SWAP1 POP SWAP3 SWAP2 POP POP JUMP JUMPDEST PUSH1 0x0 PUSH2 0x15DF PUSH2 0x185C JUMP JUMPDEST SWAP1 POP DUP1 PUSH20 0xFFFFFFFFFFFFFFFFFFFFFFFFFFFFFFFFFFFFFFFF AND DUP7 PUSH20 0xFFFFFFFFFFFFFFFFFFFFFFFFFFFFFFFFFFFFFFFF AND EQ ISZERO DUP1 ISZERO PUSH2 0x1624 JUMPI POP PUSH2 0x1622 DUP7 DUP3 PUSH2 0x1541 JUMP JUMPDEST ISZERO JUMPDEST ISZERO PUSH2 0x1668 JUMPI DUP1 DUP7 PUSH1 0x40 MLOAD PUSH32 0xE237D92200000000000000000000000000000000000000000000000000000000 DUP2 MSTORE PUSH1 0x4 ADD PUSH2 0x165F SWAP3 SWAP2 SWAP1 PUSH2 0x37A6 JUMP JUMPDEST PUSH1 0x40 MLOAD DUP1 SWAP2 SUB SWAP1 REVERT JUMPDEST PUSH2 0x1675 DUP7 DUP7 DUP7 DUP7 DUP7 PUSH2 0x1D54 JUMP JUMPDEST POP POP POP POP POP POP JUMP JUMPDEST PUSH1 0x0 PUSH32 0x1FFC9A700000000000000000000000000000000000000000000000000000000 PUSH28 0xFFFFFFFFFFFFFFFFFFFFFFFFFFFFFFFFFFFFFFFFFFFFFFFFFFFFFFFF NOT AND DUP3 PUSH28 0xFFFFFFFFFFFFFFFFFFFFFFFFFFFFFFFFFFFFFFFFFFFFFFFFFFFFFFFF NOT AND EQ SWAP1 POP SWAP2 SWAP1 POP JUMP JUMPDEST DUP1 PUSH1 0x2 SWAP1 DUP2 PUSH2 0x16F6 SWAP2 SWAP1 PUSH2 0x3B6E JUMP JUMPDEST POP POP JUMP JUMPDEST PUSH1 0x60 PUSH1 0x2 DUP1 SLOAD PUSH2 0x1709 SWAP1 PUSH2 0x3775 JUMP JUMPDEST DUP1 PUSH1 0x1F ADD PUSH1 0x20 DUP1 SWAP2 DIV MUL PUSH1 0x20 ADD PUSH1 0x40 MLOAD SWAP1 DUP2 ADD PUSH1 0x40 MSTORE DUP1 SWAP3 SWAP2 SWAP1 DUP2 DUP2 MSTORE PUSH1 0x20 ADD DUP3 DUP1 SLOAD PUSH2 0x1735 SWAP1 PUSH2 0x3775 JUMP JUMPDEST DUP1 ISZERO PUSH2 0x1782 JUMPI DUP1 PUSH1 0x1F LT PUSH2 0x1757 JUMPI PUSH2 0x100 DUP1 DUP4 SLOAD DIV MUL DUP4 MSTORE SWAP2 PUSH1 0x20 ADD SWAP2 PUSH2 0x1782 JUMP JUMPDEST DUP3 ADD SWAP2 SWAP1 PUSH1 0x0 MSTORE PUSH1 0x20 PUSH1 0x0 KECCAK256 SWAP1 JUMPDEST DUP2 SLOAD DUP2 MSTORE SWAP1 PUSH1 0x1 ADD SWAP1 PUSH1 0x20 ADD DUP1 DUP4 GT PUSH2 0x1765 JUMPI DUP3 SWAP1 SUB PUSH1 0x1F AND DUP3 ADD SWAP2 JUMPDEST POP POP POP POP POP SWAP1 POP SWAP2 SWAP1 POP JUMP JUMPDEST PUSH1 0x60 PUSH1 0x0 PUSH1 0x1 PUSH2 0x179D DUP5 PUSH2 0x1E5F JUMP JUMPDEST ADD SWAP1 POP PUSH1 0x0 DUP2 PUSH8 0xFFFFFFFFFFFFFFFF DUP2 GT ISZERO PUSH2 0x17BC JUMPI PUSH2 0x17BB PUSH2 0x2A12 JUMP JUMPDEST JUMPDEST PUSH1 0x40 MLOAD SWAP1 DUP1 DUP3 MSTORE DUP1 PUSH1 0x1F ADD PUSH1 0x1F NOT AND PUSH1 0x20 ADD DUP3 ADD PUSH1 0x40 MSTORE DUP1 ISZERO PUSH2 0x17EE JUMPI DUP2 PUSH1 0x20 ADD PUSH1 0x1 DUP3 MUL DUP1 CALLDATASIZE DUP4 CALLDATACOPY DUP1 DUP3 ADD SWAP2 POP POP SWAP1 POP JUMPDEST POP SWAP1 POP PUSH1 0x0 DUP3 PUSH1 0x20 ADD DUP3 ADD SWAP1 POP JUMPDEST PUSH1 0x1 ISZERO PUSH2 0x1851 JUMPI DUP1 DUP1 PUSH1 0x1 SWAP1 SUB SWAP2 POP POP PUSH32 0x3031323334353637383961626364656600000000000000000000000000000000 PUSH1 0xA DUP7 MOD BYTE DUP2 MSTORE8 PUSH1 0xA DUP6 DUP2 PUSH2 0x1845 JUMPI PUSH2 0x1844 PUSH2 0x3CAC JUMP JUMPDEST JUMPDEST DIV SWAP5 POP PUSH1 0x0 DUP6 SUB PUSH2 0x17FC JUMPI JUMPDEST DUP2 SWAP4 POP POP POP POP SWAP2 SWAP1 POP JUMP JUMPDEST PUSH1 0x0 CALLER SWAP1 POP SWAP1 JUMP JUMPDEST PUSH1 0x0 PUSH20 0xFFFFFFFFFFFFFFFFFFFFFFFFFFFFFFFFFFFFFFFF AND DUP5 PUSH20 0xFFFFFFFFFFFFFFFFFFFFFFFFFFFFFFFFFFFFFFFF AND SUB PUSH2 0x18D6 JUMPI PUSH1 0x0 PUSH1 0x40 MLOAD PUSH32 0x57F447CE00000000000000000000000000000000000000000000000000000000 DUP2 MSTORE PUSH1 0x4 ADD PUSH2 0x18CD SWAP2 SWAP1 PUSH2 0x32B5 JUMP JUMPDEST PUSH1 0x40 MLOAD DUP1 SWAP2 SUB SWAP1 REVERT JUMPDEST PUSH1 0x0 PUSH20 0xFFFFFFFFFFFFFFFFFFFFFFFFFFFFFFFFFFFFFFFF AND DUP6 PUSH20 0xFFFFFFFFFFFFFFFFFFFFFFFFFFFFFFFFFFFFFFFF AND SUB PUSH2 0x1948 JUMPI PUSH1 0x0 PUSH1 0x40 MLOAD PUSH32 0x1A8351400000000000000000000000000000000000000000000000000000000 DUP2 MSTORE PUSH1 0x4 ADD PUSH2 0x193F SWAP2 SWAP1 PUSH2 0x32B5 JUMP JUMPDEST PUSH1 0x40 MLOAD DUP1 SWAP2 SUB SWAP1 REVERT JUMPDEST PUSH2 0x1955 DUP6 DUP6 DUP6 DUP6 DUP6 PUSH2 0x1FB2 JUMP JUMPDEST POP POP POP POP POP JUMP JUMPDEST PUSH1 0x0 PUSH1 0x20 DUP3 MUL PUSH1 0x20 DUP5 ADD ADD MLOAD SWAP1 POP SWAP3 SWAP2 POP POP JUMP JUMPDEST PUSH1 0x0 PUSH1 0x20 DUP3 MUL PUSH1 0x20 DUP5 ADD ADD MLOAD SWAP1 POP SWAP3 SWAP2 POP POP JUMP JUMPDEST PUSH1 0x0 PUSH20 0xFFFFFFFFFFFFFFFFFFFFFFFFFFFFFFFFFFFFFFFF AND DUP5 PUSH20 0xFFFFFFFFFFFFFFFFFFFFFFFFFFFFFFFFFFFFFFFF AND SUB PUSH2 0x19F6 JUMPI PUSH1 0x0 PUSH1 0x40 MLOAD PUSH32 0x57F447CE00000000000000000000000000000000000000000000000000000000 DUP2 MSTORE PUSH1 0x4 ADD PUSH2 0x19ED SWAP2 SWAP1 PUSH2 0x32B5 JUMP JUMPDEST PUSH1 0x40 MLOAD DUP1 SWAP2 SUB SWAP1 REVERT JUMPDEST PUSH1 0x0 DUP1 PUSH2 0x1A03 DUP6 DUP6 PUSH2 0x2064 JUMP JUMPDEST SWAP2 POP SWAP2 POP PUSH2 0x1A15 PUSH1 0x0 DUP8 DUP5 DUP5 DUP8 PUSH2 0x1FB2 JUMP JUMPDEST POP POP POP POP POP POP JUMP JUMPDEST PUSH1 0x0 PUSH20 0xFFFFFFFFFFFFFFFFFFFFFFFFFFFFFFFFFFFFFFFF AND DUP3 PUSH20 0xFFFFFFFFFFFFFFFFFFFFFFFFFFFFFFFFFFFFFFFF AND SUB PUSH2 0x1A8F JUMPI PUSH1 0x0 PUSH1 0x40 MLOAD PUSH32 0xCED3E10000000000000000000000000000000000000000000000000000000000 DUP2 MSTORE PUSH1 0x4 ADD PUSH2 0x1A86 SWAP2 SWAP1 PUSH2 0x32B5 JUMP JUMPDEST PUSH1 0x40 MLOAD DUP1 SWAP2 SUB SWAP1 REVERT JUMPDEST DUP1 PUSH1 0x1 PUSH1 0x0 DUP6 PUSH20 0xFFFFFFFFFFFFFFFFFFFFFFFFFFFFFFFFFFFFFFFF AND PUSH20 0xFFFFFFFFFFFFFFFFFFFFFFFFFFFFFFFFFFFFFFFF AND DUP2 MSTORE PUSH1 0x20 ADD SWAP1 DUP2 MSTORE PUSH1 0x20 ADD PUSH1 0x0 KECCAK256 PUSH1 0x0 DUP5 PUSH20 0xFFFFFFFFFFFFFFFFFFFFFFFFFFFFFFFFFFFFFFFF AND PUSH20 0xFFFFFFFFFFFFFFFFFFFFFFFFFFFFFFFFFFFFFFFF AND DUP2 MSTORE PUSH1 0x20 ADD SWAP1 DUP2 MSTORE PUSH1 0x20 ADD PUSH1 0x0 KECCAK256 PUSH1 0x0 PUSH2 0x100 EXP DUP2 SLOAD DUP2 PUSH1 0xFF MUL NOT AND SWAP1 DUP4 ISZERO ISZERO MUL OR SWAP1 SSTORE POP DUP2 PUSH20 0xFFFFFFFFFFFFFFFFFFFFFFFFFFFFFFFFFFFFFFFF AND DUP4 PUSH20 0xFFFFFFFFFFFFFFFFFFFFFFFFFFFFFFFFFFFFFFFF AND PUSH32 0x17307EAB39AB6107E8899845AD3D59BD9653F200F220920489CA2B5937696C31 DUP4 PUSH1 0x40 MLOAD PUSH2 0x1B80 SWAP2 SWAP1 PUSH2 0x29DC JUMP JUMPDEST PUSH1 0x40 MLOAD DUP1 SWAP2 SUB SWAP1 LOG3 POP POP POP JUMP JUMPDEST CALLER PUSH20 0xFFFFFFFFFFFFFFFFFFFFFFFFFFFFFFFFFFFFFFFF AND PUSH1 0x3 PUSH1 0x0 SWAP1 SLOAD SWAP1 PUSH2 0x100 EXP SWAP1 DIV PUSH20 0xFFFFFFFFFFFFFFFFFFFFFFFFFFFFFFFFFFFFFFFF AND PUSH20 0xFFFFFFFFFFFFFFFFFFFFFFFFFFFFFFFFFFFFFFFF AND EQ PUSH2 0x1C1D JUMPI PUSH1 0x40 MLOAD PUSH32 0x8C379A000000000000000000000000000000000000000000000000000000000 DUP2 MSTORE PUSH1 0x4 ADD PUSH2 0x1C14 SWAP1 PUSH2 0x3603 JUMP JUMPDEST PUSH1 0x40 MLOAD DUP1 SWAP2 SUB SWAP1 REVERT JUMPDEST PUSH1 0x0 JUMPDEST PUSH1 0x4 PUSH1 0x0 DUP5 PUSH20 0xFFFFFFFFFFFFFFFFFFFFFFFFFFFFFFFFFFFFFFFF AND PUSH20 0xFFFFFFFFFFFFFFFFFFFFFFFFFFFFFFFFFFFFFFFF AND DUP2 MSTORE PUSH1 0x20 ADD SWAP1 DUP2 MSTORE PUSH1 0x20 ADD PUSH1 0x0 KECCAK256 PUSH1 0x1 ADD DUP1 SLOAD SWAP1 POP DUP2 LT ISZERO PUSH2 0x1D4F JUMPI DUP2 PUSH1 0x4 PUSH1 0x0 DUP6 PUSH20 0xFFFFFFFFFFFFFFFFFFFFFFFFFFFFFFFFFFFFFFFF AND PUSH20 0xFFFFFFFFFFFFFFFFFFFFFFFFFFFFFFFFFFFFFFFF AND DUP2 MSTORE PUSH1 0x20 ADD SWAP1 DUP2 MSTORE PUSH1 0x20 ADD PUSH1 0x0 KECCAK256 PUSH1 0x1 ADD DUP3 DUP2 SLOAD DUP2 LT PUSH2 0x1CC2 JUMPI PUSH2 0x1CC1 PUSH2 0x37F8 JUMP JUMPDEST JUMPDEST SWAP1 PUSH1 0x0 MSTORE PUSH1 0x20 PUSH1 0x0 KECCAK256 ADD SLOAD EQ PUSH2 0x1D3C JUMPI PUSH1 0x4 PUSH1 0x0 DUP5 PUSH20 0xFFFFFFFFFFFFFFFFFFFFFFFFFFFFFFFFFFFFFFFF AND PUSH20 0xFFFFFFFFFFFFFFFFFFFFFFFFFFFFFFFFFFFFFFFF AND DUP2 MSTORE PUSH1 0x20 ADD SWAP1 DUP2 MSTORE PUSH1 0x20 ADD PUSH1 0x0 KECCAK256 PUSH1 0x1 ADD DUP3 SWAP1 DUP1 PUSH1 0x1 DUP2 SLOAD ADD DUP1 DUP3 SSTORE DUP1 SWAP2 POP POP PUSH1 0x1 SWAP1 SUB SWAP1 PUSH1 0x0 MSTORE PUSH1 0x20 PUSH1 0x0 KECCAK256 ADD PUSH1 0x0 SWAP1 SWAP2 SWAP1 SWAP2 SWAP1 SWAP2 POP SSTORE JUMPDEST DUP1 DUP1 PUSH2 0x1D47 SWAP1 PUSH2 0x3856 JUMP JUMPDEST SWAP2 POP POP PUSH2 0x1C20 JUMP JUMPDEST POP POP POP JUMP JUMPDEST PUSH1 0x0 PUSH20 0xFFFFFFFFFFFFFFFFFFFFFFFFFFFFFFFFFFFFFFFF AND DUP5 PUSH20 0xFFFFFFFFFFFFFFFFFFFFFFFFFFFFFFFFFFFFFFFF AND SUB PUSH2 0x1DC6 JUMPI PUSH1 0x0 PUSH1 0x40 MLOAD PUSH32 0x57F447CE00000000000000000000000000000000000000000000000000000000 DUP2 MSTORE PUSH1 0x4 ADD PUSH2 0x1DBD SWAP2 SWAP1 PUSH2 0x32B5 JUMP JUMPDEST PUSH1 0x40 MLOAD DUP1 SWAP2 SUB SWAP1 REVERT JUMPDEST PUSH1 0x0 PUSH20 0xFFFFFFFFFFFFFFFFFFFFFFFFFFFFFFFFFFFFFFFF AND DUP6 PUSH20 0xFFFFFFFFFFFFFFFFFFFFFFFFFFFFFFFFFFFFFFFF AND SUB PUSH2 0x1E38 JUMPI PUSH1 0x0 PUSH1 0x40 MLOAD PUSH32 0x1A8351400000000000000000000000000000000000000000000000000000000 DUP2 MSTORE PUSH1 0x4 ADD PUSH2 0x1E2F SWAP2 SWAP1 PUSH2 0x32B5 JUMP JUMPDEST PUSH1 0x40 MLOAD DUP1 SWAP2 SUB SWAP1 REVERT JUMPDEST PUSH1 0x0 DUP1 PUSH2 0x1E45 DUP6 DUP6 PUSH2 0x2064 JUMP JUMPDEST SWAP2 POP SWAP2 POP PUSH2 0x1E56 DUP8 DUP8 DUP5 DUP5 DUP8 PUSH2 0x1FB2 JUMP JUMPDEST POP POP POP POP POP POP POP JUMP JUMPDEST PUSH1 0x0 DUP1 PUSH1 0x0 SWAP1 POP PUSH27 0x184F03E93FF9F4DAA797ED6E38ED64BF6A1F010000000000000000 DUP4 LT PUSH2 0x1EBD JUMPI PUSH27 0x184F03E93FF9F4DAA797ED6E38ED64BF6A1F010000000000000000 DUP4 DUP2 PUSH2 0x1EB3 JUMPI PUSH2 0x1EB2 PUSH2 0x3CAC JUMP JUMPDEST JUMPDEST DIV SWAP3 POP PUSH1 0x40 DUP2 ADD SWAP1 POP JUMPDEST PUSH14 0x4EE2D6D415B85ACEF8100000000 DUP4 LT PUSH2 0x1EFA JUMPI PUSH14 0x4EE2D6D415B85ACEF8100000000 DUP4 DUP2 PUSH2 0x1EF0 JUMPI PUSH2 0x1EEF PUSH2 0x3CAC JUMP JUMPDEST JUMPDEST DIV SWAP3 POP PUSH1 0x20 DUP2 ADD SWAP1 POP JUMPDEST PUSH7 0x2386F26FC10000 DUP4 LT PUSH2 0x1F29 JUMPI PUSH7 0x2386F26FC10000 DUP4 DUP2 PUSH2 0x1F1F JUMPI PUSH2 0x1F1E PUSH2 0x3CAC JUMP JUMPDEST JUMPDEST DIV SWAP3 POP PUSH1 0x10 DUP2 ADD SWAP1 POP JUMPDEST PUSH4 0x5F5E100 DUP4 LT PUSH2 0x1F52 JUMPI PUSH4 0x5F5E100 DUP4 DUP2 PUSH2 0x1F48 JUMPI PUSH2 0x1F47 PUSH2 0x3CAC JUMP JUMPDEST JUMPDEST DIV SWAP3 POP PUSH1 0x8 DUP2 ADD SWAP1 POP JUMPDEST PUSH2 0x2710 DUP4 LT PUSH2 0x1F77 JUMPI PUSH2 0x2710 DUP4 DUP2 PUSH2 0x1F6D JUMPI PUSH2 0x1F6C PUSH2 0x3CAC JUMP JUMPDEST JUMPDEST DIV SWAP3 POP PUSH1 0x4 DUP2 ADD SWAP1 POP JUMPDEST PUSH1 0x64 DUP4 LT PUSH2 0x1F9A JUMPI PUSH1 0x64 DUP4 DUP2 PUSH2 0x1F90 JUMPI PUSH2 0x1F8F PUSH2 0x3CAC JUMP JUMPDEST JUMPDEST DIV SWAP3 POP PUSH1 0x2 DUP2 ADD SWAP1 POP JUMPDEST PUSH1 0xA DUP4 LT PUSH2 0x1FA9 JUMPI PUSH1 0x1 DUP2 ADD SWAP1 POP JUMPDEST DUP1 SWAP2 POP POP SWAP2 SWAP1 POP JUMP JUMPDEST PUSH2 0x1FBE DUP6 DUP6 DUP6 DUP6 PUSH2 0x2094 JUMP JUMPDEST PUSH1 0x0 PUSH20 0xFFFFFFFFFFFFFFFFFFFFFFFFFFFFFFFFFFFFFFFF AND DUP5 PUSH20 0xFFFFFFFFFFFFFFFFFFFFFFFFFFFFFFFFFFFFFFFF AND EQ PUSH2 0x205D JUMPI PUSH1 0x0 PUSH2 0x1FFC PUSH2 0x185C JUMP JUMPDEST SWAP1 POP PUSH1 0x1 DUP5 MLOAD SUB PUSH2 0x204C JUMPI PUSH1 0x0 PUSH2 0x201D PUSH1 0x0 DUP7 PUSH2 0x1970 SWAP1 SWAP2 SWAP1 PUSH4 0xFFFFFFFF AND JUMP JUMPDEST SWAP1 POP PUSH1 0x0 PUSH2 0x2035 PUSH1 0x0 DUP7 PUSH2 0x1970 SWAP1 SWAP2 SWAP1 PUSH4 0xFFFFFFFF AND JUMP JUMPDEST SWAP1 POP PUSH2 0x2045 DUP4 DUP10 DUP10 DUP6 DUP6 DUP10 PUSH2 0x2442 JUMP JUMPDEST POP POP PUSH2 0x205B JUMP JUMPDEST PUSH2 0x205A DUP2 DUP8 DUP8 DUP8 DUP8 DUP8 PUSH2 0x25F6 JUMP JUMPDEST JUMPDEST POP JUMPDEST POP POP POP POP POP JUMP JUMPDEST PUSH1 0x60 DUP1 PUSH1 0x40 MLOAD SWAP2 POP PUSH1 0x1 DUP3 MSTORE DUP4 PUSH1 0x20 DUP4 ADD MSTORE PUSH1 0x40 DUP3 ADD SWAP1 POP PUSH1 0x1 DUP2 MSTORE DUP3 PUSH1 0x20 DUP3 ADD MSTORE PUSH1 0x40 DUP2 ADD PUSH1 0x40 MSTORE SWAP3 POP SWAP3 SWAP1 POP JUMP JUMPDEST DUP1 MLOAD DUP3 MLOAD EQ PUSH2 0x20DE JUMPI DUP2 MLOAD DUP2 MLOAD PUSH1 0x40 MLOAD PUSH32 0x5B05999100000000000000000000000000000000000000000000000000000000 DUP2 MSTORE PUSH1 0x4 ADD PUSH2 0x20D5 SWAP3 SWAP2 SWAP1 PUSH2 0x37CF JUMP JUMPDEST PUSH1 0x40 MLOAD DUP1 SWAP2 SUB SWAP1 REVERT JUMPDEST PUSH1 0x0 PUSH2 0x20E8 PUSH2 0x185C JUMP JUMPDEST SWAP1 POP PUSH1 0x0 JUMPDEST DUP4 MLOAD DUP2 LT ISZERO PUSH2 0x22FD JUMPI PUSH1 0x0 PUSH2 0x210B DUP3 DUP7 PUSH2 0x1970 SWAP1 SWAP2 SWAP1 PUSH4 0xFFFFFFFF AND JUMP JUMPDEST SWAP1 POP PUSH1 0x0 PUSH2 0x2122 DUP4 DUP7 PUSH2 0x1970 SWAP1 SWAP2 SWAP1 PUSH4 0xFFFFFFFF AND JUMP JUMPDEST SWAP1 POP PUSH1 0x0 PUSH20 0xFFFFFFFFFFFFFFFFFFFFFFFFFFFFFFFFFFFFFFFF AND DUP9 PUSH20 0xFFFFFFFFFFFFFFFFFFFFFFFFFFFFFFFFFFFFFFFF AND EQ PUSH2 0x224F JUMPI PUSH1 0x0 DUP1 PUSH1 0x0 DUP5 DUP2 MSTORE PUSH1 0x20 ADD SWAP1 DUP2 MSTORE PUSH1 0x20 ADD PUSH1 0x0 KECCAK256 PUSH1 0x0 DUP11 PUSH20 0xFFFFFFFFFFFFFFFFFFFFFFFFFFFFFFFFFFFFFFFF AND PUSH20 0xFFFFFFFFFFFFFFFFFFFFFFFFFFFFFFFFFFFFFFFF AND DUP2 MSTORE PUSH1 0x20 ADD SWAP1 DUP2 MSTORE PUSH1 0x20 ADD PUSH1 0x0 KECCAK256 SLOAD SWAP1 POP DUP2 DUP2 LT ISZERO PUSH2 0x21F7 JUMPI DUP9 DUP2 DUP4 DUP6 PUSH1 0x40 MLOAD PUSH32 0x3DEE4C500000000000000000000000000000000000000000000000000000000 DUP2 MSTORE PUSH1 0x4 ADD PUSH2 0x21EE SWAP5 SWAP4 SWAP3 SWAP2 SWAP1 PUSH2 0x3CDB JUMP JUMPDEST PUSH1 0x40 MLOAD DUP1 SWAP2 SUB SWAP1 REVERT JUMPDEST DUP2 DUP2 SUB PUSH1 0x0 DUP1 DUP6 DUP2 MSTORE PUSH1 0x20 ADD SWAP1 DUP2 MSTORE PUSH1 0x20 ADD PUSH1 0x0 KECCAK256 PUSH1 0x0 DUP12 PUSH20 0xFFFFFFFFFFFFFFFFFFFFFFFFFFFFFFFFFFFFFFFF AND PUSH20 0xFFFFFFFFFFFFFFFFFFFFFFFFFFFFFFFFFFFFFFFF AND DUP2 MSTORE PUSH1 0x20 ADD SWAP1 DUP2 MSTORE PUSH1 0x20 ADD PUSH1 0x0 KECCAK256 DUP2 SWAP1 SSTORE POP POP JUMPDEST PUSH1 0x0 PUSH20 0xFFFFFFFFFFFFFFFFFFFFFFFFFFFFFFFFFFFFFFFF AND DUP8 PUSH20 0xFFFFFFFFFFFFFFFFFFFFFFFFFFFFFFFFFFFFFFFF AND EQ PUSH2 0x22EA JUMPI DUP1 PUSH1 0x0 DUP1 DUP5 DUP2 MSTORE PUSH1 0x20 ADD SWAP1 DUP2 MSTORE PUSH1 0x20 ADD PUSH1 0x0 KECCAK256 PUSH1 0x0 DUP10 PUSH20 0xFFFFFFFFFFFFFFFFFFFFFFFFFFFFFFFFFFFFFFFF AND PUSH20 0xFFFFFFFFFFFFFFFFFFFFFFFFFFFFFFFFFFFFFFFF AND DUP2 MSTORE PUSH1 0x20 ADD SWAP1 DUP2 MSTORE PUSH1 0x20 ADD PUSH1 0x0 KECCAK256 PUSH1 0x0 DUP3 DUP3 SLOAD PUSH2 0x22E2 SWAP2 SWAP1 PUSH2 0x3D20 JUMP JUMPDEST SWAP3 POP POP DUP2 SWAP1 SSTORE POP JUMPDEST POP POP DUP1 PUSH2 0x22F6 SWAP1 PUSH2 0x3856 JUMP JUMPDEST SWAP1 POP PUSH2 0x20ED JUMP JUMPDEST POP PUSH1 0x1 DUP4 MLOAD SUB PUSH2 0x23BC JUMPI PUSH1 0x0 PUSH2 0x231D PUSH1 0x0 DUP6 PUSH2 0x1970 SWAP1 SWAP2 SWAP1 PUSH4 0xFFFFFFFF AND JUMP JUMPDEST SWAP1 POP PUSH1 0x0 PUSH2 0x2335 PUSH1 0x0 DUP6 PUSH2 0x1970 SWAP1 SWAP2 SWAP1 PUSH4 0xFFFFFFFF AND JUMP JUMPDEST SWAP1 POP DUP6 PUSH20 0xFFFFFFFFFFFFFFFFFFFFFFFFFFFFFFFFFFFFFFFF AND DUP8 PUSH20 0xFFFFFFFFFFFFFFFFFFFFFFFFFFFFFFFFFFFFFFFF AND DUP5 PUSH20 0xFFFFFFFFFFFFFFFFFFFFFFFFFFFFFFFFFFFFFFFF AND PUSH32 0xC3D58168C5AE7397731D063D5BBF3D657854427343F4C083240F7AACAA2D0F62 DUP6 DUP6 PUSH1 0x40 MLOAD PUSH2 0x23AD SWAP3 SWAP2 SWAP1 PUSH2 0x37CF JUMP JUMPDEST PUSH1 0x40 MLOAD DUP1 SWAP2 SUB SWAP1 LOG4 POP POP PUSH2 0x243B JUMP JUMPDEST DUP4 PUSH20 0xFFFFFFFFFFFFFFFFFFFFFFFFFFFFFFFFFFFFFFFF AND DUP6 PUSH20 0xFFFFFFFFFFFFFFFFFFFFFFFFFFFFFFFFFFFFFFFF AND DUP3 PUSH20 0xFFFFFFFFFFFFFFFFFFFFFFFFFFFFFFFFFFFFFFFF AND PUSH32 0x4A39DC06D4C0DBC64B70AF90FD698A233A518AA5D07E595D983B8C0526C8F7FB DUP7 DUP7 PUSH1 0x40 MLOAD PUSH2 0x2432 SWAP3 SWAP2 SWAP1 PUSH2 0x3D54 JUMP JUMPDEST PUSH1 0x40 MLOAD DUP1 SWAP2 SUB SWAP1 LOG4 JUMPDEST POP POP POP POP POP JUMP JUMPDEST PUSH1 0x0 DUP5 PUSH20 0xFFFFFFFFFFFFFFFFFFFFFFFFFFFFFFFFFFFFFFFF AND EXTCODESIZE GT ISZERO PUSH2 0x25EE JUMPI DUP4 PUSH20 0xFFFFFFFFFFFFFFFFFFFFFFFFFFFFFFFFFFFFFFFF AND PUSH4 0xF23A6E61 DUP8 DUP8 DUP7 DUP7 DUP7 PUSH1 0x40 MLOAD DUP7 PUSH4 0xFFFFFFFF AND PUSH1 0xE0 SHL DUP2 MSTORE PUSH1 0x4 ADD PUSH2 0x24A3 SWAP6 SWAP5 SWAP4 SWAP3 SWAP2 SWAP1 PUSH2 0x3DE0 JUMP JUMPDEST PUSH1 0x20 PUSH1 0x40 MLOAD DUP1 DUP4 SUB DUP2 PUSH1 0x0 DUP8 GAS CALL SWAP3 POP POP POP DUP1 ISZERO PUSH2 0x24DF JUMPI POP PUSH1 0x40 MLOAD RETURNDATASIZE PUSH1 0x1F NOT PUSH1 0x1F DUP3 ADD AND DUP3 ADD DUP1 PUSH1 0x40 MSTORE POP DUP2 ADD SWAP1 PUSH2 0x24DC SWAP2 SWAP1 PUSH2 0x3E4F JUMP JUMPDEST PUSH1 0x1 JUMPDEST PUSH2 0x2563 JUMPI RETURNDATASIZE DUP1 PUSH1 0x0 DUP2 EQ PUSH2 0x250F JUMPI PUSH1 0x40 MLOAD SWAP2 POP PUSH1 0x1F NOT PUSH1 0x3F RETURNDATASIZE ADD AND DUP3 ADD PUSH1 0x40 MSTORE RETURNDATASIZE DUP3 MSTORE RETURNDATASIZE PUSH1 0x0 PUSH1 0x20 DUP5 ADD RETURNDATACOPY PUSH2 0x2514 JUMP JUMPDEST PUSH1 0x60 SWAP2 POP JUMPDEST POP PUSH1 0x0 DUP2 MLOAD SUB PUSH2 0x255B JUMPI DUP5 PUSH1 0x40 MLOAD PUSH32 0x57F447CE00000000000000000000000000000000000000000000000000000000 DUP2 MSTORE PUSH1 0x4 ADD PUSH2 0x2552 SWAP2 SWAP1 PUSH2 0x32B5 JUMP JUMPDEST PUSH1 0x40 MLOAD DUP1 SWAP2 SUB SWAP1 REVERT JUMPDEST DUP1 MLOAD DUP2 PUSH1 0x20 ADD REVERT JUMPDEST PUSH4 0xF23A6E61 PUSH1 0xE0 SHL PUSH28 0xFFFFFFFFFFFFFFFFFFFFFFFFFFFFFFFFFFFFFFFFFFFFFFFFFFFFFFFF NOT AND DUP2 PUSH28 0xFFFFFFFFFFFFFFFFFFFFFFFFFFFFFFFFFFFFFFFFFFFFFFFFFFFFFFFF NOT AND EQ PUSH2 0x25EC JUMPI DUP5 PUSH1 0x40 MLOAD PUSH32 0x57F447CE00000000000000000000000000000000000000000000000000000000 DUP2 MSTORE PUSH1 0x4 ADD PUSH2 0x25E3 SWAP2 SWAP1 PUSH2 0x32B5 JUMP JUMPDEST PUSH1 0x40 MLOAD DUP1 SWAP2 SUB SWAP1 REVERT JUMPDEST POP JUMPDEST POP POP POP POP POP POP JUMP JUMPDEST PUSH1 0x0 DUP5 PUSH20 0xFFFFFFFFFFFFFFFFFFFFFFFFFFFFFFFFFFFFFFFF AND EXTCODESIZE GT ISZERO PUSH2 0x27A2 JUMPI DUP4 PUSH20 0xFFFFFFFFFFFFFFFFFFFFFFFFFFFFFFFFFFFFFFFF AND PUSH4 0xBC197C81 DUP8 DUP8 DUP7 DUP7 DUP7 PUSH1 0x40 MLOAD DUP7 PUSH4 0xFFFFFFFF AND PUSH1 0xE0 SHL DUP2 MSTORE PUSH1 0x4 ADD PUSH2 0x2657 SWAP6 SWAP5 SWAP4 SWAP3 SWAP2 SWAP1 PUSH2 0x3E7C JUMP JUMPDEST PUSH1 0x20 PUSH1 0x40 MLOAD DUP1 DUP4 SUB DUP2 PUSH1 0x0 DUP8 GAS CALL SWAP3 POP POP POP DUP1 ISZERO PUSH2 0x2693 JUMPI POP PUSH1 0x40 MLOAD RETURNDATASIZE PUSH1 0x1F NOT PUSH1 0x1F DUP3 ADD AND DUP3 ADD DUP1 PUSH1 0x40 MSTORE POP DUP2 ADD SWAP1 PUSH2 0x2690 SWAP2 SWAP1 PUSH2 0x3E4F JUMP JUMPDEST PUSH1 0x1 JUMPDEST PUSH2 0x2717 JUMPI RETURNDATASIZE DUP1 PUSH1 0x0 DUP2 EQ PUSH2 0x26C3 JUMPI PUSH1 0x40 MLOAD SWAP2 POP PUSH1 0x1F NOT PUSH1 0x3F RETURNDATASIZE ADD AND DUP3 ADD PUSH1 0x40 MSTORE RETURNDATASIZE DUP3 MSTORE RETURNDATASIZE PUSH1 0x0 PUSH1 0x20 DUP5 ADD RETURNDATACOPY PUSH2 0x26C8 JUMP JUMPDEST PUSH1 0x60 SWAP2 POP JUMPDEST POP PUSH1 0x0 DUP2 MLOAD SUB PUSH2 0x270F JUMPI DUP5 PUSH1 0x40 MLOAD PUSH32 0x57F447CE00000000000000000000000000000000000000000000000000000000 DUP2 MSTORE PUSH1 0x4 ADD PUSH2 0x2706 SWAP2 SWAP1 PUSH2 0x32B5 JUMP JUMPDEST PUSH1 0x40 MLOAD DUP1 SWAP2 SUB SWAP1 REVERT JUMPDEST DUP1 MLOAD DUP2 PUSH1 0x20 ADD REVERT JUMPDEST PUSH4 0xBC197C81 PUSH1 0xE0 SHL PUSH28 0xFFFFFFFFFFFFFFFFFFFFFFFFFFFFFFFFFFFFFFFFFFFFFFFFFFFFFFFF NOT AND DUP2 PUSH28 0xFFFFFFFFFFFFFFFFFFFFFFFFFFFFFFFFFFFFFFFFFFFFFFFFFFFFFFFF NOT AND EQ PUSH2 0x27A0 JUMPI DUP5 PUSH1 0x40 MLOAD PUSH32 0x57F447CE00000000000000000000000000000000000000000000000000000000 DUP2 MSTORE PUSH1 0x4 ADD PUSH2 0x2797 SWAP2 SWAP1 PUSH2 0x32B5 JUMP JUMPDEST PUSH1 0x40 MLOAD DUP1 SWAP2 SUB SWAP1 REVERT JUMPDEST POP JUMPDEST POP POP POP POP POP POP JUMP JUMPDEST PUSH1 0x40 MLOAD DUP1 PUSH1 0x80 ADD PUSH1 0x40 MSTORE DUP1 PUSH1 0x0 ISZERO ISZERO DUP2 MSTORE PUSH1 0x20 ADD PUSH1 0x60 DUP2 MSTORE PUSH1 0x20 ADD PUSH1 0x0 PUSH20 0xFFFFFFFFFFFFFFFFFFFFFFFFFFFFFFFFFFFFFFFF AND DUP2 MSTORE PUSH1 0x20 ADD PUSH1 0x60 DUP2 MSTORE POP SWAP1 JUMP JUMPDEST PUSH1 0x40 MLOAD DUP1 PUSH1 0x80 ADD PUSH1 0x40 MSTORE DUP1 PUSH1 0x0 ISZERO ISZERO DUP2 MSTORE PUSH1 0x20 ADD PUSH1 0x0 PUSH20 0xFFFFFFFFFFFFFFFFFFFFFFFFFFFFFFFFFFFFFFFF AND DUP2 MSTORE PUSH1 0x20 ADD PUSH1 0x60 DUP2 MSTORE PUSH1 0x20 ADD PUSH1 0x0 DUP2 MSTORE POP SWAP1 JUMP JUMPDEST PUSH1 0x0 PUSH1 0x40 MLOAD SWAP1 POP SWAP1 JUMP JUMPDEST PUSH1 0x0 DUP1 REVERT JUMPDEST PUSH1 0x0 DUP1 REVERT JUMPDEST PUSH1 0x0 PUSH20 0xFFFFFFFFFFFFFFFFFFFFFFFFFFFFFFFFFFFFFFFF DUP3 AND SWAP1 POP SWAP2 SWAP1 POP JUMP JUMPDEST PUSH1 0x0 PUSH2 0x2869 DUP3 PUSH2 0x283E JUMP JUMPDEST SWAP1 POP SWAP2 SWAP1 POP JUMP JUMPDEST PUSH2 0x2879 DUP2 PUSH2 0x285E JUMP JUMPDEST DUP2 EQ PUSH2 0x2884 JUMPI PUSH1 0x0 DUP1 REVERT JUMPDEST POP JUMP JUMPDEST PUSH1 0x0 DUP2 CALLDATALOAD SWAP1 POP PUSH2 0x2896 DUP2 PUSH2 0x2870 JUMP JUMPDEST SWAP3 SWAP2 POP POP JUMP JUMPDEST PUSH1 0x0 DUP2 SWAP1 POP SWAP2 SWAP1 POP JUMP JUMPDEST PUSH2 0x28AF DUP2 PUSH2 0x289C JUMP JUMPDEST DUP2 EQ PUSH2 0x28BA JUMPI PUSH1 0x0 DUP1 REVERT JUMPDEST POP JUMP JUMPDEST PUSH1 0x0 DUP2 CALLDATALOAD SWAP1 POP PUSH2 0x28CC DUP2 PUSH2 0x28A6 JUMP JUMPDEST SWAP3 SWAP2 POP POP JUMP JUMPDEST PUSH1 0x0 DUP1 PUSH1 0x40 DUP4 DUP6 SUB SLT ISZERO PUSH2 0x28E9 JUMPI PUSH2 0x28E8 PUSH2 0x2834 JUMP JUMPDEST JUMPDEST PUSH1 0x0 PUSH2 0x28F7 DUP6 DUP3 DUP7 ADD PUSH2 0x2887 JUMP JUMPDEST SWAP3 POP POP PUSH1 0x20 PUSH2 0x2908 DUP6 DUP3 DUP7 ADD PUSH2 0x28BD JUMP JUMPDEST SWAP2 POP POP SWAP3 POP SWAP3 SWAP1 POP JUMP JUMPDEST PUSH2 0x291B DUP2 PUSH2 0x289C JUMP JUMPDEST DUP3 MSTORE POP POP JUMP JUMPDEST PUSH1 0x0 PUSH1 0x20 DUP3 ADD SWAP1 POP PUSH2 0x2936 PUSH1 0x0 DUP4 ADD DUP5 PUSH2 0x2912 JUMP JUMPDEST SWAP3 SWAP2 POP POP JUMP JUMPDEST PUSH1 0x0 PUSH32 0xFFFFFFFF00000000000000000000000000000000000000000000000000000000 DUP3 AND SWAP1 POP SWAP2 SWAP1 POP JUMP JUMPDEST PUSH2 0x2971 DUP2 PUSH2 0x293C JUMP JUMPDEST DUP2 EQ PUSH2 0x297C JUMPI PUSH1 0x0 DUP1 REVERT JUMPDEST POP JUMP JUMPDEST PUSH1 0x0 DUP2 CALLDATALOAD SWAP1 POP PUSH2 0x298E DUP2 PUSH2 0x2968 JUMP JUMPDEST SWAP3 SWAP2 POP POP JUMP JUMPDEST PUSH1 0x0 PUSH1 0x20 DUP3 DUP5 SUB SLT ISZERO PUSH2 0x29AA JUMPI PUSH2 0x29A9 PUSH2 0x2834 JUMP JUMPDEST JUMPDEST PUSH1 0x0 PUSH2 0x29B8 DUP5 DUP3 DUP6 ADD PUSH2 0x297F JUMP JUMPDEST SWAP2 POP POP SWAP3 SWAP2 POP POP JUMP JUMPDEST PUSH1 0x0 DUP2 ISZERO ISZERO SWAP1 POP SWAP2 SWAP1 POP JUMP JUMPDEST PUSH2 0x29D6 DUP2 PUSH2 0x29C1 JUMP JUMPDEST DUP3 MSTORE POP POP JUMP JUMPDEST PUSH1 0x0 PUSH1 0x20 DUP3 ADD SWAP1 POP PUSH2 0x29F1 PUSH1 0x0 DUP4 ADD DUP5 PUSH2 0x29CD JUMP JUMPDEST SWAP3 SWAP2 POP POP JUMP JUMPDEST PUSH1 0x0 DUP1 REVERT JUMPDEST PUSH1 0x0 DUP1 REVERT JUMPDEST PUSH1 0x0 PUSH1 0x1F NOT PUSH1 0x1F DUP4 ADD AND SWAP1 POP SWAP2 SWAP1 POP JUMP JUMPDEST PUSH32 0x4E487B7100000000000000000000000000000000000000000000000000000000 PUSH1 0x0 MSTORE PUSH1 0x41 PUSH1 0x4 MSTORE PUSH1 0x24 PUSH1 0x0 REVERT JUMPDEST PUSH2 0x2A4A DUP3 PUSH2 0x2A01 JUMP JUMPDEST DUP2 ADD DUP2 DUP2 LT PUSH8 0xFFFFFFFFFFFFFFFF DUP3 GT OR ISZERO PUSH2 0x2A69 JUMPI PUSH2 0x2A68 PUSH2 0x2A12 JUMP JUMPDEST JUMPDEST DUP1 PUSH1 0x40 MSTORE POP POP POP JUMP JUMPDEST PUSH1 0x0 PUSH2 0x2A7C PUSH2 0x282A JUMP JUMPDEST SWAP1 POP PUSH2 0x2A88 DUP3 DUP3 PUSH2 0x2A41 JUMP JUMPDEST SWAP2 SWAP1 POP JUMP JUMPDEST PUSH1 0x0 PUSH8 0xFFFFFFFFFFFFFFFF DUP3 GT ISZERO PUSH2 0x2AA8 JUMPI PUSH2 0x2AA7 PUSH2 0x2A12 JUMP JUMPDEST JUMPDEST PUSH2 0x2AB1 DUP3 PUSH2 0x2A01 JUMP JUMPDEST SWAP1 POP PUSH1 0x20 DUP2 ADD SWAP1 POP SWAP2 SWAP1 POP JUMP JUMPDEST DUP3 DUP2 DUP4 CALLDATACOPY PUSH1 0x0 DUP4 DUP4 ADD MSTORE POP POP POP JUMP JUMPDEST PUSH1 0x0 PUSH2 0x2AE0 PUSH2 0x2ADB DUP5 PUSH2 0x2A8D JUMP JUMPDEST PUSH2 0x2A72 JUMP JUMPDEST SWAP1 POP DUP3 DUP2 MSTORE PUSH1 0x20 DUP2 ADD DUP5 DUP5 DUP5 ADD GT ISZERO PUSH2 0x2AFC JUMPI PUSH2 0x2AFB PUSH2 0x29FC JUMP JUMPDEST JUMPDEST PUSH2 0x2B07 DUP5 DUP3 DUP6 PUSH2 0x2ABE JUMP JUMPDEST POP SWAP4 SWAP3 POP POP POP JUMP JUMPDEST PUSH1 0x0 DUP3 PUSH1 0x1F DUP4 ADD SLT PUSH2 0x2B24 JUMPI PUSH2 0x2B23 PUSH2 0x29F7 JUMP JUMPDEST JUMPDEST DUP2 CALLDATALOAD PUSH2 0x2B34 DUP5 DUP3 PUSH1 0x20 DUP7 ADD PUSH2 0x2ACD JUMP JUMPDEST SWAP2 POP POP SWAP3 SWAP2 POP POP JUMP JUMPDEST PUSH1 0x0 PUSH1 0x20 DUP3 DUP5 SUB SLT ISZERO PUSH2 0x2B53 JUMPI PUSH2 0x2B52 PUSH2 0x2834 JUMP JUMPDEST JUMPDEST PUSH1 0x0 DUP3 ADD CALLDATALOAD PUSH8 0xFFFFFFFFFFFFFFFF DUP2 GT ISZERO PUSH2 0x2B71 JUMPI PUSH2 0x2B70 PUSH2 0x2839 JUMP JUMPDEST JUMPDEST PUSH2 0x2B7D DUP5 DUP3 DUP6 ADD PUSH2 0x2B0F JUMP JUMPDEST SWAP2 POP POP SWAP3 SWAP2 POP POP JUMP JUMPDEST PUSH1 0x0 PUSH1 0x20 DUP3 DUP5 SUB SLT ISZERO PUSH2 0x2B9C JUMPI PUSH2 0x2B9B PUSH2 0x2834 JUMP JUMPDEST JUMPDEST PUSH1 0x0 PUSH2 0x2BAA DUP5 DUP3 DUP6 ADD PUSH2 0x28BD JUMP JUMPDEST SWAP2 POP POP SWAP3 SWAP2 POP POP JUMP JUMPDEST PUSH1 0x0 DUP2 MLOAD SWAP1 POP SWAP2 SWAP1 POP JUMP JUMPDEST PUSH1 0x0 DUP3 DUP3 MSTORE PUSH1 0x20 DUP3 ADD SWAP1 POP SWAP3 SWAP2 POP POP JUMP JUMPDEST PUSH1 0x0 JUMPDEST DUP4 DUP2 LT ISZERO PUSH2 0x2BED JUMPI DUP1 DUP3 ADD MLOAD DUP2 DUP5 ADD MSTORE PUSH1 0x20 DUP2 ADD SWAP1 POP PUSH2 0x2BD2 JUMP JUMPDEST PUSH1 0x0 DUP5 DUP5 ADD MSTORE POP POP POP POP JUMP JUMPDEST PUSH1 0x0 PUSH2 0x2C04 DUP3 PUSH2 0x2BB3 JUMP JUMPDEST PUSH2 0x2C0E DUP2 DUP6 PUSH2 0x2BBE JUMP JUMPDEST SWAP4 POP PUSH2 0x2C1E DUP2 DUP6 PUSH1 0x20 DUP7 ADD PUSH2 0x2BCF JUMP JUMPDEST PUSH2 0x2C27 DUP2 PUSH2 0x2A01 JUMP JUMPDEST DUP5 ADD SWAP2 POP POP SWAP3 SWAP2 POP POP JUMP JUMPDEST PUSH1 0x0 PUSH1 0x20 DUP3 ADD SWAP1 POP DUP2 DUP2 SUB PUSH1 0x0 DUP4 ADD MSTORE PUSH2 0x2C4C DUP2 DUP5 PUSH2 0x2BF9 JUMP JUMPDEST SWAP1 POP SWAP3 SWAP2 POP POP JUMP JUMPDEST PUSH1 0x0 PUSH1 0x20 DUP3 DUP5 SUB SLT ISZERO PUSH2 0x2C6A JUMPI PUSH2 0x2C69 PUSH2 0x2834 JUMP JUMPDEST JUMPDEST PUSH1 0x0 PUSH2 0x2C78 DUP5 DUP3 DUP6 ADD PUSH2 0x2887 JUMP JUMPDEST SWAP2 POP POP SWAP3 SWAP2 POP POP JUMP JUMPDEST PUSH2 0x2C8A DUP2 PUSH2 0x29C1 JUMP JUMPDEST DUP3 MSTORE POP POP JUMP JUMPDEST PUSH1 0x0 DUP2 MLOAD SWAP1 POP SWAP2 SWAP1 POP JUMP JUMPDEST PUSH1 0x0 DUP3 DUP3 MSTORE PUSH1 0x20 DUP3 ADD SWAP1 POP SWAP3 SWAP2 POP POP JUMP JUMPDEST PUSH1 0x0 DUP2 SWAP1 POP PUSH1 0x20 DUP3 ADD SWAP1 POP SWAP2 SWAP1 POP JUMP JUMPDEST PUSH2 0x2CC5 DUP2 PUSH2 0x289C JUMP JUMPDEST DUP3 MSTORE POP POP JUMP JUMPDEST PUSH1 0x0 PUSH2 0x2CD7 DUP4 DUP4 PUSH2 0x2CBC JUMP JUMPDEST PUSH1 0x20 DUP4 ADD SWAP1 POP SWAP3 SWAP2 POP POP JUMP JUMPDEST PUSH1 0x0 PUSH1 0x20 DUP3 ADD SWAP1 POP SWAP2 SWAP1 POP JUMP JUMPDEST PUSH1 0x0 PUSH2 0x2CFB DUP3 PUSH2 0x2C90 JUMP JUMPDEST PUSH2 0x2D05 DUP2 DUP6 PUSH2 0x2C9B JUMP JUMPDEST SWAP4 POP PUSH2 0x2D10 DUP4 PUSH2 0x2CAC JUMP JUMPDEST DUP1 PUSH1 0x0 JUMPDEST DUP4 DUP2 LT ISZERO PUSH2 0x2D41 JUMPI DUP2 MLOAD PUSH2 0x2D28 DUP9 DUP3 PUSH2 0x2CCB JUMP JUMPDEST SWAP8 POP PUSH2 0x2D33 DUP4 PUSH2 0x2CE3 JUMP JUMPDEST SWAP3 POP POP PUSH1 0x1 DUP2 ADD SWAP1 POP PUSH2 0x2D14 JUMP JUMPDEST POP DUP6 SWAP4 POP POP POP POP SWAP3 SWAP2 POP POP JUMP JUMPDEST PUSH2 0x2D57 DUP2 PUSH2 0x285E JUMP JUMPDEST DUP3 MSTORE POP POP JUMP JUMPDEST PUSH1 0x0 DUP3 DUP3 MSTORE PUSH1 0x20 DUP3 ADD SWAP1 POP SWAP3 SWAP2 POP POP JUMP JUMPDEST PUSH1 0x0 PUSH2 0x2D79 DUP3 PUSH2 0x2BB3 JUMP JUMPDEST PUSH2 0x2D83 DUP2 DUP6 PUSH2 0x2D5D JUMP JUMPDEST SWAP4 POP PUSH2 0x2D93 DUP2 DUP6 PUSH1 0x20 DUP7 ADD PUSH2 0x2BCF JUMP JUMPDEST PUSH2 0x2D9C DUP2 PUSH2 0x2A01 JUMP JUMPDEST DUP5 ADD SWAP2 POP POP SWAP3 SWAP2 POP POP JUMP JUMPDEST PUSH1 0x0 PUSH1 0x80 DUP4 ADD PUSH1 0x0 DUP4 ADD MLOAD PUSH2 0x2DBF PUSH1 0x0 DUP7 ADD DUP3 PUSH2 0x2C81 JUMP JUMPDEST POP PUSH1 0x20 DUP4 ADD MLOAD DUP5 DUP3 SUB PUSH1 0x20 DUP7 ADD MSTORE PUSH2 0x2DD7 DUP3 DUP3 PUSH2 0x2CF0 JUMP JUMPDEST SWAP2 POP POP PUSH1 0x40 DUP4 ADD MLOAD PUSH2 0x2DEC PUSH1 0x40 DUP7 ADD DUP3 PUSH2 0x2D4E JUMP JUMPDEST POP PUSH1 0x60 DUP4 ADD MLOAD DUP5 DUP3 SUB PUSH1 0x60 DUP7 ADD MSTORE PUSH2 0x2E04 DUP3 DUP3 PUSH2 0x2D6E JUMP JUMPDEST SWAP2 POP POP DUP1 SWAP2 POP POP SWAP3 SWAP2 POP POP JUMP JUMPDEST PUSH1 0x0 PUSH1 0x20 DUP3 ADD SWAP1 POP DUP2 DUP2 SUB PUSH1 0x0 DUP4 ADD MSTORE PUSH2 0x2E2B DUP2 DUP5 PUSH2 0x2DA7 JUMP JUMPDEST SWAP1 POP SWAP3 SWAP2 POP POP JUMP JUMPDEST PUSH1 0x0 PUSH8 0xFFFFFFFFFFFFFFFF DUP3 GT ISZERO PUSH2 0x2E4E JUMPI PUSH2 0x2E4D PUSH2 0x2A12 JUMP JUMPDEST JUMPDEST PUSH1 0x20 DUP3 MUL SWAP1 POP PUSH1 0x20 DUP2 ADD SWAP1 POP SWAP2 SWAP1 POP JUMP JUMPDEST PUSH1 0x0 DUP1 REVERT JUMPDEST PUSH1 0x0 PUSH2 0x2E77 PUSH2 0x2E72 DUP5 PUSH2 0x2E33 JUMP JUMPDEST PUSH2 0x2A72 JUMP JUMPDEST SWAP1 POP DUP1 DUP4 DUP3 MSTORE PUSH1 0x20 DUP3 ADD SWAP1 POP PUSH1 0x20 DUP5 MUL DUP4 ADD DUP6 DUP2 GT ISZERO PUSH2 0x2E9A JUMPI PUSH2 0x2E99 PUSH2 0x2E5F JUMP JUMPDEST JUMPDEST DUP4 JUMPDEST DUP2 DUP2 LT ISZERO PUSH2 0x2EC3 JUMPI DUP1 PUSH2 0x2EAF DUP9 DUP3 PUSH2 0x28BD JUMP JUMPDEST DUP5 MSTORE PUSH1 0x20 DUP5 ADD SWAP4 POP POP PUSH1 0x20 DUP2 ADD SWAP1 POP PUSH2 0x2E9C JUMP JUMPDEST POP POP POP SWAP4 SWAP3 POP POP POP JUMP JUMPDEST PUSH1 0x0 DUP3 PUSH1 0x1F DUP4 ADD SLT PUSH2 0x2EE2 JUMPI PUSH2 0x2EE1 PUSH2 0x29F7 JUMP JUMPDEST JUMPDEST DUP2 CALLDATALOAD PUSH2 0x2EF2 DUP5 DUP3 PUSH1 0x20 DUP7 ADD PUSH2 0x2E64 JUMP JUMPDEST SWAP2 POP POP SWAP3 SWAP2 POP POP JUMP JUMPDEST PUSH1 0x0 PUSH8 0xFFFFFFFFFFFFFFFF DUP3 GT ISZERO PUSH2 0x2F16 JUMPI PUSH2 0x2F15 PUSH2 0x2A12 JUMP JUMPDEST JUMPDEST PUSH2 0x2F1F DUP3 PUSH2 0x2A01 JUMP JUMPDEST SWAP1 POP PUSH1 0x20 DUP2 ADD SWAP1 POP SWAP2 SWAP1 POP JUMP JUMPDEST PUSH1 0x0 PUSH2 0x2F3F PUSH2 0x2F3A DUP5 PUSH2 0x2EFB JUMP JUMPDEST PUSH2 0x2A72 JUMP JUMPDEST SWAP1 POP DUP3 DUP2 MSTORE PUSH1 0x20 DUP2 ADD DUP5 DUP5 DUP5 ADD GT ISZERO PUSH2 0x2F5B JUMPI PUSH2 0x2F5A PUSH2 0x29FC JUMP JUMPDEST JUMPDEST PUSH2 0x2F66 DUP5 DUP3 DUP6 PUSH2 0x2ABE JUMP JUMPDEST POP SWAP4 SWAP3 POP POP POP JUMP JUMPDEST PUSH1 0x0 DUP3 PUSH1 0x1F DUP4 ADD SLT PUSH2 0x2F83 JUMPI PUSH2 0x2F82 PUSH2 0x29F7 JUMP JUMPDEST JUMPDEST DUP2 CALLDATALOAD PUSH2 0x2F93 DUP5 DUP3 PUSH1 0x20 DUP7 ADD PUSH2 0x2F2C JUMP JUMPDEST SWAP2 POP POP SWAP3 SWAP2 POP POP JUMP JUMPDEST PUSH1 0x0 DUP1 PUSH1 0x0 DUP1 PUSH1 0x0 PUSH1 0xA0 DUP7 DUP9 SUB SLT ISZERO PUSH2 0x2FB8 JUMPI PUSH2 0x2FB7 PUSH2 0x2834 JUMP JUMPDEST JUMPDEST PUSH1 0x0 PUSH2 0x2FC6 DUP9 DUP3 DUP10 ADD PUSH2 0x2887 JUMP JUMPDEST SWAP6 POP POP PUSH1 0x20 PUSH2 0x2FD7 DUP9 DUP3 DUP10 ADD PUSH2 0x2887 JUMP JUMPDEST SWAP5 POP POP PUSH1 0x40 DUP7 ADD CALLDATALOAD PUSH8 0xFFFFFFFFFFFFFFFF DUP2 GT ISZERO PUSH2 0x2FF8 JUMPI PUSH2 0x2FF7 PUSH2 0x2839 JUMP JUMPDEST JUMPDEST PUSH2 0x3004 DUP9 DUP3 DUP10 ADD PUSH2 0x2ECD JUMP JUMPDEST SWAP4 POP POP PUSH1 0x60 DUP7 ADD CALLDATALOAD PUSH8 0xFFFFFFFFFFFFFFFF DUP2 GT ISZERO PUSH2 0x3025 JUMPI PUSH2 0x3024 PUSH2 0x2839 JUMP JUMPDEST JUMPDEST PUSH2 0x3031 DUP9 DUP3 DUP10 ADD PUSH2 0x2ECD JUMP JUMPDEST SWAP3 POP POP PUSH1 0x80 DUP7 ADD CALLDATALOAD PUSH8 0xFFFFFFFFFFFFFFFF DUP2 GT ISZERO PUSH2 0x3052 JUMPI PUSH2 0x3051 PUSH2 0x2839 JUMP JUMPDEST JUMPDEST PUSH2 0x305E DUP9 DUP3 DUP10 ADD PUSH2 0x2F6E JUMP JUMPDEST SWAP2 POP POP SWAP3 SWAP6 POP SWAP3 SWAP6 SWAP1 SWAP4 POP JUMP JUMPDEST PUSH1 0x0 PUSH8 0xFFFFFFFFFFFFFFFF DUP3 GT ISZERO PUSH2 0x3086 JUMPI PUSH2 0x3085 PUSH2 0x2A12 JUMP JUMPDEST JUMPDEST PUSH1 0x20 DUP3 MUL SWAP1 POP PUSH1 0x20 DUP2 ADD SWAP1 POP SWAP2 SWAP1 POP JUMP JUMPDEST PUSH1 0x0 PUSH2 0x30AA PUSH2 0x30A5 DUP5 PUSH2 0x306B JUMP JUMPDEST PUSH2 0x2A72 JUMP JUMPDEST SWAP1 POP DUP1 DUP4 DUP3 MSTORE PUSH1 0x20 DUP3 ADD SWAP1 POP PUSH1 0x20 DUP5 MUL DUP4 ADD DUP6 DUP2 GT ISZERO PUSH2 0x30CD JUMPI PUSH2 0x30CC PUSH2 0x2E5F JUMP JUMPDEST JUMPDEST DUP4 JUMPDEST DUP2 DUP2 LT ISZERO PUSH2 0x30F6 JUMPI DUP1 PUSH2 0x30E2 DUP9 DUP3 PUSH2 0x2887 JUMP JUMPDEST DUP5 MSTORE PUSH1 0x20 DUP5 ADD SWAP4 POP POP PUSH1 0x20 DUP2 ADD SWAP1 POP PUSH2 0x30CF JUMP JUMPDEST POP POP POP SWAP4 SWAP3 POP POP POP JUMP JUMPDEST PUSH1 0x0 DUP3 PUSH1 0x1F DUP4 ADD SLT PUSH2 0x3115 JUMPI PUSH2 0x3114 PUSH2 0x29F7 JUMP JUMPDEST JUMPDEST DUP2 CALLDATALOAD PUSH2 0x3125 DUP5 DUP3 PUSH1 0x20 DUP7 ADD PUSH2 0x3097 JUMP JUMPDEST SWAP2 POP POP SWAP3 SWAP2 POP POP JUMP JUMPDEST PUSH1 0x0 DUP1 PUSH1 0x40 DUP4 DUP6 SUB SLT ISZERO PUSH2 0x3145 JUMPI PUSH2 0x3144 PUSH2 0x2834 JUMP JUMPDEST JUMPDEST PUSH1 0x0 DUP4 ADD CALLDATALOAD PUSH8 0xFFFFFFFFFFFFFFFF DUP2 GT ISZERO PUSH2 0x3163 JUMPI PUSH2 0x3162 PUSH2 0x2839 JUMP JUMPDEST JUMPDEST PUSH2 0x316F DUP6 DUP3 DUP7 ADD PUSH2 0x3100 JUMP JUMPDEST SWAP3 POP POP PUSH1 0x20 DUP4 ADD CALLDATALOAD PUSH8 0xFFFFFFFFFFFFFFFF DUP2 GT ISZERO PUSH2 0x3190 JUMPI PUSH2 0x318F PUSH2 0x2839 JUMP JUMPDEST JUMPDEST PUSH2 0x319C DUP6 DUP3 DUP7 ADD PUSH2 0x2ECD JUMP JUMPDEST SWAP2 POP POP SWAP3 POP SWAP3 SWAP1 POP JUMP JUMPDEST PUSH1 0x0 DUP3 DUP3 MSTORE PUSH1 0x20 DUP3 ADD SWAP1 POP SWAP3 SWAP2 POP POP JUMP JUMPDEST PUSH1 0x0 PUSH2 0x31C2 DUP3 PUSH2 0x2C90 JUMP JUMPDEST PUSH2 0x31CC DUP2 DUP6 PUSH2 0x31A6 JUMP JUMPDEST SWAP4 POP PUSH2 0x31D7 DUP4 PUSH2 0x2CAC JUMP JUMPDEST DUP1 PUSH1 0x0 JUMPDEST DUP4 DUP2 LT ISZERO PUSH2 0x3208 JUMPI DUP2 MLOAD PUSH2 0x31EF DUP9 DUP3 PUSH2 0x2CCB JUMP JUMPDEST SWAP8 POP PUSH2 0x31FA DUP4 PUSH2 0x2CE3 JUMP JUMPDEST SWAP3 POP POP PUSH1 0x1 DUP2 ADD SWAP1 POP PUSH2 0x31DB JUMP JUMPDEST POP DUP6 SWAP4 POP POP POP POP SWAP3 SWAP2 POP POP JUMP JUMPDEST PUSH1 0x0 PUSH1 0x20 DUP3 ADD SWAP1 POP DUP2 DUP2 SUB PUSH1 0x0 DUP4 ADD MSTORE PUSH2 0x322F DUP2 DUP5 PUSH2 0x31B7 JUMP JUMPDEST SWAP1 POP SWAP3 SWAP2 POP POP JUMP JUMPDEST PUSH1 0x0 DUP1 PUSH1 0x0 PUSH1 0x60 DUP5 DUP7 SUB SLT ISZERO PUSH2 0x3250 JUMPI PUSH2 0x324F PUSH2 0x2834 JUMP JUMPDEST JUMPDEST PUSH1 0x0 PUSH2 0x325E DUP7 DUP3 DUP8 ADD PUSH2 0x2887 JUMP JUMPDEST SWAP4 POP POP PUSH1 0x20 DUP5 ADD CALLDATALOAD PUSH8 0xFFFFFFFFFFFFFFFF DUP2 GT ISZERO PUSH2 0x327F JUMPI PUSH2 0x327E PUSH2 0x2839 JUMP JUMPDEST JUMPDEST PUSH2 0x328B DUP7 DUP3 DUP8 ADD PUSH2 0x2B0F JUMP JUMPDEST SWAP3 POP POP PUSH1 0x40 PUSH2 0x329C DUP7 DUP3 DUP8 ADD PUSH2 0x28BD JUMP JUMPDEST SWAP2 POP POP SWAP3 POP SWAP3 POP SWAP3 JUMP JUMPDEST PUSH2 0x32AF DUP2 PUSH2 0x285E JUMP JUMPDEST DUP3 MSTORE POP POP JUMP JUMPDEST PUSH1 0x0 PUSH1 0x20 DUP3 ADD SWAP1 POP PUSH2 0x32CA PUSH1 0x0 DUP4 ADD DUP5 PUSH2 0x32A6 JUMP JUMPDEST SWAP3 SWAP2 POP POP JUMP JUMPDEST PUSH1 0x0 PUSH1 0x80 DUP4 ADD PUSH1 0x0 DUP4 ADD MLOAD PUSH2 0x32E8 PUSH1 0x0 DUP7 ADD DUP3 PUSH2 0x2C81 JUMP JUMPDEST POP PUSH1 0x20 DUP4 ADD MLOAD PUSH2 0x32FB PUSH1 0x20 DUP7 ADD DUP3 PUSH2 0x2D4E JUMP JUMPDEST POP PUSH1 0x40 DUP4 ADD MLOAD DUP5 DUP3 SUB PUSH1 0x40 DUP7 ADD MSTORE PUSH2 0x3313 DUP3 DUP3 PUSH2 0x2D6E JUMP JUMPDEST SWAP2 POP POP PUSH1 0x60 DUP4 ADD MLOAD PUSH2 0x3328 PUSH1 0x60 DUP7 ADD DUP3 PUSH2 0x2CBC JUMP JUMPDEST POP DUP1 SWAP2 POP POP SWAP3 SWAP2 POP POP JUMP JUMPDEST PUSH1 0x0 PUSH1 0x20 DUP3 ADD SWAP1 POP DUP2 DUP2 SUB PUSH1 0x0 DUP4 ADD MSTORE PUSH2 0x334D DUP2 DUP5 PUSH2 0x32D0 JUMP JUMPDEST SWAP1 POP SWAP3 SWAP2 POP POP JUMP JUMPDEST PUSH2 0x335E DUP2 PUSH2 0x29C1 JUMP JUMPDEST DUP2 EQ PUSH2 0x3369 JUMPI PUSH1 0x0 DUP1 REVERT JUMPDEST POP JUMP JUMPDEST PUSH1 0x0 DUP2 CALLDATALOAD SWAP1 POP PUSH2 0x337B DUP2 PUSH2 0x3355 JUMP JUMPDEST SWAP3 SWAP2 POP POP JUMP JUMPDEST PUSH1 0x0 DUP1 PUSH1 0x40 DUP4 DUP6 SUB SLT ISZERO PUSH2 0x3398 JUMPI PUSH2 0x3397 PUSH2 0x2834 JUMP JUMPDEST JUMPDEST PUSH1 0x0 PUSH2 0x33A6 DUP6 DUP3 DUP7 ADD PUSH2 0x2887 JUMP JUMPDEST SWAP3 POP POP PUSH1 0x20 PUSH2 0x33B7 DUP6 DUP3 DUP7 ADD PUSH2 0x336C JUMP JUMPDEST SWAP2 POP POP SWAP3 POP SWAP3 SWAP1 POP JUMP JUMPDEST PUSH1 0x0 DUP1 PUSH1 0x0 PUSH1 0x60 DUP5 DUP7 SUB SLT ISZERO PUSH2 0x33DA JUMPI PUSH2 0x33D9 PUSH2 0x2834 JUMP JUMPDEST JUMPDEST PUSH1 0x0 PUSH2 0x33E8 DUP7 DUP3 DUP8 ADD PUSH2 0x2887 JUMP JUMPDEST SWAP4 POP POP PUSH1 0x20 PUSH2 0x33F9 DUP7 DUP3 DUP8 ADD PUSH2 0x28BD JUMP JUMPDEST SWAP3 POP POP PUSH1 0x40 DUP5 ADD CALLDATALOAD PUSH8 0xFFFFFFFFFFFFFFFF DUP2 GT ISZERO PUSH2 0x341A JUMPI PUSH2 0x3419 PUSH2 0x2839 JUMP JUMPDEST JUMPDEST PUSH2 0x3426 DUP7 DUP3 DUP8 ADD PUSH2 0x2B0F JUMP JUMPDEST SWAP2 POP POP SWAP3 POP SWAP3 POP SWAP3 JUMP JUMPDEST PUSH1 0x0 PUSH1 0x60 DUP3 ADD SWAP1 POP PUSH2 0x3445 PUSH1 0x0 DUP4 ADD DUP7 PUSH2 0x29CD JUMP JUMPDEST PUSH2 0x3452 PUSH1 0x20 DUP4 ADD DUP6 PUSH2 0x32A6 JUMP JUMPDEST DUP2 DUP2 SUB PUSH1 0x40 DUP4 ADD MSTORE PUSH2 0x3464 DUP2 DUP5 PUSH2 0x2BF9 JUMP JUMPDEST SWAP1 POP SWAP5 SWAP4 POP POP POP POP JUMP JUMPDEST PUSH1 0x0 PUSH1 0x80 DUP3 ADD SWAP1 POP PUSH2 0x3483 PUSH1 0x0 DUP4 ADD DUP8 PUSH2 0x29CD JUMP JUMPDEST PUSH2 0x3490 PUSH1 0x20 DUP4 ADD DUP7 PUSH2 0x32A6 JUMP JUMPDEST DUP2 DUP2 SUB PUSH1 0x40 DUP4 ADD MSTORE PUSH2 0x34A2 DUP2 DUP6 PUSH2 0x2BF9 JUMP JUMPDEST SWAP1 POP PUSH2 0x34B1 PUSH1 0x60 DUP4 ADD DUP5 PUSH2 0x2912 JUMP JUMPDEST SWAP6 SWAP5 POP POP POP POP POP JUMP JUMPDEST PUSH1 0x0 DUP1 PUSH1 0x40 DUP4 DUP6 SUB SLT ISZERO PUSH2 0x34D1 JUMPI PUSH2 0x34D0 PUSH2 0x2834 JUMP JUMPDEST JUMPDEST PUSH1 0x0 PUSH2 0x34DF DUP6 DUP3 DUP7 ADD PUSH2 0x2887 JUMP JUMPDEST SWAP3 POP POP PUSH1 0x20 PUSH2 0x34F0 DUP6 DUP3 DUP7 ADD PUSH2 0x2887 JUMP JUMPDEST SWAP2 POP POP SWAP3 POP SWAP3 SWAP1 POP JUMP JUMPDEST PUSH1 0x0 DUP1 PUSH1 0x0 DUP1 PUSH1 0x0 PUSH1 0xA0 DUP7 DUP9 SUB SLT ISZERO PUSH2 0x3516 JUMPI PUSH2 0x3515 PUSH2 0x2834 JUMP JUMPDEST JUMPDEST PUSH1 0x0 PUSH2 0x3524 DUP9 DUP3 DUP10 ADD PUSH2 0x2887 JUMP JUMPDEST SWAP6 POP POP PUSH1 0x20 PUSH2 0x3535 DUP9 DUP3 DUP10 ADD PUSH2 0x2887 JUMP JUMPDEST SWAP5 POP POP PUSH1 0x40 PUSH2 0x3546 DUP9 DUP3 DUP10 ADD PUSH2 0x28BD JUMP JUMPDEST SWAP4 POP POP PUSH1 0x60 PUSH2 0x3557 DUP9 DUP3 DUP10 ADD PUSH2 0x28BD JUMP JUMPDEST SWAP3 POP POP PUSH1 0x80 DUP7 ADD CALLDATALOAD PUSH8 0xFFFFFFFFFFFFFFFF DUP2 GT ISZERO PUSH2 0x3578 JUMPI PUSH2 0x3577 PUSH2 0x2839 JUMP JUMPDEST JUMPDEST PUSH2 0x3584 DUP9 DUP3 DUP10 ADD PUSH2 0x2F6E JUMP JUMPDEST SWAP2 POP POP SWAP3 SWAP6 POP SWAP3 SWAP6 SWAP1 SWAP4 POP JUMP JUMPDEST PUSH32 0x596F7520617265206E6F7420746865206F776E6572206F66207468697320636F PUSH1 0x0 DUP3 ADD MSTORE PUSH32 0x6E74726163740000000000000000000000000000000000000000000000000000 PUSH1 0x20 DUP3 ADD MSTORE POP JUMP JUMPDEST PUSH1 0x0 PUSH2 0x35ED PUSH1 0x26 DUP4 PUSH2 0x2BBE JUMP JUMPDEST SWAP2 POP PUSH2 0x35F8 DUP3 PUSH2 0x3591 JUMP JUMPDEST PUSH1 0x40 DUP3 ADD SWAP1 POP SWAP2 SWAP1 POP JUMP JUMPDEST PUSH1 0x0 PUSH1 0x20 DUP3 ADD SWAP1 POP DUP2 DUP2 SUB PUSH1 0x0 DUP4 ADD MSTORE PUSH2 0x361C DUP2 PUSH2 0x35E0 JUMP JUMPDEST SWAP1 POP SWAP2 SWAP1 POP JUMP JUMPDEST PUSH32 0x596F7520617265206E6F7420616C6C6F77656420746F20736574205552490000 PUSH1 0x0 DUP3 ADD MSTORE POP JUMP JUMPDEST PUSH1 0x0 PUSH2 0x3659 PUSH1 0x1E DUP4 PUSH2 0x2BBE JUMP JUMPDEST SWAP2 POP PUSH2 0x3664 DUP3 PUSH2 0x3623 JUMP JUMPDEST PUSH1 0x20 DUP3 ADD SWAP1 POP SWAP2 SWAP1 POP JUMP JUMPDEST PUSH1 0x0 PUSH1 0x20 DUP3 ADD SWAP1 POP DUP2 DUP2 SUB PUSH1 0x0 DUP4 ADD MSTORE PUSH2 0x3688 DUP2 PUSH2 0x364C JUMP JUMPDEST SWAP1 POP SWAP2 SWAP1 POP JUMP JUMPDEST PUSH1 0x0 DUP2 SWAP1 POP SWAP3 SWAP2 POP POP JUMP JUMPDEST PUSH1 0x0 PUSH2 0x36A5 DUP3 PUSH2 0x2BB3 JUMP JUMPDEST PUSH2 0x36AF DUP2 DUP6 PUSH2 0x368F JUMP JUMPDEST SWAP4 POP PUSH2 0x36BF DUP2 DUP6 PUSH1 0x20 DUP7 ADD PUSH2 0x2BCF JUMP JUMPDEST DUP1 DUP5 ADD SWAP2 POP POP SWAP3 SWAP2 POP POP JUMP JUMPDEST PUSH32 0x2E6A736F6E000000000000000000000000000000000000000000000000000000 PUSH1 0x0 DUP3 ADD MSTORE POP JUMP JUMPDEST PUSH1 0x0 PUSH2 0x3701 PUSH1 0x5 DUP4 PUSH2 0x368F JUMP JUMPDEST SWAP2 POP PUSH2 0x370C DUP3 PUSH2 0x36CB JUMP JUMPDEST PUSH1 0x5 DUP3 ADD SWAP1 POP SWAP2 SWAP1 POP JUMP JUMPDEST PUSH1 0x0 PUSH2 0x3723 DUP3 DUP6 PUSH2 0x369A JUMP JUMPDEST SWAP2 POP PUSH2 0x372F DUP3 DUP5 PUSH2 0x369A JUMP JUMPDEST SWAP2 POP PUSH2 0x373A DUP3 PUSH2 0x36F4 JUMP JUMPDEST SWAP2 POP DUP2 SWAP1 POP SWAP4 SWAP3 POP POP POP JUMP JUMPDEST PUSH32 0x4E487B7100000000000000000000000000000000000000000000000000000000 PUSH1 0x0 MSTORE PUSH1 0x22 PUSH1 0x4 MSTORE PUSH1 0x24 PUSH1 0x0 REVERT JUMPDEST PUSH1 0x0 PUSH1 0x2 DUP3 DIV SWAP1 POP PUSH1 0x1 DUP3 AND DUP1 PUSH2 0x378D JUMPI PUSH1 0x7F DUP3 AND SWAP2 POP JUMPDEST PUSH1 0x20 DUP3 LT DUP2 SUB PUSH2 0x37A0 JUMPI PUSH2 0x379F PUSH2 0x3746 JUMP JUMPDEST JUMPDEST POP SWAP2 SWAP1 POP JUMP JUMPDEST PUSH1 0x0 PUSH1 0x40 DUP3 ADD SWAP1 POP PUSH2 0x37BB PUSH1 0x0 DUP4 ADD DUP6 PUSH2 0x32A6 JUMP JUMPDEST PUSH2 0x37C8 PUSH1 0x20 DUP4 ADD DUP5 PUSH2 0x32A6 JUMP JUMPDEST SWAP4 SWAP3 POP POP POP JUMP JUMPDEST PUSH1 0x0 PUSH1 0x40 DUP3 ADD SWAP1 POP PUSH2 0x37E4 PUSH1 0x0 DUP4 ADD DUP6 PUSH2 0x2912 JUMP JUMPDEST PUSH2 0x37F1 PUSH1 0x20 DUP4 ADD DUP5 PUSH2 0x2912 JUMP JUMPDEST SWAP4 SWAP3 POP POP POP JUMP JUMPDEST PUSH32 0x4E487B7100000000000000000000000000000000000000000000000000000000 PUSH1 0x0 MSTORE PUSH1 0x32 PUSH1 0x4 MSTORE PUSH1 0x24 PUSH1 0x0 REVERT JUMPDEST PUSH32 0x4E487B7100000000000000000000000000000000000000000000000000000000 PUSH1 0x0 MSTORE PUSH1 0x11 PUSH1 0x4 MSTORE PUSH1 0x24 PUSH1 0x0 REVERT JUMPDEST PUSH1 0x0 PUSH2 0x3861 DUP3 PUSH2 0x289C JUMP JUMPDEST SWAP2 POP PUSH32 0xFFFFFFFFFFFFFFFFFFFFFFFFFFFFFFFFFFFFFFFFFFFFFFFFFFFFFFFFFFFFFFFF DUP3 SUB PUSH2 0x3893 JUMPI PUSH2 0x3892 PUSH2 0x3827 JUMP JUMPDEST JUMPDEST PUSH1 0x1 DUP3 ADD SWAP1 POP SWAP2 SWAP1 POP JUMP JUMPDEST PUSH32 0x596F7520617265206E6F7420616C6C6F77656420746F20616363657373206365 PUSH1 0x0 DUP3 ADD MSTORE PUSH32 0x7274696669636174650000000000000000000000000000000000000000000000 PUSH1 0x20 DUP3 ADD MSTORE POP JUMP JUMPDEST PUSH1 0x0 PUSH2 0x38FA PUSH1 0x29 DUP4 PUSH2 0x2BBE JUMP JUMPDEST SWAP2 POP PUSH2 0x3905 DUP3 PUSH2 0x389E JUMP JUMPDEST PUSH1 0x40 DUP3 ADD SWAP1 POP SWAP2 SWAP1 POP JUMP JUMPDEST PUSH1 0x0 PUSH1 0x20 DUP3 ADD SWAP1 POP DUP2 DUP2 SUB PUSH1 0x0 DUP4 ADD MSTORE PUSH2 0x3929 DUP2 PUSH2 0x38ED JUMP JUMPDEST SWAP1 POP SWAP2 SWAP1 POP JUMP JUMPDEST PUSH32 0x596F7520617265206D696E74696E67207468652077726F6E6720636572746966 PUSH1 0x0 DUP3 ADD MSTORE PUSH32 0x6963617465000000000000000000000000000000000000000000000000000000 PUSH1 0x20 DUP3 ADD MSTORE POP JUMP JUMPDEST PUSH1 0x0 PUSH2 0x398C PUSH1 0x25 DUP4 PUSH2 0x2BBE JUMP JUMPDEST SWAP2 POP PUSH2 0x3997 DUP3 PUSH2 0x3930 JUMP JUMPDEST PUSH1 0x40 DUP3 ADD SWAP1 POP SWAP2 SWAP1 POP JUMP JUMPDEST PUSH1 0x0 PUSH1 0x20 DUP3 ADD SWAP1 POP DUP2 DUP2 SUB PUSH1 0x0 DUP4 ADD MSTORE PUSH2 0x39BB DUP2 PUSH2 0x397F JUMP JUMPDEST SWAP1 POP SWAP2 SWAP1 POP JUMP JUMPDEST PUSH1 0x0 DUP2 SWAP1 POP DUP2 PUSH1 0x0 MSTORE PUSH1 0x20 PUSH1 0x0 KECCAK256 SWAP1 POP SWAP2 SWAP1 POP JUMP JUMPDEST PUSH1 0x0 PUSH1 0x20 PUSH1 0x1F DUP4 ADD DIV SWAP1 POP SWAP2 SWAP1 POP JUMP JUMPDEST PUSH1 0x0 DUP3 DUP3 SHL SWAP1 POP SWAP3 SWAP2 POP POP JUMP JUMPDEST PUSH1 0x0 PUSH1 0x8 DUP4 MUL PUSH2 0x3A24 PUSH32 0xFFFFFFFFFFFFFFFFFFFFFFFFFFFFFFFFFFFFFFFFFFFFFFFFFFFFFFFFFFFFFFFF DUP3 PUSH2 0x39E7 JUMP JUMPDEST PUSH2 0x3A2E DUP7 DUP4 PUSH2 0x39E7 JUMP JUMPDEST SWAP6 POP DUP1 NOT DUP5 AND SWAP4 POP DUP1 DUP7 AND DUP5 OR SWAP3 POP POP POP SWAP4 SWAP3 POP POP POP JUMP JUMPDEST PUSH1 0x0 DUP2 SWAP1 POP SWAP2 SWAP1 POP JUMP JUMPDEST PUSH1 0x0 PUSH2 0x3A6B PUSH2 0x3A66 PUSH2 0x3A61 DUP5 PUSH2 0x289C JUMP JUMPDEST PUSH2 0x3A46 JUMP JUMPDEST PUSH2 0x289C JUMP JUMPDEST SWAP1 POP SWAP2 SWAP1 POP JUMP JUMPDEST PUSH1 0x0 DUP2 SWAP1 POP SWAP2 SWAP1 POP JUMP JUMPDEST PUSH2 0x3A85 DUP4 PUSH2 0x3A50 JUMP JUMPDEST PUSH2 0x3A99 PUSH2 0x3A91 DUP3 PUSH2 0x3A72 JUMP JUMPDEST DUP5 DUP5 SLOAD PUSH2 0x39F4 JUMP JUMPDEST DUP3 SSTORE POP POP POP POP JUMP JUMPDEST PUSH1 0x0 SWAP1 JUMP JUMPDEST PUSH2 0x3AAE PUSH2 0x3AA1 JUMP JUMPDEST PUSH2 0x3AB9 DUP2 DUP5 DUP5 PUSH2 0x3A7C JUMP JUMPDEST POP POP POP JUMP JUMPDEST JUMPDEST DUP2 DUP2 LT ISZERO PUSH2 0x3ADD JUMPI PUSH2 0x3AD2 PUSH1 0x0 DUP3 PUSH2 0x3AA6 JUMP JUMPDEST PUSH1 0x1 DUP2 ADD SWAP1 POP PUSH2 0x3ABF JUMP JUMPDEST POP POP JUMP JUMPDEST PUSH1 0x1F DUP3 GT ISZERO PUSH2 0x3B22 JUMPI PUSH2 0x3AF3 DUP2 PUSH2 0x39C2 JUMP JUMPDEST PUSH2 0x3AFC DUP5 PUSH2 0x39D7 JUMP JUMPDEST DUP2 ADD PUSH1 0x20 DUP6 LT ISZERO PUSH2 0x3B0B JUMPI DUP2 SWAP1 POP JUMPDEST PUSH2 0x3B1F PUSH2 0x3B17 DUP6 PUSH2 0x39D7 JUMP JUMPDEST DUP4 ADD DUP3 PUSH2 0x3ABE JUMP JUMPDEST POP POP JUMPDEST POP POP POP JUMP JUMPDEST PUSH1 0x0 DUP3 DUP3 SHR SWAP1 POP SWAP3 SWAP2 POP POP JUMP JUMPDEST PUSH1 0x0 PUSH2 0x3B45 PUSH1 0x0 NOT DUP5 PUSH1 0x8 MUL PUSH2 0x3B27 JUMP JUMPDEST NOT DUP1 DUP4 AND SWAP2 POP POP SWAP3 SWAP2 POP POP JUMP JUMPDEST PUSH1 0x0 PUSH2 0x3B5E DUP4 DUP4 PUSH2 0x3B34 JUMP JUMPDEST SWAP2 POP DUP3 PUSH1 0x2 MUL DUP3 OR SWAP1 POP SWAP3 SWAP2 POP POP JUMP JUMPDEST PUSH2 0x3B77 DUP3 PUSH2 0x2BB3 JUMP JUMPDEST PUSH8 0xFFFFFFFFFFFFFFFF DUP2 GT ISZERO PUSH2 0x3B90 JUMPI PUSH2 0x3B8F PUSH2 0x2A12 JUMP JUMPDEST JUMPDEST PUSH2 0x3B9A DUP3 SLOAD PUSH2 0x3775 JUMP JUMPDEST PUSH2 0x3BA5 DUP3 DUP3 DUP6 PUSH2 0x3AE1 JUMP JUMPDEST PUSH1 0x0 PUSH1 0x20 SWAP1 POP PUSH1 0x1F DUP4 GT PUSH1 0x1 DUP2 EQ PUSH2 0x3BD8 JUMPI PUSH1 0x0 DUP5 ISZERO PUSH2 0x3BC6 JUMPI DUP3 DUP8 ADD MLOAD SWAP1 POP JUMPDEST PUSH2 0x3BD0 DUP6 DUP3 PUSH2 0x3B52 JUMP JUMPDEST DUP7 SSTORE POP PUSH2 0x3C38 JUMP JUMPDEST PUSH1 0x1F NOT DUP5 AND PUSH2 0x3BE6 DUP7 PUSH2 0x39C2 JUMP JUMPDEST PUSH1 0x0 JUMPDEST DUP3 DUP2 LT ISZERO PUSH2 0x3C0E JUMPI DUP5 DUP10 ADD MLOAD DUP3 SSTORE PUSH1 0x1 DUP3 ADD SWAP2 POP PUSH1 0x20 DUP6 ADD SWAP5 POP PUSH1 0x20 DUP2 ADD SWAP1 POP PUSH2 0x3BE9 JUMP JUMPDEST DUP7 DUP4 LT ISZERO PUSH2 0x3C2B JUMPI DUP5 DUP10 ADD MLOAD PUSH2 0x3C27 PUSH1 0x1F DUP10 AND DUP3 PUSH2 0x3B34 JUMP JUMPDEST DUP4 SSTORE POP JUMPDEST PUSH1 0x1 PUSH1 0x2 DUP9 MUL ADD DUP9 SSTORE POP POP POP JUMPDEST POP POP POP POP POP POP JUMP JUMPDEST PUSH32 0x596F7520617265206E6F74206120766572696669656420697373756572000000 PUSH1 0x0 DUP3 ADD MSTORE POP JUMP JUMPDEST PUSH1 0x0 PUSH2 0x3C76 PUSH1 0x1D DUP4 PUSH2 0x2BBE JUMP JUMPDEST SWAP2 POP PUSH2 0x3C81 DUP3 PUSH2 0x3C40 JUMP JUMPDEST PUSH1 0x20 DUP3 ADD SWAP1 POP SWAP2 SWAP1 POP JUMP JUMPDEST PUSH1 0x0 PUSH1 0x20 DUP3 ADD SWAP1 POP DUP2 DUP2 SUB PUSH1 0x0 DUP4 ADD MSTORE PUSH2 0x3CA5 DUP2 PUSH2 0x3C69 JUMP JUMPDEST SWAP1 POP SWAP2 SWAP1 POP JUMP JUMPDEST PUSH32 0x4E487B7100000000000000000000000000000000000000000000000000000000 PUSH1 0x0 MSTORE PUSH1 0x12 PUSH1 0x4 MSTORE PUSH1 0x24 PUSH1 0x0 REVERT JUMPDEST PUSH1 0x0 PUSH1 0x80 DUP3 ADD SWAP1 POP PUSH2 0x3CF0 PUSH1 0x0 DUP4 ADD DUP8 PUSH2 0x32A6 JUMP JUMPDEST PUSH2 0x3CFD PUSH1 0x20 DUP4 ADD DUP7 PUSH2 0x2912 JUMP JUMPDEST PUSH2 0x3D0A PUSH1 0x40 DUP4 ADD DUP6 PUSH2 0x2912 JUMP JUMPDEST PUSH2 0x3D17 PUSH1 0x60 DUP4 ADD DUP5 PUSH2 0x2912 JUMP JUMPDEST SWAP6 SWAP5 POP POP POP POP POP JUMP JUMPDEST PUSH1 0x0 PUSH2 0x3D2B DUP3 PUSH2 0x289C JUMP JUMPDEST SWAP2 POP PUSH2 0x3D36 DUP4 PUSH2 0x289C JUMP JUMPDEST SWAP3 POP DUP3 DUP3 ADD SWAP1 POP DUP1 DUP3 GT ISZERO PUSH2 0x3D4E JUMPI PUSH2 0x3D4D PUSH2 0x3827 JUMP JUMPDEST JUMPDEST SWAP3 SWAP2 POP POP JUMP JUMPDEST PUSH1 0x0 PUSH1 0x40 DUP3 ADD SWAP1 POP DUP2 DUP2 SUB PUSH1 0x0 DUP4 ADD MSTORE PUSH2 0x3D6E DUP2 DUP6 PUSH2 0x31B7 JUMP JUMPDEST SWAP1 POP DUP2 DUP2 SUB PUSH1 0x20 DUP4 ADD MSTORE PUSH2 0x3D82 DUP2 DUP5 PUSH2 0x31B7 JUMP JUMPDEST SWAP1 POP SWAP4 SWAP3 POP POP POP JUMP JUMPDEST PUSH1 0x0 DUP2 MLOAD SWAP1 POP SWAP2 SWAP1 POP JUMP JUMPDEST PUSH1 0x0 DUP3 DUP3 MSTORE PUSH1 0x20 DUP3 ADD SWAP1 POP SWAP3 SWAP2 POP POP JUMP JUMPDEST PUSH1 0x0 PUSH2 0x3DB2 DUP3 PUSH2 0x3D8B JUMP JUMPDEST PUSH2 0x3DBC DUP2 DUP6 PUSH2 0x3D96 JUMP JUMPDEST SWAP4 POP PUSH2 0x3DCC DUP2 DUP6 PUSH1 0x20 DUP7 ADD PUSH2 0x2BCF JUMP JUMPDEST PUSH2 0x3DD5 DUP2 PUSH2 0x2A01 JUMP JUMPDEST DUP5 ADD SWAP2 POP POP SWAP3 SWAP2 POP POP JUMP JUMPDEST PUSH1 0x0 PUSH1 0xA0 DUP3 ADD SWAP1 POP PUSH2 0x3DF5 PUSH1 0x0 DUP4 ADD DUP9 PUSH2 0x32A6 JUMP JUMPDEST PUSH2 0x3E02 PUSH1 0x20 DUP4 ADD DUP8 PUSH2 0x32A6 JUMP JUMPDEST PUSH2 0x3E0F PUSH1 0x40 DUP4 ADD DUP7 PUSH2 0x2912 JUMP JUMPDEST PUSH2 0x3E1C PUSH1 0x60 DUP4 ADD DUP6 PUSH2 0x2912 JUMP JUMPDEST DUP2 DUP2 SUB PUSH1 0x80 DUP4 ADD MSTORE PUSH2 0x3E2E DUP2 DUP5 PUSH2 0x3DA7 JUMP JUMPDEST SWAP1 POP SWAP7 SWAP6 POP POP POP POP POP POP JUMP JUMPDEST PUSH1 0x0 DUP2 MLOAD SWAP1 POP PUSH2 0x3E49 DUP2 PUSH2 0x2968 JUMP JUMPDEST SWAP3 SWAP2 POP POP JUMP JUMPDEST PUSH1 0x0 PUSH1 0x20 DUP3 DUP5 SUB SLT ISZERO PUSH2 0x3E65 JUMPI PUSH2 0x3E64 PUSH2 0x2834 JUMP JUMPDEST JUMPDEST PUSH1 0x0 PUSH2 0x3E73 DUP5 DUP3 DUP6 ADD PUSH2 0x3E3A JUMP JUMPDEST SWAP2 POP POP SWAP3 SWAP2 POP POP JUMP JUMPDEST PUSH1 0x0 PUSH1 0xA0 DUP3 ADD SWAP1 POP PUSH2 0x3E91 PUSH1 0x0 DUP4 ADD DUP9 PUSH2 0x32A6 JUMP JUMPDEST PUSH2 0x3E9E PUSH1 0x20 DUP4 ADD DUP8 PUSH2 0x32A6 JUMP JUMPDEST DUP2 DUP2 SUB PUSH1 0x40 DUP4 ADD MSTORE PUSH2 0x3EB0 DUP2 DUP7 PUSH2 0x31B7 JUMP JUMPDEST SWAP1 POP DUP2 DUP2 SUB PUSH1 0x60 DUP4 ADD MSTORE PUSH2 0x3EC4 DUP2 DUP6 PUSH2 0x31B7 JUMP JUMPDEST SWAP1 POP DUP2 DUP2 SUB PUSH1 0x80 DUP4 ADD MSTORE PUSH2 0x3ED8 DUP2 DUP5 PUSH2 0x3DA7 JUMP JUMPDEST SWAP1 POP SWAP7 SWAP6 POP POP POP POP POP POP JUMP INVALID LOG2 PUSH5 0x6970667358 0x22 SLT KECCAK256 ISZERO 0x5E 0x2F 0xDF SLOAD 0x24 0xCE 0xA8 SWAP6 0x26 0xA9 0x2B 0x4E 0xB4 PUSH2 0x9A68 SWAP4 SIGNEXTEND 0xB7 SLOAD 0x4F ISZERO 0xE2 EXTCODESIZE MSTORE TIMESTAMP PUSH14 0x101DBAD664736F6C634300081400 CALLER PUSH10 0x7066733A2F2F516D507A PUSH26 0x4C436D694A614E487764746F6E355A6F6A736E34763862525A61 PUSH17 0x6535526B4E4764363364643141322F0000 "},"methodIdentifiers":{"allowedIssuer(address)":"e61703b8","allowedMint(uint256)":"57e4be9a","allowedPerson(address)":"d96a9f50","allowingIssuer(address,string,uint256)":"812ebfd1","allowingPeople(address,uint256,string)":"d164214d","balanceOf(address,uint256)":"00fdd58e","balanceOfBatch(address[],uint256[])":"4e1273f4","getDetailsOfCertificateHolder(address)":"1ce75209","getDetailsOfCertificateIssuer(address)":"9daca614","isApprovedForAll(address,address)":"e985e9c5","owner()":"8da5cb5b","removingIssuer(address)":"e3602eca","safeBatchTransferFrom(address,address,uint256[],uint256[],bytes)":"2eb2c2d6","safeTransferFrom(address,address,uint256,uint256,bytes)":"f242432a","setApprovalForAll(address,bool)":"a22cb465","setURI(string)":"02fe5305","supportsInterface(bytes4)":"01ffc9a7","uri(uint256)":"0e89341c"}}}}}