{
  "_format": "hh-sol-artifact-1",
  "contractName": "certificate",
  "sourceName": "contracts/certificate.sol",
  "abi": [
    {
      "inputs": [],
      "stateMutability": "nonpayable",
      "type": "constructor"
    },
    {
      "inputs": [
        {
          "internalType": "address",
          "name": "sender",
          "type": "address"
        },
        {
          "internalType": "uint256",
          "name": "balance",
          "type": "uint256"
        },
        {
          "internalType": "uint256",
          "name": "needed",
          "type": "uint256"
        },
        {
          "internalType": "uint256",
          "name": "tokenId",
          "type": "uint256"
        }
      ],
      "name": "ERC1155InsufficientBalance",
      "type": "error"
    },
    {
      "inputs": [
        {
          "internalType": "address",
          "name": "approver",
          "type": "address"
        }
      ],
      "name": "ERC1155InvalidApprover",
      "type": "error"
    },
    {
      "inputs": [
        {
          "internalType": "uint256",
          "name": "idsLength",
          "type": "uint256"
        },
        {
          "internalType": "uint256",
          "name": "valuesLength",
          "type": "uint256"
        }
      ],
      "name": "ERC1155InvalidArrayLength",
      "type": "error"
    },
    {
      "inputs": [
        {
          "internalType": "address",
          "name": "operator",
          "type": "address"
        }
      ],
      "name": "ERC1155InvalidOperator",
      "type": "error"
    },
    {
      "inputs": [
        {
          "internalType": "address",
          "name": "receiver",
          "type": "address"
        }
      ],
      "name": "ERC1155InvalidReceiver",
      "type": "error"
    },
    {
      "inputs": [
        {
          "internalType": "address",
          "name": "sender",
          "type": "address"
        }
      ],
      "name": "ERC1155InvalidSender",
      "type": "error"
    },
    {
      "inputs": [
        {
          "internalType": "address",
          "name": "operator",
          "type": "address"
        },
        {
          "internalType": "address",
          "name": "owner",
          "type": "address"
        }
      ],
      "name": "ERC1155MissingApprovalForAll",
      "type": "error"
    },
    {
      "inputs": [
        {
          "internalType": "string",
          "name": "",
          "type": "string"
        }
      ],
      "name": "throwError",
      "type": "error"
    },
    {
      "anonymous": false,
      "inputs": [
        {
          "indexed": true,
          "internalType": "address",
          "name": "account",
          "type": "address"
        },
        {
          "indexed": true,
          "internalType": "address",
          "name": "operator",
          "type": "address"
        },
        {
          "indexed": false,
          "internalType": "bool",
          "name": "approved",
          "type": "bool"
        }
      ],
      "name": "ApprovalForAll",
      "type": "event"
    },
    {
      "anonymous": false,
      "inputs": [
        {
          "indexed": true,
          "internalType": "address",
          "name": "operator",
          "type": "address"
        },
        {
          "indexed": true,
          "internalType": "address",
          "name": "from",
          "type": "address"
        },
        {
          "indexed": true,
          "internalType": "address",
          "name": "to",
          "type": "address"
        },
        {
          "indexed": false,
          "internalType": "uint256[]",
          "name": "ids",
          "type": "uint256[]"
        },
        {
          "indexed": false,
          "internalType": "uint256[]",
          "name": "values",
          "type": "uint256[]"
        }
      ],
      "name": "TransferBatch",
      "type": "event"
    },
    {
      "anonymous": false,
      "inputs": [
        {
          "indexed": true,
          "internalType": "address",
          "name": "operator",
          "type": "address"
        },
        {
          "indexed": true,
          "internalType": "address",
          "name": "from",
          "type": "address"
        },
        {
          "indexed": true,
          "internalType": "address",
          "name": "to",
          "type": "address"
        },
        {
          "indexed": false,
          "internalType": "uint256",
          "name": "id",
          "type": "uint256"
        },
        {
          "indexed": false,
          "internalType": "uint256",
          "name": "value",
          "type": "uint256"
        }
      ],
      "name": "TransferSingle",
      "type": "event"
    },
    {
      "anonymous": false,
      "inputs": [
        {
          "indexed": false,
          "internalType": "string",
          "name": "value",
          "type": "string"
        },
        {
          "indexed": true,
          "internalType": "uint256",
          "name": "id",
          "type": "uint256"
        }
      ],
      "name": "URI",
      "type": "event"
    },
    {
      "inputs": [
        {
          "internalType": "address",
          "name": "",
          "type": "address"
        }
      ],
      "name": "allowedIssuer",
      "outputs": [
        {
          "internalType": "bool",
          "name": "access",
          "type": "bool"
        },
        {
          "internalType": "address",
          "name": "issuerAddress",
          "type": "address"
        },
        {
          "internalType": "string",
          "name": "organisationName",
          "type": "string"
        },
        {
          "internalType": "uint256",
          "name": "companyRegisteredNumber",
          "type": "uint256"
        }
      ],
      "stateMutability": "view",
      "type": "function"
    },
    {
      "inputs": [
        {
          "internalType": "uint256",
          "name": "id",
          "type": "uint256"
        }
      ],
      "name": "allowedMint",
      "outputs": [],
      "stateMutability": "nonpayable",
      "type": "function"
    },
    {
      "inputs": [
        {
          "internalType": "address",
          "name": "",
          "type": "address"
        }
      ],
      "name": "allowedPerson",
      "outputs": [
        {
          "internalType": "bool",
          "name": "access",
          "type": "bool"
        },
        {
          "internalType": "address",
          "name": "certificateIssuer",
          "type": "address"
        },
        {
          "internalType": "string",
          "name": "typeOfCertificate",
          "type": "string"
        }
      ],
      "stateMutability": "view",
      "type": "function"
    },
    {
      "inputs": [
        {
          "internalType": "address",
          "name": "_issuerAddress",
          "type": "address"
        },
        {
          "internalType": "string",
          "name": "_organisationName",
          "type": "string"
        },
        {
          "internalType": "uint256",
          "name": "_companyRegisteredNumber",
          "type": "uint256"
        }
      ],
      "name": "allowingIssuer",
      "outputs": [],
      "stateMutability": "nonpayable",
      "type": "function"
    },
    {
      "inputs": [
        {
          "internalType": "address",
          "name": "peopleAddress",
          "type": "address"
        },
        {
          "internalType": "uint256",
          "name": "certificateID",
          "type": "uint256"
        },
        {
          "internalType": "string",
          "name": "_typeOfCertificate",
          "type": "string"
        }
      ],
      "name": "allowingPeople",
      "outputs": [],
      "stateMutability": "nonpayable",
      "type": "function"
    },
    {
      "inputs": [
        {
          "internalType": "address",
          "name": "account",
          "type": "address"
        },
        {
          "internalType": "uint256",
          "name": "id",
          "type": "uint256"
        }
      ],
      "name": "balanceOf",
      "outputs": [
        {
          "internalType": "uint256",
          "name": "",
          "type": "uint256"
        }
      ],
      "stateMutability": "view",
      "type": "function"
    },
    {
      "inputs": [
        {
          "internalType": "address[]",
          "name": "accounts",
          "type": "address[]"
        },
        {
          "internalType": "uint256[]",
          "name": "ids",
          "type": "uint256[]"
        }
      ],
      "name": "balanceOfBatch",
      "outputs": [
        {
          "internalType": "uint256[]",
          "name": "",
          "type": "uint256[]"
        }
      ],
      "stateMutability": "view",
      "type": "function"
    },
    {
      "inputs": [
        {
          "internalType": "address",
          "name": "certificateHolderAddress",
          "type": "address"
        }
      ],
      "name": "getDetailsOfCertificateHolder",
      "outputs": [
        {
          "components": [
            {
              "internalType": "bool",
              "name": "access",
              "type": "bool"
            },
            {
              "internalType": "uint256[]",
              "name": "id",
              "type": "uint256[]"
            },
            {
              "internalType": "address",
              "name": "certificateIssuer",
              "type": "address"
            },
            {
              "internalType": "string",
              "name": "typeOfCertificate",
              "type": "string"
            }
          ],
          "internalType": "struct certificate.people",
          "name": "",
          "type": "tuple"
        }
      ],
      "stateMutability": "view",
      "type": "function"
    },
    {
      "inputs": [
        {
          "internalType": "address",
          "name": "certificateIssuer",
          "type": "address"
        }
      ],
      "name": "getDetailsOfCertificateIssuer",
      "outputs": [
        {
          "components": [
            {
              "internalType": "bool",
              "name": "access",
              "type": "bool"
            },
            {
              "internalType": "address",
              "name": "issuerAddress",
              "type": "address"
            },
            {
              "internalType": "string",
              "name": "organisationName",
              "type": "string"
            },
            {
              "internalType": "uint256",
              "name": "companyRegisteredNumber",
              "type": "uint256"
            }
          ],
          "internalType": "struct certificate.issuer",
          "name": "",
          "type": "tuple"
        }
      ],
      "stateMutability": "view",
      "type": "function"
    },
    {
      "inputs": [
        {
          "internalType": "address",
          "name": "account",
          "type": "address"
        },
        {
          "internalType": "address",
          "name": "operator",
          "type": "address"
        }
      ],
      "name": "isApprovedForAll",
      "outputs": [
        {
          "internalType": "bool",
          "name": "",
          "type": "bool"
        }
      ],
      "stateMutability": "view",
      "type": "function"
    },
    {
      "inputs": [],
      "name": "owner",
      "outputs": [
        {
          "internalType": "address",
          "name": "",
          "type": "address"
        }
      ],
      "stateMutability": "view",
      "type": "function"
    },
    {
      "inputs": [
        {
          "internalType": "address",
          "name": "_issuerAddress",
          "type": "address"
        }
      ],
      "name": "removingIssuer",
      "outputs": [],
      "stateMutability": "nonpayable",
      "type": "function"
    },
    {
      "inputs": [
        {
          "internalType": "address",
          "name": "from",
          "type": "address"
        },
        {
          "internalType": "address",
          "name": "to",
          "type": "address"
        },
        {
          "internalType": "uint256[]",
          "name": "ids",
          "type": "uint256[]"
        },
        {
          "internalType": "uint256[]",
          "name": "values",
          "type": "uint256[]"
        },
        {
          "internalType": "bytes",
          "name": "data",
          "type": "bytes"
        }
      ],
      "name": "safeBatchTransferFrom",
      "outputs": [],
      "stateMutability": "nonpayable",
      "type": "function"
    },
    {
      "inputs": [
        {
          "internalType": "address",
          "name": "from",
          "type": "address"
        },
        {
          "internalType": "address",
          "name": "to",
          "type": "address"
        },
        {
          "internalType": "uint256",
          "name": "id",
          "type": "uint256"
        },
        {
          "internalType": "uint256",
          "name": "value",
          "type": "uint256"
        },
        {
          "internalType": "bytes",
          "name": "data",
          "type": "bytes"
        }
      ],
      "name": "safeTransferFrom",
      "outputs": [],
      "stateMutability": "nonpayable",
      "type": "function"
    },
    {
      "inputs": [
        {
          "internalType": "address",
          "name": "operator",
          "type": "address"
        },
        {
          "internalType": "bool",
          "name": "approved",
          "type": "bool"
        }
      ],
      "name": "setApprovalForAll",
      "outputs": [],
      "stateMutability": "nonpayable",
      "type": "function"
    },
    {
      "inputs": [
        {
          "internalType": "string",
          "name": "newuri",
          "type": "string"
        }
      ],
      "name": "setURI",
      "outputs": [],
      "stateMutability": "nonpayable",
      "type": "function"
    },
    {
      "inputs": [
        {
          "internalType": "bytes4",
          "name": "interfaceId",
          "type": "bytes4"
        }
      ],
      "name": "supportsInterface",
      "outputs": [
        {
          "internalType": "bool",
          "name": "",
          "type": "bool"
        }
      ],
      "stateMutability": "view",
      "type": "function"
    },
    {
      "inputs": [
        {
          "internalType": "uint256",
          "name": "id",
          "type": "uint256"
        }
      ],
      "name": "uri",
      "outputs": [
        {
          "internalType": "string",
          "name": "",
          "type": "string"
        }
      ],
      "stateMutability": "view",
      "type": "function"
    }
  ],
  "bytecode": "0x60806040523480156200001157600080fd5b5060405180606001604052806036815260200162004325603691396200003d816200008560201b60201c565b5033600360006101000a81548173ffffffffffffffffffffffffffffffffffffffff021916908373ffffffffffffffffffffffffffffffffffffffff160217905550620003fb565b806002908162000096919062000314565b5050565b600081519050919050565b7f4e487b7100000000000000000000000000000000000000000000000000000000600052604160045260246000fd5b7f4e487b7100000000000000000000000000000000000000000000000000000000600052602260045260246000fd5b600060028204905060018216806200011c57607f821691505b602082108103620001325762000131620000d4565b5b50919050565b60008190508160005260206000209050919050565b60006020601f8301049050919050565b600082821b905092915050565b6000600883026200019c7fffffffffffffffffffffffffffffffffffffffffffffffffffffffffffffffff826200015d565b620001a886836200015d565b95508019841693508086168417925050509392505050565b6000819050919050565b6000819050919050565b6000620001f5620001ef620001e984620001c0565b620001ca565b620001c0565b9050919050565b6000819050919050565b6200021183620001d4565b620002296200022082620001fc565b8484546200016a565b825550505050565b600090565b6200024062000231565b6200024d81848462000206565b505050565b5b8181101562000275576200026960008262000236565b60018101905062000253565b5050565b601f821115620002c4576200028e8162000138565b62000299846200014d565b81016020851015620002a9578190505b620002c1620002b8856200014d565b83018262000252565b50505b505050565b600082821c905092915050565b6000620002e960001984600802620002c9565b1980831691505092915050565b6000620003048383620002d6565b9150826002028217905092915050565b6200031f826200009a565b67ffffffffffffffff8111156200033b576200033a620000a5565b5b62000347825462000103565b6200035482828562000279565b600060209050601f8311600181146200038c576000841562000377578287015190505b620003838582620002f6565b865550620003f3565b601f1984166200039c8662000138565b60005b82811015620003c6578489015182556001820191506020850194506020810190506200039f565b86831015620003e65784890151620003e2601f891682620002d6565b8355505b6001600288020188555050505b505050505050565b613f1a806200040b6000396000f3fe608060405234801561001057600080fd5b50600436106101155760003560e01c80638da5cb5b116100a2578063d96a9f5011610071578063d96a9f5014610300578063e3602eca14610332578063e61703b81461034e578063e985e9c514610381578063f242432a146103b157610115565b80638da5cb5b1461027a5780639daca61414610298578063a22cb465146102c8578063d164214d146102e457610115565b80631ce75209116100e95780631ce75209146101c65780632eb2c2d6146101f65780634e1273f41461021257806357e4be9a14610242578063812ebfd11461025e57610115565b8062fdd58e1461011a57806301ffc9a71461014a57806302fe53051461017a5780630e89341c14610196575b600080fd5b610134600480360381019061012f91906128d2565b6103cd565b6040516101419190612921565b60405180910390f35b610164600480360381019061015f9190612994565b610427565b60405161017191906129dc565b60405180910390f35b610194600480360381019061018f9190612b3d565b610509565b005b6101b060048036038101906101ab9190612b86565b610693565b6040516101bd9190612c32565b60405180910390f35b6101e060048036038101906101db9190612c54565b6106ce565b6040516101ed9190612e11565b60405180910390f35b610210600480360381019061020b9190612f9c565b610882565b005b61022c6004803603810190610227919061312e565b61092a565b6040516102399190613215565b60405180910390f35b61025c60048036038101906102579190612b86565b610a39565b005b61027860048036038101906102739190613237565b610c58565b005b610282610e60565b60405161028f91906132b5565b60405180910390f35b6102b260048036038101906102ad9190612c54565b610e86565b6040516102bf9190613333565b60405180910390f35b6102e260048036038101906102dd9190613381565b610fec565b005b6102fe60048036038101906102f991906133c1565b611002565b005b61031a60048036038101906103159190612c54565b61128f565b60405161032993929190613430565b60405180910390f35b61034c60048036038101906103479190612c54565b61136e565b005b61036860048036038101906103639190612c54565b61145c565b604051610378949392919061346e565b60405180910390f35b61039b600480360381019061039691906134ba565b611541565b6040516103a891906129dc565b60405180910390f35b6103cb60048036038101906103c691906134fa565b6115d5565b005b600080600083815260200190815260200160002060008473ffffffffffffffffffffffffffffffffffffffff1673ffffffffffffffffffffffffffffffffffffffff16815260200190815260200160002054905092915050565b60007fd9b67a26000000000000000000000000000000000000000000000000000000007bffffffffffffffffffffffffffffffffffffffffffffffffffffffff1916827bffffffffffffffffffffffffffffffffffffffffffffffffffffffff191614806104f257507f0e89341c000000000000000000000000000000000000000000000000000000007bffffffffffffffffffffffffffffffffffffffffffffffffffffffff1916827bffffffffffffffffffffffffffffffffffffffffffffffffffffffff1916145b8061050257506105018261167d565b5b9050919050565b3373ffffffffffffffffffffffffffffffffffffffff16600360009054906101000a900473ffffffffffffffffffffffffffffffffffffffff1673ffffffffffffffffffffffffffffffffffffffff1614610599576040517f08c379a000000000000000000000000000000000000000000000000000000000815260040161059090613603565b60405180910390fd5b3373ffffffffffffffffffffffffffffffffffffffff16600360009054906101000a900473ffffffffffffffffffffffffffffffffffffffff1673ffffffffffffffffffffffffffffffffffffffff161480610648575060011515600560003373ffffffffffffffffffffffffffffffffffffffff1673ffffffffffffffffffffffffffffffffffffffff16815260200190815260200160002060000160009054906101000a900460ff161515145b610687576040517f08c379a000000000000000000000000000000000000000000000000000000000815260040161067e9061366f565b60405180910390fd5b610690816116e7565b50565b606061069e826116fa565b6106a78361178e565b6040516020016106b8929190613717565b6040516020818303038152906040529050919050565b6106d66127aa565b600460008373ffffffffffffffffffffffffffffffffffffffff1673ffffffffffffffffffffffffffffffffffffffff1681526020019081526020016000206040518060800160405290816000820160009054906101000a900460ff161515151581526020016001820180548060200260200160405190810160405280929190818152602001828054801561078a57602002820191906000526020600020905b815481526020019060010190808311610776575b505050505081526020016002820160009054906101000a900473ffffffffffffffffffffffffffffffffffffffff1673ffffffffffffffffffffffffffffffffffffffff1673ffffffffffffffffffffffffffffffffffffffff1681526020016003820180546107f990613775565b80601f016020809104026020016040519081016040528092919081815260200182805461082590613775565b80156108725780601f1061084757610100808354040283529160200191610872565b820191906000526020600020905b81548152906001019060200180831161085557829003601f168201915b5050505050815250509050919050565b600061088c61185c565b90508073ffffffffffffffffffffffffffffffffffffffff168673ffffffffffffffffffffffffffffffffffffffff16141580156108d157506108cf8682611541565b155b156109155780866040517fe237d92200000000000000000000000000000000000000000000000000000000815260040161090c9291906137a6565b60405180910390fd5b6109228686868686611864565b505050505050565b6060815183511461097657815183516040517f5b05999100000000000000000000000000000000000000000000000000000000815260040161096d9291906137cf565b60405180910390fd5b6000835167ffffffffffffffff81111561099357610992612a12565b5b6040519080825280602002602001820160405280156109c15781602001602082028036833780820191505090505b50905060005b8451811015610a2e576109fe6109e6828761195c90919063ffffffff16565b6109f9838761197090919063ffffffff16565b6103cd565b828281518110610a1157610a106137f8565b5b60200260200101818152505080610a2790613856565b90506109c7565b508091505092915050565b600460003373ffffffffffffffffffffffffffffffffffffffff1673ffffffffffffffffffffffffffffffffffffffff16815260200190815260200160002060000160009054906101000a900460ff16610ac8576040517f08c379a0000000000000000000000000000000000000000000000000000000008152600401610abf90613910565b60405180910390fd5b6000805b600460003373ffffffffffffffffffffffffffffffffffffffff1673ffffffffffffffffffffffffffffffffffffffff16815260200190815260200160002060010180549050811015610bf75782600460003373ffffffffffffffffffffffffffffffffffffffff1673ffffffffffffffffffffffffffffffffffffffff1681526020019081526020016000206001018281548110610b6e57610b6d6137f8565b5b906000526020600020015403610be45782600460003373ffffffffffffffffffffffffffffffffffffffff1673ffffffffffffffffffffffffffffffffffffffff1681526020019081526020016000206001018281548110610bd357610bd26137f8565b5b906000526020600020505050600191505b8080610bef90613856565b915050610acc565b5080610c38576040517fe93b6b24000000000000000000000000000000000000000000000000000000008152600401610c2f906139a2565b60405180910390fd5b610c543383600160405180602001604052806000815250611984565b5050565b3373ffffffffffffffffffffffffffffffffffffffff16600360009054906101000a900473ffffffffffffffffffffffffffffffffffffffff1673ffffffffffffffffffffffffffffffffffffffff1614610ce8576040517f08c379a0000000000000000000000000000000000000000000000000000000008152600401610cdf90613603565b60405180910390fd5b6001600560008573ffffffffffffffffffffffffffffffffffffffff1673ffffffffffffffffffffffffffffffffffffffff16815260200190815260200160002060000160006101000a81548160ff02191690831515021790555082600560008573ffffffffffffffffffffffffffffffffffffffff1673ffffffffffffffffffffffffffffffffffffffff16815260200190815260200160002060000160016101000a81548173ffffffffffffffffffffffffffffffffffffffff021916908373ffffffffffffffffffffffffffffffffffffffff16021790555081600560008573ffffffffffffffffffffffffffffffffffffffff1673ffffffffffffffffffffffffffffffffffffffff1681526020019081526020016000206001019081610e139190613b6e565b5080600560008573ffffffffffffffffffffffffffffffffffffffff1673ffffffffffffffffffffffffffffffffffffffff16815260200190815260200160002060020181905550505050565b600360009054906101000a900473ffffffffffffffffffffffffffffffffffffffff1681565b610e8e6127ea565b600560008373ffffffffffffffffffffffffffffffffffffffff1673ffffffffffffffffffffffffffffffffffffffff1681526020019081526020016000206040518060800160405290816000820160009054906101000a900460ff161515151581526020016000820160019054906101000a900473ffffffffffffffffffffffffffffffffffffffff1673ffffffffffffffffffffffffffffffffffffffff1673ffffffffffffffffffffffffffffffffffffffff168152602001600182018054610f5990613775565b80601f0160208091040260200160405190810160405280929190818152602001828054610f8590613775565b8015610fd25780601f10610fa757610100808354040283529160200191610fd2565b820191906000526020600020905b815481529060010190602001808311610fb557829003601f168201915b505050505081526020016002820154815250509050919050565b610ffe610ff761185c565b8383611a1d565b5050565b60011515600560003373ffffffffffffffffffffffffffffffffffffffff1673ffffffffffffffffffffffffffffffffffffffff16815260200190815260200160002060000160009054906101000a900460ff16151514611098576040517f08c379a000000000000000000000000000000000000000000000000000000000815260040161108f90613c8c565b60405180910390fd5b6001600460008573ffffffffffffffffffffffffffffffffffffffff1673ffffffffffffffffffffffffffffffffffffffff16815260200190815260200160002060000160006101000a81548160ff0219169083151502179055506000600460008573ffffffffffffffffffffffffffffffffffffffff1673ffffffffffffffffffffffffffffffffffffffff16815260200190815260200160002060010180549050036111ae57600460008473ffffffffffffffffffffffffffffffffffffffff1673ffffffffffffffffffffffffffffffffffffffff1681526020019081526020016000206001018290806001815401808255809150506001900390600052602060002001600090919091909150556111b9565b6111b88383611b8d565b5b33600460008573ffffffffffffffffffffffffffffffffffffffff1673ffffffffffffffffffffffffffffffffffffffff16815260200190815260200160002060020160006101000a81548173ffffffffffffffffffffffffffffffffffffffff021916908373ffffffffffffffffffffffffffffffffffffffff16021790555080600460008573ffffffffffffffffffffffffffffffffffffffff1673ffffffffffffffffffffffffffffffffffffffff16815260200190815260200160002060030190816112899190613b6e565b50505050565b60046020528060005260406000206000915090508060000160009054906101000a900460ff16908060020160009054906101000a900473ffffffffffffffffffffffffffffffffffffffff16908060030180546112eb90613775565b80601f016020809104026020016040519081016040528092919081815260200182805461131790613775565b80156113645780601f1061133957610100808354040283529160200191611364565b820191906000526020600020905b81548152906001019060200180831161134757829003601f168201915b5050505050905083565b3373ffffffffffffffffffffffffffffffffffffffff16600360009054906101000a900473ffffffffffffffffffffffffffffffffffffffff1673ffffffffffffffffffffffffffffffffffffffff16146113fe576040517f08c379a00000000000000000000000000000000000000000000000000000000081526004016113f590613603565b60405180910390fd5b6000600560008373ffffffffffffffffffffffffffffffffffffffff1673ffffffffffffffffffffffffffffffffffffffff16815260200190815260200160002060000160006101000a81548160ff02191690831515021790555050565b60056020528060005260406000206000915090508060000160009054906101000a900460ff16908060000160019054906101000a900473ffffffffffffffffffffffffffffffffffffffff16908060010180546114b890613775565b80601f01602080910402602001604051908101604052809291908181526020018280546114e490613775565b80156115315780601f1061150657610100808354040283529160200191611531565b820191906000526020600020905b81548152906001019060200180831161151457829003601f168201915b5050505050908060020154905084565b6000600160008473ffffffffffffffffffffffffffffffffffffffff1673ffffffffffffffffffffffffffffffffffffffff16815260200190815260200160002060008373ffffffffffffffffffffffffffffffffffffffff1673ffffffffffffffffffffffffffffffffffffffff16815260200190815260200160002060009054906101000a900460ff16905092915050565b60006115df61185c565b90508073ffffffffffffffffffffffffffffffffffffffff168673ffffffffffffffffffffffffffffffffffffffff161415801561162457506116228682611541565b155b156116685780866040517fe237d92200000000000000000000000000000000000000000000000000000000815260040161165f9291906137a6565b60405180910390fd5b6116758686868686611d54565b505050505050565b60007f01ffc9a7000000000000000000000000000000000000000000000000000000007bffffffffffffffffffffffffffffffffffffffffffffffffffffffff1916827bffffffffffffffffffffffffffffffffffffffffffffffffffffffff1916149050919050565b80600290816116f69190613b6e565b5050565b60606002805461170990613775565b80601f016020809104026020016040519081016040528092919081815260200182805461173590613775565b80156117825780601f1061175757610100808354040283529160200191611782565b820191906000526020600020905b81548152906001019060200180831161176557829003601f168201915b50505050509050919050565b60606000600161179d84611e5f565b01905060008167ffffffffffffffff8111156117bc576117bb612a12565b5b6040519080825280601f01601f1916602001820160405280156117ee5781602001600182028036833780820191505090505b509050600082602001820190505b600115611851578080600190039150507f3031323334353637383961626364656600000000000000000000000000000000600a86061a8153600a858161184557611844613cac565b5b049450600085036117fc575b819350505050919050565b600033905090565b600073ffffffffffffffffffffffffffffffffffffffff168473ffffffffffffffffffffffffffffffffffffffff16036118d65760006040517f57f447ce0000000000000000000000000000000000000000000000000000000081526004016118cd91906132b5565b60405180910390fd5b600073ffffffffffffffffffffffffffffffffffffffff168573ffffffffffffffffffffffffffffffffffffffff16036119485760006040517f01a8351400000000000000000000000000000000000000000000000000000000815260040161193f91906132b5565b60405180910390fd5b6119558585858585611fb2565b5050505050565b600060208202602084010151905092915050565b600060208202602084010151905092915050565b600073ffffffffffffffffffffffffffffffffffffffff168473ffffffffffffffffffffffffffffffffffffffff16036119f65760006040517f57f447ce0000000000000000000000000000000000000000000000000000000081526004016119ed91906132b5565b60405180910390fd5b600080611a038585612064565b91509150611a15600087848487611fb2565b505050505050565b600073ffffffffffffffffffffffffffffffffffffffff168273ffffffffffffffffffffffffffffffffffffffff1603611a8f5760006040517fced3e100000000000000000000000000000000000000000000000000000000008152600401611a8691906132b5565b60405180910390fd5b80600160008573ffffffffffffffffffffffffffffffffffffffff1673ffffffffffffffffffffffffffffffffffffffff16815260200190815260200160002060008473ffffffffffffffffffffffffffffffffffffffff1673ffffffffffffffffffffffffffffffffffffffff16815260200190815260200160002060006101000a81548160ff0219169083151502179055508173ffffffffffffffffffffffffffffffffffffffff168373ffffffffffffffffffffffffffffffffffffffff167f17307eab39ab6107e8899845ad3d59bd9653f200f220920489ca2b5937696c3183604051611b8091906129dc565b60405180910390a3505050565b3373ffffffffffffffffffffffffffffffffffffffff16600360009054906101000a900473ffffffffffffffffffffffffffffffffffffffff1673ffffffffffffffffffffffffffffffffffffffff1614611c1d576040517f08c379a0000000000000000000000000000000000000000000000000000000008152600401611c1490613603565b60405180910390fd5b60005b600460008473ffffffffffffffffffffffffffffffffffffffff1673ffffffffffffffffffffffffffffffffffffffff16815260200190815260200160002060010180549050811015611d4f5781600460008573ffffffffffffffffffffffffffffffffffffffff1673ffffffffffffffffffffffffffffffffffffffff1681526020019081526020016000206001018281548110611cc257611cc16137f8565b5b906000526020600020015414611d3c57600460008473ffffffffffffffffffffffffffffffffffffffff1673ffffffffffffffffffffffffffffffffffffffff1681526020019081526020016000206001018290806001815401808255809150506001900390600052602060002001600090919091909150555b8080611d4790613856565b915050611c20565b505050565b600073ffffffffffffffffffffffffffffffffffffffff168473ffffffffffffffffffffffffffffffffffffffff1603611dc65760006040517f57f447ce000000000000000000000000000000000000000000000000000000008152600401611dbd91906132b5565b60405180910390fd5b600073ffffffffffffffffffffffffffffffffffffffff168573ffffffffffffffffffffffffffffffffffffffff1603611e385760006040517f01a83514000000000000000000000000000000000000000000000000000000008152600401611e2f91906132b5565b60405180910390fd5b600080611e458585612064565b91509150611e568787848487611fb2565b50505050505050565b600080600090507a184f03e93ff9f4daa797ed6e38ed64bf6a1f0100000000000000008310611ebd577a184f03e93ff9f4daa797ed6e38ed64bf6a1f0100000000000000008381611eb357611eb2613cac565b5b0492506040810190505b6d04ee2d6d415b85acef81000000008310611efa576d04ee2d6d415b85acef81000000008381611ef057611eef613cac565b5b0492506020810190505b662386f26fc100008310611f2957662386f26fc100008381611f1f57611f1e613cac565b5b0492506010810190505b6305f5e1008310611f52576305f5e1008381611f4857611f47613cac565b5b0492506008810190505b6127108310611f77576127108381611f6d57611f6c613cac565b5b0492506004810190505b60648310611f9a5760648381611f9057611f8f613cac565b5b0492506002810190505b600a8310611fa9576001810190505b80915050919050565b611fbe85858585612094565b600073ffffffffffffffffffffffffffffffffffffffff168473ffffffffffffffffffffffffffffffffffffffff161461205d576000611ffc61185c565b9050600184510361204c57600061201d60008661197090919063ffffffff16565b9050600061203560008661197090919063ffffffff16565b9050612045838989858589612442565b505061205b565b61205a8187878787876125f6565b5b505b5050505050565b60608060405191506001825283602083015260408201905060018152826020820152604081016040529250929050565b80518251146120de57815181516040517f5b0599910000000000000000000000000000000000000000000000000000000081526004016120d59291906137cf565b60405180910390fd5b60006120e861185c565b905060005b83518110156122fd57600061210b828661197090919063ffffffff16565b90506000612122838661197090919063ffffffff16565b9050600073ffffffffffffffffffffffffffffffffffffffff168873ffffffffffffffffffffffffffffffffffffffff161461224f57600080600084815260200190815260200160002060008a73ffffffffffffffffffffffffffffffffffffffff1673ffffffffffffffffffffffffffffffffffffffff168152602001908152602001600020549050818110156121f757888183856040517f03dee4c50000000000000000000000000000000000000000000000000000000081526004016121ee9493929190613cdb565b60405180910390fd5b81810360008085815260200190815260200160002060008b73ffffffffffffffffffffffffffffffffffffffff1673ffffffffffffffffffffffffffffffffffffffff16815260200190815260200160002081905550505b600073ffffffffffffffffffffffffffffffffffffffff168773ffffffffffffffffffffffffffffffffffffffff16146122ea578060008084815260200190815260200160002060008973ffffffffffffffffffffffffffffffffffffffff1673ffffffffffffffffffffffffffffffffffffffff16815260200190815260200160002060008282546122e29190613d20565b925050819055505b5050806122f690613856565b90506120ed565b5060018351036123bc57600061231d60008561197090919063ffffffff16565b9050600061233560008561197090919063ffffffff16565b90508573ffffffffffffffffffffffffffffffffffffffff168773ffffffffffffffffffffffffffffffffffffffff168473ffffffffffffffffffffffffffffffffffffffff167fc3d58168c5ae7397731d063d5bbf3d657854427343f4c083240f7aacaa2d0f6285856040516123ad9291906137cf565b60405180910390a4505061243b565b8373ffffffffffffffffffffffffffffffffffffffff168573ffffffffffffffffffffffffffffffffffffffff168273ffffffffffffffffffffffffffffffffffffffff167f4a39dc06d4c0dbc64b70af90fd698a233a518aa5d07e595d983b8c0526c8f7fb8686604051612432929190613d54565b60405180910390a45b5050505050565b60008473ffffffffffffffffffffffffffffffffffffffff163b11156125ee578373ffffffffffffffffffffffffffffffffffffffff1663f23a6e6187878686866040518663ffffffff1660e01b81526004016124a3959493929190613de0565b6020604051808303816000875af19250505080156124df57506040513d601f19601f820116820180604052508101906124dc9190613e4f565b60015b612563573d806000811461250f576040519150601f19603f3d011682016040523d82523d6000602084013e612514565b606091505b50600081510361255b57846040517f57f447ce00000000000000000000000000000000000000000000000000000000815260040161255291906132b5565b60405180910390fd5b805181602001fd5b63f23a6e6160e01b7bffffffffffffffffffffffffffffffffffffffffffffffffffffffff1916817bffffffffffffffffffffffffffffffffffffffffffffffffffffffff1916146125ec57846040517f57f447ce0000000000000000000000000000000000000000000000000000000081526004016125e391906132b5565b60405180910390fd5b505b505050505050565b60008473ffffffffffffffffffffffffffffffffffffffff163b11156127a2578373ffffffffffffffffffffffffffffffffffffffff1663bc197c8187878686866040518663ffffffff1660e01b8152600401612657959493929190613e7c565b6020604051808303816000875af192505050801561269357506040513d601f19601f820116820180604052508101906126909190613e4f565b60015b612717573d80600081146126c3576040519150601f19603f3d011682016040523d82523d6000602084013e6126c8565b606091505b50600081510361270f57846040517f57f447ce00000000000000000000000000000000000000000000000000000000815260040161270691906132b5565b60405180910390fd5b805181602001fd5b63bc197c8160e01b7bffffffffffffffffffffffffffffffffffffffffffffffffffffffff1916817bffffffffffffffffffffffffffffffffffffffffffffffffffffffff1916146127a057846040517f57f447ce00000000000000000000000000000000000000000000000000000000815260040161279791906132b5565b60405180910390fd5b505b505050505050565b604051806080016040528060001515815260200160608152602001600073ffffffffffffffffffffffffffffffffffffffff168152602001606081525090565b6040518060800160405280600015158152602001600073ffffffffffffffffffffffffffffffffffffffff16815260200160608152602001600081525090565b6000604051905090565b600080fd5b600080fd5b600073ffffffffffffffffffffffffffffffffffffffff82169050919050565b60006128698261283e565b9050919050565b6128798161285e565b811461288457600080fd5b50565b60008135905061289681612870565b92915050565b6000819050919050565b6128af8161289c565b81146128ba57600080fd5b50565b6000813590506128cc816128a6565b92915050565b600080604083850312156128e9576128e8612834565b5b60006128f785828601612887565b9250506020612908858286016128bd565b9150509250929050565b61291b8161289c565b82525050565b60006020820190506129366000830184612912565b92915050565b60007fffffffff0000000000000000000000000000000000000000000000000000000082169050919050565b6129718161293c565b811461297c57600080fd5b50565b60008135905061298e81612968565b92915050565b6000602082840312156129aa576129a9612834565b5b60006129b88482850161297f565b91505092915050565b60008115159050919050565b6129d6816129c1565b82525050565b60006020820190506129f160008301846129cd565b92915050565b600080fd5b600080fd5b6000601f19601f8301169050919050565b7f4e487b7100000000000000000000000000000000000000000000000000000000600052604160045260246000fd5b612a4a82612a01565b810181811067ffffffffffffffff82111715612a6957612a68612a12565b5b80604052505050565b6000612a7c61282a565b9050612a888282612a41565b919050565b600067ffffffffffffffff821115612aa857612aa7612a12565b5b612ab182612a01565b9050602081019050919050565b82818337600083830152505050565b6000612ae0612adb84612a8d565b612a72565b905082815260208101848484011115612afc57612afb6129fc565b5b612b07848285612abe565b509392505050565b600082601f830112612b2457612b236129f7565b5b8135612b34848260208601612acd565b91505092915050565b600060208284031215612b5357612b52612834565b5b600082013567ffffffffffffffff811115612b7157612b70612839565b5b612b7d84828501612b0f565b91505092915050565b600060208284031215612b9c57612b9b612834565b5b6000612baa848285016128bd565b91505092915050565b600081519050919050565b600082825260208201905092915050565b60005b83811015612bed578082015181840152602081019050612bd2565b60008484015250505050565b6000612c0482612bb3565b612c0e8185612bbe565b9350612c1e818560208601612bcf565b612c2781612a01565b840191505092915050565b60006020820190508181036000830152612c4c8184612bf9565b905092915050565b600060208284031215612c6a57612c69612834565b5b6000612c7884828501612887565b91505092915050565b612c8a816129c1565b82525050565b600081519050919050565b600082825260208201905092915050565b6000819050602082019050919050565b612cc58161289c565b82525050565b6000612cd78383612cbc565b60208301905092915050565b6000602082019050919050565b6000612cfb82612c90565b612d058185612c9b565b9350612d1083612cac565b8060005b83811015612d41578151612d288882612ccb565b9750612d3383612ce3565b925050600181019050612d14565b5085935050505092915050565b612d578161285e565b82525050565b600082825260208201905092915050565b6000612d7982612bb3565b612d838185612d5d565b9350612d93818560208601612bcf565b612d9c81612a01565b840191505092915050565b6000608083016000830151612dbf6000860182612c81565b5060208301518482036020860152612dd78282612cf0565b9150506040830151612dec6040860182612d4e565b5060608301518482036060860152612e048282612d6e565b9150508091505092915050565b60006020820190508181036000830152612e2b8184612da7565b905092915050565b600067ffffffffffffffff821115612e4e57612e4d612a12565b5b602082029050602081019050919050565b600080fd5b6000612e77612e7284612e33565b612a72565b90508083825260208201905060208402830185811115612e9a57612e99612e5f565b5b835b81811015612ec35780612eaf88826128bd565b845260208401935050602081019050612e9c565b5050509392505050565b600082601f830112612ee257612ee16129f7565b5b8135612ef2848260208601612e64565b91505092915050565b600067ffffffffffffffff821115612f1657612f15612a12565b5b612f1f82612a01565b9050602081019050919050565b6000612f3f612f3a84612efb565b612a72565b905082815260208101848484011115612f5b57612f5a6129fc565b5b612f66848285612abe565b509392505050565b600082601f830112612f8357612f826129f7565b5b8135612f93848260208601612f2c565b91505092915050565b600080600080600060a08688031215612fb857612fb7612834565b5b6000612fc688828901612887565b9550506020612fd788828901612887565b945050604086013567ffffffffffffffff811115612ff857612ff7612839565b5b61300488828901612ecd565b935050606086013567ffffffffffffffff81111561302557613024612839565b5b61303188828901612ecd565b925050608086013567ffffffffffffffff81111561305257613051612839565b5b61305e88828901612f6e565b9150509295509295909350565b600067ffffffffffffffff82111561308657613085612a12565b5b602082029050602081019050919050565b60006130aa6130a58461306b565b612a72565b905080838252602082019050602084028301858111156130cd576130cc612e5f565b5b835b818110156130f657806130e28882612887565b8452602084019350506020810190506130cf565b5050509392505050565b600082601f830112613115576131146129f7565b5b8135613125848260208601613097565b91505092915050565b6000806040838503121561314557613144612834565b5b600083013567ffffffffffffffff81111561316357613162612839565b5b61316f85828601613100565b925050602083013567ffffffffffffffff8111156131905761318f612839565b5b61319c85828601612ecd565b9150509250929050565b600082825260208201905092915050565b60006131c282612c90565b6131cc81856131a6565b93506131d783612cac565b8060005b838110156132085781516131ef8882612ccb565b97506131fa83612ce3565b9250506001810190506131db565b5085935050505092915050565b6000602082019050818103600083015261322f81846131b7565b905092915050565b6000806000606084860312156132505761324f612834565b5b600061325e86828701612887565b935050602084013567ffffffffffffffff81111561327f5761327e612839565b5b61328b86828701612b0f565b925050604061329c868287016128bd565b9150509250925092565b6132af8161285e565b82525050565b60006020820190506132ca60008301846132a6565b92915050565b60006080830160008301516132e86000860182612c81565b5060208301516132fb6020860182612d4e565b50604083015184820360408601526133138282612d6e565b91505060608301516133286060860182612cbc565b508091505092915050565b6000602082019050818103600083015261334d81846132d0565b905092915050565b61335e816129c1565b811461336957600080fd5b50565b60008135905061337b81613355565b92915050565b6000806040838503121561339857613397612834565b5b60006133a685828601612887565b92505060206133b78582860161336c565b9150509250929050565b6000806000606084860312156133da576133d9612834565b5b60006133e886828701612887565b93505060206133f9868287016128bd565b925050604084013567ffffffffffffffff81111561341a57613419612839565b5b61342686828701612b0f565b9150509250925092565b600060608201905061344560008301866129cd565b61345260208301856132a6565b81810360408301526134648184612bf9565b9050949350505050565b600060808201905061348360008301876129cd565b61349060208301866132a6565b81810360408301526134a28185612bf9565b90506134b16060830184612912565b95945050505050565b600080604083850312156134d1576134d0612834565b5b60006134df85828601612887565b92505060206134f085828601612887565b9150509250929050565b600080600080600060a0868803121561351657613515612834565b5b600061352488828901612887565b955050602061353588828901612887565b9450506040613546888289016128bd565b9350506060613557888289016128bd565b925050608086013567ffffffffffffffff81111561357857613577612839565b5b61358488828901612f6e565b9150509295509295909350565b7f596f7520617265206e6f7420746865206f776e6572206f66207468697320636f60008201527f6e74726163740000000000000000000000000000000000000000000000000000602082015250565b60006135ed602683612bbe565b91506135f882613591565b604082019050919050565b6000602082019050818103600083015261361c816135e0565b9050919050565b7f596f7520617265206e6f7420616c6c6f77656420746f20736574205552490000600082015250565b6000613659601e83612bbe565b915061366482613623565b602082019050919050565b600060208201905081810360008301526136888161364c565b9050919050565b600081905092915050565b60006136a582612bb3565b6136af818561368f565b93506136bf818560208601612bcf565b80840191505092915050565b7f2e6a736f6e000000000000000000000000000000000000000000000000000000600082015250565b600061370160058361368f565b915061370c826136cb565b600582019050919050565b6000613723828561369a565b915061372f828461369a565b915061373a826136f4565b91508190509392505050565b7f4e487b7100000000000000000000000000000000000000000000000000000000600052602260045260246000fd5b6000600282049050600182168061378d57607f821691505b6020821081036137a05761379f613746565b5b50919050565b60006040820190506137bb60008301856132a6565b6137c860208301846132a6565b9392505050565b60006040820190506137e46000830185612912565b6137f16020830184612912565b9392505050565b7f4e487b7100000000000000000000000000000000000000000000000000000000600052603260045260246000fd5b7f4e487b7100000000000000000000000000000000000000000000000000000000600052601160045260246000fd5b60006138618261289c565b91507fffffffffffffffffffffffffffffffffffffffffffffffffffffffffffffffff820361389357613892613827565b5b600182019050919050565b7f596f7520617265206e6f7420616c6c6f77656420746f2061636365737320636560008201527f7274696669636174650000000000000000000000000000000000000000000000602082015250565b60006138fa602983612bbe565b91506139058261389e565b604082019050919050565b60006020820190508181036000830152613929816138ed565b9050919050565b7f596f7520617265206d696e74696e67207468652077726f6e672063657274696660008201527f6963617465000000000000000000000000000000000000000000000000000000602082015250565b600061398c602583612bbe565b915061399782613930565b604082019050919050565b600060208201905081810360008301526139bb8161397f565b9050919050565b60008190508160005260206000209050919050565b60006020601f8301049050919050565b600082821b905092915050565b600060088302613a247fffffffffffffffffffffffffffffffffffffffffffffffffffffffffffffffff826139e7565b613a2e86836139e7565b95508019841693508086168417925050509392505050565b6000819050919050565b6000613a6b613a66613a618461289c565b613a46565b61289c565b9050919050565b6000819050919050565b613a8583613a50565b613a99613a9182613a72565b8484546139f4565b825550505050565b600090565b613aae613aa1565b613ab9818484613a7c565b505050565b5b81811015613add57613ad2600082613aa6565b600181019050613abf565b5050565b601f821115613b2257613af3816139c2565b613afc846139d7565b81016020851015613b0b578190505b613b1f613b17856139d7565b830182613abe565b50505b505050565b600082821c905092915050565b6000613b4560001984600802613b27565b1980831691505092915050565b6000613b5e8383613b34565b9150826002028217905092915050565b613b7782612bb3565b67ffffffffffffffff811115613b9057613b8f612a12565b5b613b9a8254613775565b613ba5828285613ae1565b600060209050601f831160018114613bd85760008415613bc6578287015190505b613bd08582613b52565b865550613c38565b601f198416613be6866139c2565b60005b82811015613c0e57848901518255600182019150602085019450602081019050613be9565b86831015613c2b5784890151613c27601f891682613b34565b8355505b6001600288020188555050505b505050505050565b7f596f7520617265206e6f74206120766572696669656420697373756572000000600082015250565b6000613c76601d83612bbe565b9150613c8182613c40565b602082019050919050565b60006020820190508181036000830152613ca581613c69565b9050919050565b7f4e487b7100000000000000000000000000000000000000000000000000000000600052601260045260246000fd5b6000608082019050613cf060008301876132a6565b613cfd6020830186612912565b613d0a6040830185612912565b613d176060830184612912565b95945050505050565b6000613d2b8261289c565b9150613d368361289c565b9250828201905080821115613d4e57613d4d613827565b5b92915050565b60006040820190508181036000830152613d6e81856131b7565b90508181036020830152613d8281846131b7565b90509392505050565b600081519050919050565b600082825260208201905092915050565b6000613db282613d8b565b613dbc8185613d96565b9350613dcc818560208601612bcf565b613dd581612a01565b840191505092915050565b600060a082019050613df560008301886132a6565b613e0260208301876132a6565b613e0f6040830186612912565b613e1c6060830185612912565b8181036080830152613e2e8184613da7565b90509695505050505050565b600081519050613e4981612968565b92915050565b600060208284031215613e6557613e64612834565b5b6000613e7384828501613e3a565b91505092915050565b600060a082019050613e9160008301886132a6565b613e9e60208301876132a6565b8181036040830152613eb081866131b7565b90508181036060830152613ec481856131b7565b90508181036080830152613ed88184613da7565b9050969550505050505056fea2646970667358221220155e2fdf5424cea89526a92b4eb4619a68930bb7544f15e23b52426d101dbad664736f6c63430008140033697066733a2f2f516d507a794c436d694a614e487764746f6e355a6f6a736e34763862525a61706535526b4e4764363364643141322f",
  "linkReferences": {},
  "deployedLinkReferences": {}
}