{
  "_format": "hh-sol-artifact-1",
  "contractName": "certificate",
  "sourceName": "contracts/certificate.sol",
  "abi": [
    {
      "inputs": [],
      "stateMutability": "nonpayable",
      "type": "constructor"
    },
    {
      "inputs": [
        {
          "internalType": "address",
          "name": "sender",
          "type": "address"
        },
        {
          "internalType": "uint256",
          "name": "balance",
          "type": "uint256"
        },
        {
          "internalType": "uint256",
          "name": "needed",
          "type": "uint256"
        },
        {
          "internalType": "uint256",
          "name": "tokenId",
          "type": "uint256"
        }
      ],
      "name": "ERC1155InsufficientBalance",
      "type": "error"
    },
    {
      "inputs": [
        {
          "internalType": "address",
          "name": "approver",
          "type": "address"
        }
      ],
      "name": "ERC1155InvalidApprover",
      "type": "error"
    },
    {
      "inputs": [
        {
          "internalType": "uint256",
          "name": "idsLength",
          "type": "uint256"
        },
        {
          "internalType": "uint256",
          "name": "valuesLength",
          "type": "uint256"
        }
      ],
      "name": "ERC1155InvalidArrayLength",
      "type": "error"
    },
    {
      "inputs": [
        {
          "internalType": "address",
          "name": "operator",
          "type": "address"
        }
      ],
      "name": "ERC1155InvalidOperator",
      "type": "error"
    },
    {
      "inputs": [
        {
          "internalType": "address",
          "name": "receiver",
          "type": "address"
        }
      ],
      "name": "ERC1155InvalidReceiver",
      "type": "error"
    },
    {
      "inputs": [
        {
          "internalType": "address",
          "name": "sender",
          "type": "address"
        }
      ],
      "name": "ERC1155InvalidSender",
      "type": "error"
    },
    {
      "inputs": [
        {
          "internalType": "address",
          "name": "operator",
          "type": "address"
        },
        {
          "internalType": "address",
          "name": "owner",
          "type": "address"
        }
      ],
      "name": "ERC1155MissingApprovalForAll",
      "type": "error"
    },
    {
      "inputs": [
        {
          "internalType": "string",
          "name": "",
          "type": "string"
        }
      ],
      "name": "throwError",
      "type": "error"
    },
    {
      "anonymous": false,
      "inputs": [
        {
          "indexed": true,
          "internalType": "address",
          "name": "account",
          "type": "address"
        },
        {
          "indexed": true,
          "internalType": "address",
          "name": "operator",
          "type": "address"
        },
        {
          "indexed": false,
          "internalType": "bool",
          "name": "approved",
          "type": "bool"
        }
      ],
      "name": "ApprovalForAll",
      "type": "event"
    },
    {
      "anonymous": false,
      "inputs": [
        {
          "indexed": true,
          "internalType": "address",
          "name": "operator",
          "type": "address"
        },
        {
          "indexed": true,
          "internalType": "address",
          "name": "from",
          "type": "address"
        },
        {
          "indexed": true,
          "internalType": "address",
          "name": "to",
          "type": "address"
        },
        {
          "indexed": false,
          "internalType": "uint256[]",
          "name": "ids",
          "type": "uint256[]"
        },
        {
          "indexed": false,
          "internalType": "uint256[]",
          "name": "values",
          "type": "uint256[]"
        }
      ],
      "name": "TransferBatch",
      "type": "event"
    },
    {
      "anonymous": false,
      "inputs": [
        {
          "indexed": true,
          "internalType": "address",
          "name": "operator",
          "type": "address"
        },
        {
          "indexed": true,
          "internalType": "address",
          "name": "from",
          "type": "address"
        },
        {
          "indexed": true,
          "internalType": "address",
          "name": "to",
          "type": "address"
        },
        {
          "indexed": false,
          "internalType": "uint256",
          "name": "id",
          "type": "uint256"
        },
        {
          "indexed": false,
          "internalType": "uint256",
          "name": "value",
          "type": "uint256"
        }
      ],
      "name": "TransferSingle",
      "type": "event"
    },
    {
      "anonymous": false,
      "inputs": [
        {
          "indexed": false,
          "internalType": "string",
          "name": "value",
          "type": "string"
        },
        {
          "indexed": true,
          "internalType": "uint256",
          "name": "id",
          "type": "uint256"
        }
      ],
      "name": "URI",
      "type": "event"
    },
    {
      "inputs": [
        {
          "internalType": "address",
          "name": "",
          "type": "address"
        }
      ],
      "name": "allowedIssuer",
      "outputs": [
        {
          "internalType": "bool",
          "name": "access",
          "type": "bool"
        },
        {
          "internalType": "address",
          "name": "issuerAddress",
          "type": "address"
        },
        {
          "internalType": "string",
          "name": "organisationName",
          "type": "string"
        },
        {
          "internalType": "uint256",
          "name": "companyRegisteredNumber",
          "type": "uint256"
        }
      ],
      "stateMutability": "view",
      "type": "function"
    },
    {
      "inputs": [
        {
          "internalType": "uint256",
          "name": "id",
          "type": "uint256"
        }
      ],
      "name": "allowedMint",
      "outputs": [],
      "stateMutability": "nonpayable",
      "type": "function"
    },
    {
      "inputs": [
        {
          "internalType": "address",
          "name": "",
          "type": "address"
        }
      ],
      "name": "allowedPerson",
      "outputs": [
        {
          "internalType": "bool",
          "name": "access",
          "type": "bool"
        },
        {
          "internalType": "address",
          "name": "certificateIssuer",
          "type": "address"
        },
        {
          "internalType": "string",
          "name": "typeOfCertificate",
          "type": "string"
        }
      ],
      "stateMutability": "view",
      "type": "function"
    },
    {
      "inputs": [
        {
          "internalType": "address",
          "name": "_issuerAddress",
          "type": "address"
        },
        {
          "internalType": "string",
          "name": "_organisationName",
          "type": "string"
        },
        {
          "internalType": "uint256",
          "name": "_companyRegisteredNumber",
          "type": "uint256"
        }
      ],
      "name": "allowingIssuer",
      "outputs": [],
      "stateMutability": "nonpayable",
      "type": "function"
    },
    {
      "inputs": [
        {
          "internalType": "address",
          "name": "peopleAddress",
          "type": "address"
        },
        {
          "internalType": "uint256",
          "name": "certificateID",
          "type": "uint256"
        },
        {
          "internalType": "string",
          "name": "_typeOfCertificate",
          "type": "string"
        }
      ],
      "name": "allowingPeople",
      "outputs": [],
      "stateMutability": "nonpayable",
      "type": "function"
    },
    {
      "inputs": [
        {
          "internalType": "address",
          "name": "account",
          "type": "address"
        },
        {
          "internalType": "uint256",
          "name": "id",
          "type": "uint256"
        }
      ],
      "name": "balanceOf",
      "outputs": [
        {
          "internalType": "uint256",
          "name": "",
          "type": "uint256"
        }
      ],
      "stateMutability": "view",
      "type": "function"
    },
    {
      "inputs": [
        {
          "internalType": "address[]",
          "name": "accounts",
          "type": "address[]"
        },
        {
          "internalType": "uint256[]",
          "name": "ids",
          "type": "uint256[]"
        }
      ],
      "name": "balanceOfBatch",
      "outputs": [
        {
          "internalType": "uint256[]",
          "name": "",
          "type": "uint256[]"
        }
      ],
      "stateMutability": "view",
      "type": "function"
    },
    {
      "inputs": [
        {
          "internalType": "address",
          "name": "certificateHolderAddress",
          "type": "address"
        }
      ],
      "name": "getDetailsOfCertificateHolder",
      "outputs": [
        {
          "components": [
            {
              "internalType": "bool",
              "name": "access",
              "type": "bool"
            },
            {
              "internalType": "uint256[]",
              "name": "id",
              "type": "uint256[]"
            },
            {
              "internalType": "address",
              "name": "certificateIssuer",
              "type": "address"
            },
            {
              "internalType": "string",
              "name": "typeOfCertificate",
              "type": "string"
            }
          ],
          "internalType": "struct certificate.people",
          "name": "",
          "type": "tuple"
        }
      ],
      "stateMutability": "view",
      "type": "function"
    },
    {
      "inputs": [
        {
          "internalType": "address",
          "name": "certificateIssuer",
          "type": "address"
        }
      ],
      "name": "getDetailsOfCertificateIssuer",
      "outputs": [
        {
          "components": [
            {
              "internalType": "bool",
              "name": "access",
              "type": "bool"
            },
            {
              "internalType": "uint256[]",
              "name": "id",
              "type": "uint256[]"
            },
            {
              "internalType": "address",
              "name": "certificateIssuer",
              "type": "address"
            },
            {
              "internalType": "string",
              "name": "typeOfCertificate",
              "type": "string"
            }
          ],
          "internalType": "struct certificate.people",
          "name": "",
          "type": "tuple"
        }
      ],
      "stateMutability": "view",
      "type": "function"
    },
    {
      "inputs": [
        {
          "internalType": "address",
          "name": "account",
          "type": "address"
        },
        {
          "internalType": "address",
          "name": "operator",
          "type": "address"
        }
      ],
      "name": "isApprovedForAll",
      "outputs": [
        {
          "internalType": "bool",
          "name": "",
          "type": "bool"
        }
      ],
      "stateMutability": "view",
      "type": "function"
    },
    {
      "inputs": [
        {
          "internalType": "address",
          "name": "_issuerAddress",
          "type": "address"
        }
      ],
      "name": "removingIssuer",
      "outputs": [],
      "stateMutability": "nonpayable",
      "type": "function"
    },
    {
      "inputs": [
        {
          "internalType": "address",
          "name": "from",
          "type": "address"
        },
        {
          "internalType": "address",
          "name": "to",
          "type": "address"
        },
        {
          "internalType": "uint256[]",
          "name": "ids",
          "type": "uint256[]"
        },
        {
          "internalType": "uint256[]",
          "name": "values",
          "type": "uint256[]"
        },
        {
          "internalType": "bytes",
          "name": "data",
          "type": "bytes"
        }
      ],
      "name": "safeBatchTransferFrom",
      "outputs": [],
      "stateMutability": "nonpayable",
      "type": "function"
    },
    {
      "inputs": [
        {
          "internalType": "address",
          "name": "from",
          "type": "address"
        },
        {
          "internalType": "address",
          "name": "to",
          "type": "address"
        },
        {
          "internalType": "uint256",
          "name": "id",
          "type": "uint256"
        },
        {
          "internalType": "uint256",
          "name": "value",
          "type": "uint256"
        },
        {
          "internalType": "bytes",
          "name": "data",
          "type": "bytes"
        }
      ],
      "name": "safeTransferFrom",
      "outputs": [],
      "stateMutability": "nonpayable",
      "type": "function"
    },
    {
      "inputs": [
        {
          "internalType": "address",
          "name": "operator",
          "type": "address"
        },
        {
          "internalType": "bool",
          "name": "approved",
          "type": "bool"
        }
      ],
      "name": "setApprovalForAll",
      "outputs": [],
      "stateMutability": "nonpayable",
      "type": "function"
    },
    {
      "inputs": [
        {
          "internalType": "string",
          "name": "newuri",
          "type": "string"
        }
      ],
      "name": "setURI",
      "outputs": [],
      "stateMutability": "nonpayable",
      "type": "function"
    },
    {
      "inputs": [
        {
          "internalType": "bytes4",
          "name": "interfaceId",
          "type": "bytes4"
        }
      ],
      "name": "supportsInterface",
      "outputs": [
        {
          "internalType": "bool",
          "name": "",
          "type": "bool"
        }
      ],
      "stateMutability": "view",
      "type": "function"
    },
    {
      "inputs": [
        {
          "internalType": "uint256",
          "name": "id",
          "type": "uint256"
        }
      ],
      "name": "uri",
      "outputs": [
        {
          "internalType": "string",
          "name": "",
          "type": "string"
        }
      ],
      "stateMutability": "view",
      "type": "function"
    }
  ],
  "bytecode": "0x60806040523480156200001157600080fd5b5060405180606001604052806036815260200162004258603691396200003d816200008560201b60201c565b5033600360006101000a81548173ffffffffffffffffffffffffffffffffffffffff021916908373ffffffffffffffffffffffffffffffffffffffff160217905550620003fb565b806002908162000096919062000314565b5050565b600081519050919050565b7f4e487b7100000000000000000000000000000000000000000000000000000000600052604160045260246000fd5b7f4e487b7100000000000000000000000000000000000000000000000000000000600052602260045260246000fd5b600060028204905060018216806200011c57607f821691505b602082108103620001325762000131620000d4565b5b50919050565b60008190508160005260206000209050919050565b60006020601f8301049050919050565b600082821b905092915050565b6000600883026200019c7fffffffffffffffffffffffffffffffffffffffffffffffffffffffffffffffff826200015d565b620001a886836200015d565b95508019841693508086168417925050509392505050565b6000819050919050565b6000819050919050565b6000620001f5620001ef620001e984620001c0565b620001ca565b620001c0565b9050919050565b6000819050919050565b6200021183620001d4565b620002296200022082620001fc565b8484546200016a565b825550505050565b600090565b6200024062000231565b6200024d81848462000206565b505050565b5b8181101562000275576200026960008262000236565b60018101905062000253565b5050565b601f821115620002c4576200028e8162000138565b62000299846200014d565b81016020851015620002a9578190505b620002c1620002b8856200014d565b83018262000252565b50505b505050565b600082821c905092915050565b6000620002e960001984600802620002c9565b1980831691505092915050565b6000620003048383620002d6565b9150826002028217905092915050565b6200031f826200009a565b67ffffffffffffffff8111156200033b576200033a620000a5565b5b62000347825462000103565b6200035482828562000279565b600060209050601f8311600181146200038c576000841562000377578287015190505b620003838582620002f6565b865550620003f3565b601f1984166200039c8662000138565b60005b82811015620003c6578489015182556001820191506020850194506020810190506200039f565b86831015620003e65784890151620003e2601f891682620002d6565b8355505b6001600288020188555050505b505050505050565b613e4d806200040b6000396000f3fe608060405234801561001057600080fd5b506004361061010a5760003560e01c8063812ebfd1116100a2578063d96a9f5011610071578063d96a9f50146102d7578063e3602eca14610309578063e61703b814610325578063e985e9c514610358578063f242432a146103885761010a565b8063812ebfd1146102535780639daca6141461026f578063a22cb4651461029f578063d164214d146102bb5761010a565b80631ce75209116100de5780631ce75209146101bb5780632eb2c2d6146101eb5780634e1273f41461020757806357e4be9a146102375761010a565b8062fdd58e1461010f57806301ffc9a71461013f57806302fe53051461016f5780630e89341c1461018b575b600080fd5b6101296004803603810190610124919061288a565b6103a4565b60405161013691906128d9565b60405180910390f35b6101596004803603810190610154919061294c565b6103fe565b6040516101669190612994565b60405180910390f35b61018960048036038101906101849190612af5565b6104e0565b005b6101a560048036038101906101a09190612b3e565b61066a565b6040516101b29190612bea565b60405180910390f35b6101d560048036038101906101d09190612c0c565b6106a5565b6040516101e29190612dc9565b60405180910390f35b61020560048036038101906102009190612f54565b610859565b005b610221600480360381019061021c91906130e6565b610901565b60405161022e91906131cd565b60405180910390f35b610251600480360381019061024c9190612b3e565b610a10565b005b61026d600480360381019061026891906131ef565b610c2f565b005b61028960048036038101906102849190612c0c565b610e37565b6040516102969190612dc9565b60405180910390f35b6102b960048036038101906102b4919061328a565b610feb565b005b6102d560048036038101906102d091906132ca565b611001565b005b6102f160048036038101906102ec9190612c0c565b611287565b60405161030093929190613348565b60405180910390f35b610323600480360381019061031e9190612c0c565b611366565b005b61033f600480360381019061033a9190612c0c565b611454565b60405161034f9493929190613386565b60405180910390f35b610372600480360381019061036d91906133d2565b611539565b60405161037f9190612994565b60405180910390f35b6103a2600480360381019061039d9190613412565b6115cd565b005b600080600083815260200190815260200160002060008473ffffffffffffffffffffffffffffffffffffffff1673ffffffffffffffffffffffffffffffffffffffff16815260200190815260200160002054905092915050565b60007fd9b67a26000000000000000000000000000000000000000000000000000000007bffffffffffffffffffffffffffffffffffffffffffffffffffffffff1916827bffffffffffffffffffffffffffffffffffffffffffffffffffffffff191614806104c957507f0e89341c000000000000000000000000000000000000000000000000000000007bffffffffffffffffffffffffffffffffffffffffffffffffffffffff1916827bffffffffffffffffffffffffffffffffffffffffffffffffffffffff1916145b806104d957506104d882611675565b5b9050919050565b3373ffffffffffffffffffffffffffffffffffffffff16600360009054906101000a900473ffffffffffffffffffffffffffffffffffffffff1673ffffffffffffffffffffffffffffffffffffffff1614610570576040517f08c379a00000000000000000000000000000000000000000000000000000000081526004016105679061351b565b60405180910390fd5b3373ffffffffffffffffffffffffffffffffffffffff16600360009054906101000a900473ffffffffffffffffffffffffffffffffffffffff1673ffffffffffffffffffffffffffffffffffffffff16148061061f575060011515600560003373ffffffffffffffffffffffffffffffffffffffff1673ffffffffffffffffffffffffffffffffffffffff16815260200190815260200160002060000160009054906101000a900460ff161515145b61065e576040517f08c379a000000000000000000000000000000000000000000000000000000000815260040161065590613587565b60405180910390fd5b610667816116df565b50565b6060610675826116f2565b61067e83611786565b60405160200161068f92919061362f565b6040516020818303038152906040529050919050565b6106ad6127a2565b600460008373ffffffffffffffffffffffffffffffffffffffff1673ffffffffffffffffffffffffffffffffffffffff1681526020019081526020016000206040518060800160405290816000820160009054906101000a900460ff161515151581526020016001820180548060200260200160405190810160405280929190818152602001828054801561076157602002820191906000526020600020905b81548152602001906001019080831161074d575b505050505081526020016002820160009054906101000a900473ffffffffffffffffffffffffffffffffffffffff1673ffffffffffffffffffffffffffffffffffffffff1673ffffffffffffffffffffffffffffffffffffffff1681526020016003820180546107d09061368d565b80601f01602080910402602001604051908101604052809291908181526020018280546107fc9061368d565b80156108495780601f1061081e57610100808354040283529160200191610849565b820191906000526020600020905b81548152906001019060200180831161082c57829003601f168201915b5050505050815250509050919050565b6000610863611854565b90508073ffffffffffffffffffffffffffffffffffffffff168673ffffffffffffffffffffffffffffffffffffffff16141580156108a857506108a68682611539565b155b156108ec5780866040517fe237d9220000000000000000000000000000000000000000000000000000000081526004016108e39291906136be565b60405180910390fd5b6108f9868686868661185c565b505050505050565b6060815183511461094d57815183516040517f5b0599910000000000000000000000000000000000000000000000000000000081526004016109449291906136e7565b60405180910390fd5b6000835167ffffffffffffffff81111561096a576109696129ca565b5b6040519080825280602002602001820160405280156109985781602001602082028036833780820191505090505b50905060005b8451811015610a05576109d56109bd828761195490919063ffffffff16565b6109d0838761196890919063ffffffff16565b6103a4565b8282815181106109e8576109e7613710565b5b602002602001018181525050806109fe9061376e565b905061099e565b508091505092915050565b600460003373ffffffffffffffffffffffffffffffffffffffff1673ffffffffffffffffffffffffffffffffffffffff16815260200190815260200160002060000160009054906101000a900460ff16610a9f576040517f08c379a0000000000000000000000000000000000000000000000000000000008152600401610a9690613828565b60405180910390fd5b6000805b600460003373ffffffffffffffffffffffffffffffffffffffff1673ffffffffffffffffffffffffffffffffffffffff16815260200190815260200160002060010180549050811015610bce5782600460003373ffffffffffffffffffffffffffffffffffffffff1673ffffffffffffffffffffffffffffffffffffffff1681526020019081526020016000206001018281548110610b4557610b44613710565b5b906000526020600020015403610bbb5782600460003373ffffffffffffffffffffffffffffffffffffffff1673ffffffffffffffffffffffffffffffffffffffff1681526020019081526020016000206001018281548110610baa57610ba9613710565b5b906000526020600020505050600191505b8080610bc69061376e565b915050610aa3565b5080610c0f576040517fe93b6b24000000000000000000000000000000000000000000000000000000008152600401610c06906138ba565b60405180910390fd5b610c2b338360016040518060200160405280600081525061197c565b5050565b3373ffffffffffffffffffffffffffffffffffffffff16600360009054906101000a900473ffffffffffffffffffffffffffffffffffffffff1673ffffffffffffffffffffffffffffffffffffffff1614610cbf576040517f08c379a0000000000000000000000000000000000000000000000000000000008152600401610cb69061351b565b60405180910390fd5b6001600560008573ffffffffffffffffffffffffffffffffffffffff1673ffffffffffffffffffffffffffffffffffffffff16815260200190815260200160002060000160006101000a81548160ff02191690831515021790555082600560008573ffffffffffffffffffffffffffffffffffffffff1673ffffffffffffffffffffffffffffffffffffffff16815260200190815260200160002060000160016101000a81548173ffffffffffffffffffffffffffffffffffffffff021916908373ffffffffffffffffffffffffffffffffffffffff16021790555081600560008573ffffffffffffffffffffffffffffffffffffffff1673ffffffffffffffffffffffffffffffffffffffff1681526020019081526020016000206001019081610dea9190613a86565b5080600560008573ffffffffffffffffffffffffffffffffffffffff1673ffffffffffffffffffffffffffffffffffffffff16815260200190815260200160002060020181905550505050565b610e3f6127a2565b600460008373ffffffffffffffffffffffffffffffffffffffff1673ffffffffffffffffffffffffffffffffffffffff1681526020019081526020016000206040518060800160405290816000820160009054906101000a900460ff1615151515815260200160018201805480602002602001604051908101604052809291908181526020018280548015610ef357602002820191906000526020600020905b815481526020019060010190808311610edf575b505050505081526020016002820160009054906101000a900473ffffffffffffffffffffffffffffffffffffffff1673ffffffffffffffffffffffffffffffffffffffff1673ffffffffffffffffffffffffffffffffffffffff168152602001600382018054610f629061368d565b80601f0160208091040260200160405190810160405280929190818152602001828054610f8e9061368d565b8015610fdb5780601f10610fb057610100808354040283529160200191610fdb565b820191906000526020600020905b815481529060010190602001808311610fbe57829003601f168201915b5050505050815250509050919050565b610ffd610ff6611854565b8383611a15565b5050565b600560003373ffffffffffffffffffffffffffffffffffffffff1673ffffffffffffffffffffffffffffffffffffffff16815260200190815260200160002060000160009054906101000a900460ff16611090576040517f08c379a000000000000000000000000000000000000000000000000000000000815260040161108790613ba4565b60405180910390fd5b6001600460008573ffffffffffffffffffffffffffffffffffffffff1673ffffffffffffffffffffffffffffffffffffffff16815260200190815260200160002060000160006101000a81548160ff0219169083151502179055506000600460008573ffffffffffffffffffffffffffffffffffffffff1673ffffffffffffffffffffffffffffffffffffffff16815260200190815260200160002060010180549050036111a657600460008473ffffffffffffffffffffffffffffffffffffffff1673ffffffffffffffffffffffffffffffffffffffff1681526020019081526020016000206001018290806001815401808255809150506001900390600052602060002001600090919091909150556111b1565b6111b08383611b85565b5b33600460008573ffffffffffffffffffffffffffffffffffffffff1673ffffffffffffffffffffffffffffffffffffffff16815260200190815260200160002060020160006101000a81548173ffffffffffffffffffffffffffffffffffffffff021916908373ffffffffffffffffffffffffffffffffffffffff16021790555080600460008573ffffffffffffffffffffffffffffffffffffffff1673ffffffffffffffffffffffffffffffffffffffff16815260200190815260200160002060030190816112819190613a86565b50505050565b60046020528060005260406000206000915090508060000160009054906101000a900460ff16908060020160009054906101000a900473ffffffffffffffffffffffffffffffffffffffff16908060030180546112e39061368d565b80601f016020809104026020016040519081016040528092919081815260200182805461130f9061368d565b801561135c5780601f106113315761010080835404028352916020019161135c565b820191906000526020600020905b81548152906001019060200180831161133f57829003601f168201915b5050505050905083565b3373ffffffffffffffffffffffffffffffffffffffff16600360009054906101000a900473ffffffffffffffffffffffffffffffffffffffff1673ffffffffffffffffffffffffffffffffffffffff16146113f6576040517f08c379a00000000000000000000000000000000000000000000000000000000081526004016113ed9061351b565b60405180910390fd5b6000600560008373ffffffffffffffffffffffffffffffffffffffff1673ffffffffffffffffffffffffffffffffffffffff16815260200190815260200160002060000160006101000a81548160ff02191690831515021790555050565b60056020528060005260406000206000915090508060000160009054906101000a900460ff16908060000160019054906101000a900473ffffffffffffffffffffffffffffffffffffffff16908060010180546114b09061368d565b80601f01602080910402602001604051908101604052809291908181526020018280546114dc9061368d565b80156115295780601f106114fe57610100808354040283529160200191611529565b820191906000526020600020905b81548152906001019060200180831161150c57829003601f168201915b5050505050908060020154905084565b6000600160008473ffffffffffffffffffffffffffffffffffffffff1673ffffffffffffffffffffffffffffffffffffffff16815260200190815260200160002060008373ffffffffffffffffffffffffffffffffffffffff1673ffffffffffffffffffffffffffffffffffffffff16815260200190815260200160002060009054906101000a900460ff16905092915050565b60006115d7611854565b90508073ffffffffffffffffffffffffffffffffffffffff168673ffffffffffffffffffffffffffffffffffffffff161415801561161c575061161a8682611539565b155b156116605780866040517fe237d9220000000000000000000000000000000000000000000000000000000081526004016116579291906136be565b60405180910390fd5b61166d8686868686611d4c565b505050505050565b60007f01ffc9a7000000000000000000000000000000000000000000000000000000007bffffffffffffffffffffffffffffffffffffffffffffffffffffffff1916827bffffffffffffffffffffffffffffffffffffffffffffffffffffffff1916149050919050565b80600290816116ee9190613a86565b5050565b6060600280546117019061368d565b80601f016020809104026020016040519081016040528092919081815260200182805461172d9061368d565b801561177a5780601f1061174f5761010080835404028352916020019161177a565b820191906000526020600020905b81548152906001019060200180831161175d57829003601f168201915b50505050509050919050565b60606000600161179584611e57565b01905060008167ffffffffffffffff8111156117b4576117b36129ca565b5b6040519080825280601f01601f1916602001820160405280156117e65781602001600182028036833780820191505090505b509050600082602001820190505b600115611849578080600190039150507f3031323334353637383961626364656600000000000000000000000000000000600a86061a8153600a858161183d5761183c613bc4565b5b049450600085036117f4575b819350505050919050565b600033905090565b600073ffffffffffffffffffffffffffffffffffffffff168473ffffffffffffffffffffffffffffffffffffffff16036118ce5760006040517f57f447ce0000000000000000000000000000000000000000000000000000000081526004016118c59190613bf3565b60405180910390fd5b600073ffffffffffffffffffffffffffffffffffffffff168573ffffffffffffffffffffffffffffffffffffffff16036119405760006040517f01a835140000000000000000000000000000000000000000000000000000000081526004016119379190613bf3565b60405180910390fd5b61194d8585858585611faa565b5050505050565b600060208202602084010151905092915050565b600060208202602084010151905092915050565b600073ffffffffffffffffffffffffffffffffffffffff168473ffffffffffffffffffffffffffffffffffffffff16036119ee5760006040517f57f447ce0000000000000000000000000000000000000000000000000000000081526004016119e59190613bf3565b60405180910390fd5b6000806119fb858561205c565b91509150611a0d600087848487611faa565b505050505050565b600073ffffffffffffffffffffffffffffffffffffffff168273ffffffffffffffffffffffffffffffffffffffff1603611a875760006040517fced3e100000000000000000000000000000000000000000000000000000000008152600401611a7e9190613bf3565b60405180910390fd5b80600160008573ffffffffffffffffffffffffffffffffffffffff1673ffffffffffffffffffffffffffffffffffffffff16815260200190815260200160002060008473ffffffffffffffffffffffffffffffffffffffff1673ffffffffffffffffffffffffffffffffffffffff16815260200190815260200160002060006101000a81548160ff0219169083151502179055508173ffffffffffffffffffffffffffffffffffffffff168373ffffffffffffffffffffffffffffffffffffffff167f17307eab39ab6107e8899845ad3d59bd9653f200f220920489ca2b5937696c3183604051611b789190612994565b60405180910390a3505050565b3373ffffffffffffffffffffffffffffffffffffffff16600360009054906101000a900473ffffffffffffffffffffffffffffffffffffffff1673ffffffffffffffffffffffffffffffffffffffff1614611c15576040517f08c379a0000000000000000000000000000000000000000000000000000000008152600401611c0c9061351b565b60405180910390fd5b60005b600460008473ffffffffffffffffffffffffffffffffffffffff1673ffffffffffffffffffffffffffffffffffffffff16815260200190815260200160002060010180549050811015611d475781600460008573ffffffffffffffffffffffffffffffffffffffff1673ffffffffffffffffffffffffffffffffffffffff1681526020019081526020016000206001018281548110611cba57611cb9613710565b5b906000526020600020015414611d3457600460008473ffffffffffffffffffffffffffffffffffffffff1673ffffffffffffffffffffffffffffffffffffffff1681526020019081526020016000206001018290806001815401808255809150506001900390600052602060002001600090919091909150555b8080611d3f9061376e565b915050611c18565b505050565b600073ffffffffffffffffffffffffffffffffffffffff168473ffffffffffffffffffffffffffffffffffffffff1603611dbe5760006040517f57f447ce000000000000000000000000000000000000000000000000000000008152600401611db59190613bf3565b60405180910390fd5b600073ffffffffffffffffffffffffffffffffffffffff168573ffffffffffffffffffffffffffffffffffffffff1603611e305760006040517f01a83514000000000000000000000000000000000000000000000000000000008152600401611e279190613bf3565b60405180910390fd5b600080611e3d858561205c565b91509150611e4e8787848487611faa565b50505050505050565b600080600090507a184f03e93ff9f4daa797ed6e38ed64bf6a1f0100000000000000008310611eb5577a184f03e93ff9f4daa797ed6e38ed64bf6a1f0100000000000000008381611eab57611eaa613bc4565b5b0492506040810190505b6d04ee2d6d415b85acef81000000008310611ef2576d04ee2d6d415b85acef81000000008381611ee857611ee7613bc4565b5b0492506020810190505b662386f26fc100008310611f2157662386f26fc100008381611f1757611f16613bc4565b5b0492506010810190505b6305f5e1008310611f4a576305f5e1008381611f4057611f3f613bc4565b5b0492506008810190505b6127108310611f6f576127108381611f6557611f64613bc4565b5b0492506004810190505b60648310611f925760648381611f8857611f87613bc4565b5b0492506002810190505b600a8310611fa1576001810190505b80915050919050565b611fb68585858561208c565b600073ffffffffffffffffffffffffffffffffffffffff168473ffffffffffffffffffffffffffffffffffffffff1614612055576000611ff4611854565b9050600184510361204457600061201560008661196890919063ffffffff16565b9050600061202d60008661196890919063ffffffff16565b905061203d83898985858961243a565b5050612053565b6120528187878787876125ee565b5b505b5050505050565b60608060405191506001825283602083015260408201905060018152826020820152604081016040529250929050565b80518251146120d657815181516040517f5b0599910000000000000000000000000000000000000000000000000000000081526004016120cd9291906136e7565b60405180910390fd5b60006120e0611854565b905060005b83518110156122f5576000612103828661196890919063ffffffff16565b9050600061211a838661196890919063ffffffff16565b9050600073ffffffffffffffffffffffffffffffffffffffff168873ffffffffffffffffffffffffffffffffffffffff161461224757600080600084815260200190815260200160002060008a73ffffffffffffffffffffffffffffffffffffffff1673ffffffffffffffffffffffffffffffffffffffff168152602001908152602001600020549050818110156121ef57888183856040517f03dee4c50000000000000000000000000000000000000000000000000000000081526004016121e69493929190613c0e565b60405180910390fd5b81810360008085815260200190815260200160002060008b73ffffffffffffffffffffffffffffffffffffffff1673ffffffffffffffffffffffffffffffffffffffff16815260200190815260200160002081905550505b600073ffffffffffffffffffffffffffffffffffffffff168773ffffffffffffffffffffffffffffffffffffffff16146122e2578060008084815260200190815260200160002060008973ffffffffffffffffffffffffffffffffffffffff1673ffffffffffffffffffffffffffffffffffffffff16815260200190815260200160002060008282546122da9190613c53565b925050819055505b5050806122ee9061376e565b90506120e5565b5060018351036123b457600061231560008561196890919063ffffffff16565b9050600061232d60008561196890919063ffffffff16565b90508573ffffffffffffffffffffffffffffffffffffffff168773ffffffffffffffffffffffffffffffffffffffff168473ffffffffffffffffffffffffffffffffffffffff167fc3d58168c5ae7397731d063d5bbf3d657854427343f4c083240f7aacaa2d0f6285856040516123a59291906136e7565b60405180910390a45050612433565b8373ffffffffffffffffffffffffffffffffffffffff168573ffffffffffffffffffffffffffffffffffffffff168273ffffffffffffffffffffffffffffffffffffffff167f4a39dc06d4c0dbc64b70af90fd698a233a518aa5d07e595d983b8c0526c8f7fb868660405161242a929190613c87565b60405180910390a45b5050505050565b60008473ffffffffffffffffffffffffffffffffffffffff163b11156125e6578373ffffffffffffffffffffffffffffffffffffffff1663f23a6e6187878686866040518663ffffffff1660e01b815260040161249b959493929190613d13565b6020604051808303816000875af19250505080156124d757506040513d601f19601f820116820180604052508101906124d49190613d82565b60015b61255b573d8060008114612507576040519150601f19603f3d011682016040523d82523d6000602084013e61250c565b606091505b50600081510361255357846040517f57f447ce00000000000000000000000000000000000000000000000000000000815260040161254a9190613bf3565b60405180910390fd5b805181602001fd5b63f23a6e6160e01b7bffffffffffffffffffffffffffffffffffffffffffffffffffffffff1916817bffffffffffffffffffffffffffffffffffffffffffffffffffffffff1916146125e457846040517f57f447ce0000000000000000000000000000000000000000000000000000000081526004016125db9190613bf3565b60405180910390fd5b505b505050505050565b60008473ffffffffffffffffffffffffffffffffffffffff163b111561279a578373ffffffffffffffffffffffffffffffffffffffff1663bc197c8187878686866040518663ffffffff1660e01b815260040161264f959493929190613daf565b6020604051808303816000875af192505050801561268b57506040513d601f19601f820116820180604052508101906126889190613d82565b60015b61270f573d80600081146126bb576040519150601f19603f3d011682016040523d82523d6000602084013e6126c0565b606091505b50600081510361270757846040517f57f447ce0000000000000000000000000000000000000000000000000000000081526004016126fe9190613bf3565b60405180910390fd5b805181602001fd5b63bc197c8160e01b7bffffffffffffffffffffffffffffffffffffffffffffffffffffffff1916817bffffffffffffffffffffffffffffffffffffffffffffffffffffffff19161461279857846040517f57f447ce00000000000000000000000000000000000000000000000000000000815260040161278f9190613bf3565b60405180910390fd5b505b505050505050565b604051806080016040528060001515815260200160608152602001600073ffffffffffffffffffffffffffffffffffffffff168152602001606081525090565b6000604051905090565b600080fd5b600080fd5b600073ffffffffffffffffffffffffffffffffffffffff82169050919050565b6000612821826127f6565b9050919050565b61283181612816565b811461283c57600080fd5b50565b60008135905061284e81612828565b92915050565b6000819050919050565b61286781612854565b811461287257600080fd5b50565b6000813590506128848161285e565b92915050565b600080604083850312156128a1576128a06127ec565b5b60006128af8582860161283f565b92505060206128c085828601612875565b9150509250929050565b6128d381612854565b82525050565b60006020820190506128ee60008301846128ca565b92915050565b60007fffffffff0000000000000000000000000000000000000000000000000000000082169050919050565b612929816128f4565b811461293457600080fd5b50565b60008135905061294681612920565b92915050565b600060208284031215612962576129616127ec565b5b600061297084828501612937565b91505092915050565b60008115159050919050565b61298e81612979565b82525050565b60006020820190506129a96000830184612985565b92915050565b600080fd5b600080fd5b6000601f19601f8301169050919050565b7f4e487b7100000000000000000000000000000000000000000000000000000000600052604160045260246000fd5b612a02826129b9565b810181811067ffffffffffffffff82111715612a2157612a206129ca565b5b80604052505050565b6000612a346127e2565b9050612a4082826129f9565b919050565b600067ffffffffffffffff821115612a6057612a5f6129ca565b5b612a69826129b9565b9050602081019050919050565b82818337600083830152505050565b6000612a98612a9384612a45565b612a2a565b905082815260208101848484011115612ab457612ab36129b4565b5b612abf848285612a76565b509392505050565b600082601f830112612adc57612adb6129af565b5b8135612aec848260208601612a85565b91505092915050565b600060208284031215612b0b57612b0a6127ec565b5b600082013567ffffffffffffffff811115612b2957612b286127f1565b5b612b3584828501612ac7565b91505092915050565b600060208284031215612b5457612b536127ec565b5b6000612b6284828501612875565b91505092915050565b600081519050919050565b600082825260208201905092915050565b60005b83811015612ba5578082015181840152602081019050612b8a565b60008484015250505050565b6000612bbc82612b6b565b612bc68185612b76565b9350612bd6818560208601612b87565b612bdf816129b9565b840191505092915050565b60006020820190508181036000830152612c048184612bb1565b905092915050565b600060208284031215612c2257612c216127ec565b5b6000612c308482850161283f565b91505092915050565b612c4281612979565b82525050565b600081519050919050565b600082825260208201905092915050565b6000819050602082019050919050565b612c7d81612854565b82525050565b6000612c8f8383612c74565b60208301905092915050565b6000602082019050919050565b6000612cb382612c48565b612cbd8185612c53565b9350612cc883612c64565b8060005b83811015612cf9578151612ce08882612c83565b9750612ceb83612c9b565b925050600181019050612ccc565b5085935050505092915050565b612d0f81612816565b82525050565b600082825260208201905092915050565b6000612d3182612b6b565b612d3b8185612d15565b9350612d4b818560208601612b87565b612d54816129b9565b840191505092915050565b6000608083016000830151612d776000860182612c39565b5060208301518482036020860152612d8f8282612ca8565b9150506040830151612da46040860182612d06565b5060608301518482036060860152612dbc8282612d26565b9150508091505092915050565b60006020820190508181036000830152612de38184612d5f565b905092915050565b600067ffffffffffffffff821115612e0657612e056129ca565b5b602082029050602081019050919050565b600080fd5b6000612e2f612e2a84612deb565b612a2a565b90508083825260208201905060208402830185811115612e5257612e51612e17565b5b835b81811015612e7b5780612e678882612875565b845260208401935050602081019050612e54565b5050509392505050565b600082601f830112612e9a57612e996129af565b5b8135612eaa848260208601612e1c565b91505092915050565b600067ffffffffffffffff821115612ece57612ecd6129ca565b5b612ed7826129b9565b9050602081019050919050565b6000612ef7612ef284612eb3565b612a2a565b905082815260208101848484011115612f1357612f126129b4565b5b612f1e848285612a76565b509392505050565b600082601f830112612f3b57612f3a6129af565b5b8135612f4b848260208601612ee4565b91505092915050565b600080600080600060a08688031215612f7057612f6f6127ec565b5b6000612f7e8882890161283f565b9550506020612f8f8882890161283f565b945050604086013567ffffffffffffffff811115612fb057612faf6127f1565b5b612fbc88828901612e85565b935050606086013567ffffffffffffffff811115612fdd57612fdc6127f1565b5b612fe988828901612e85565b925050608086013567ffffffffffffffff81111561300a576130096127f1565b5b61301688828901612f26565b9150509295509295909350565b600067ffffffffffffffff82111561303e5761303d6129ca565b5b602082029050602081019050919050565b600061306261305d84613023565b612a2a565b9050808382526020820190506020840283018581111561308557613084612e17565b5b835b818110156130ae578061309a888261283f565b845260208401935050602081019050613087565b5050509392505050565b600082601f8301126130cd576130cc6129af565b5b81356130dd84826020860161304f565b91505092915050565b600080604083850312156130fd576130fc6127ec565b5b600083013567ffffffffffffffff81111561311b5761311a6127f1565b5b613127858286016130b8565b925050602083013567ffffffffffffffff811115613148576131476127f1565b5b61315485828601612e85565b9150509250929050565b600082825260208201905092915050565b600061317a82612c48565b613184818561315e565b935061318f83612c64565b8060005b838110156131c05781516131a78882612c83565b97506131b283612c9b565b925050600181019050613193565b5085935050505092915050565b600060208201905081810360008301526131e7818461316f565b905092915050565b600080600060608486031215613208576132076127ec565b5b60006132168682870161283f565b935050602084013567ffffffffffffffff811115613237576132366127f1565b5b61324386828701612ac7565b925050604061325486828701612875565b9150509250925092565b61326781612979565b811461327257600080fd5b50565b6000813590506132848161325e565b92915050565b600080604083850312156132a1576132a06127ec565b5b60006132af8582860161283f565b92505060206132c085828601613275565b9150509250929050565b6000806000606084860312156132e3576132e26127ec565b5b60006132f18682870161283f565b935050602061330286828701612875565b925050604084013567ffffffffffffffff811115613323576133226127f1565b5b61332f86828701612ac7565b9150509250925092565b61334281612816565b82525050565b600060608201905061335d6000830186612985565b61336a6020830185613339565b818103604083015261337c8184612bb1565b9050949350505050565b600060808201905061339b6000830187612985565b6133a86020830186613339565b81810360408301526133ba8185612bb1565b90506133c960608301846128ca565b95945050505050565b600080604083850312156133e9576133e86127ec565b5b60006133f78582860161283f565b92505060206134088582860161283f565b9150509250929050565b600080600080600060a0868803121561342e5761342d6127ec565b5b600061343c8882890161283f565b955050602061344d8882890161283f565b945050604061345e88828901612875565b935050606061346f88828901612875565b925050608086013567ffffffffffffffff8111156134905761348f6127f1565b5b61349c88828901612f26565b9150509295509295909350565b7f596f7520617265206e6f7420746865206f776e6572206f66207468697320636f60008201527f6e74726163740000000000000000000000000000000000000000000000000000602082015250565b6000613505602683612b76565b9150613510826134a9565b604082019050919050565b60006020820190508181036000830152613534816134f8565b9050919050565b7f596f7520617265206e6f7420616c6c6f77656420746f20736574205552490000600082015250565b6000613571601e83612b76565b915061357c8261353b565b602082019050919050565b600060208201905081810360008301526135a081613564565b9050919050565b600081905092915050565b60006135bd82612b6b565b6135c781856135a7565b93506135d7818560208601612b87565b80840191505092915050565b7f2e6a736f6e000000000000000000000000000000000000000000000000000000600082015250565b60006136196005836135a7565b9150613624826135e3565b600582019050919050565b600061363b82856135b2565b915061364782846135b2565b91506136528261360c565b91508190509392505050565b7f4e487b7100000000000000000000000000000000000000000000000000000000600052602260045260246000fd5b600060028204905060018216806136a557607f821691505b6020821081036136b8576136b761365e565b5b50919050565b60006040820190506136d36000830185613339565b6136e06020830184613339565b9392505050565b60006040820190506136fc60008301856128ca565b61370960208301846128ca565b9392505050565b7f4e487b7100000000000000000000000000000000000000000000000000000000600052603260045260246000fd5b7f4e487b7100000000000000000000000000000000000000000000000000000000600052601160045260246000fd5b600061377982612854565b91507fffffffffffffffffffffffffffffffffffffffffffffffffffffffffffffffff82036137ab576137aa61373f565b5b600182019050919050565b7f596f7520617265206e6f7420616c6c6f77656420746f2061636365737320636560008201527f7274696669636174650000000000000000000000000000000000000000000000602082015250565b6000613812602983612b76565b915061381d826137b6565b604082019050919050565b6000602082019050818103600083015261384181613805565b9050919050565b7f596f7520617265206d696e74696e67207468652077726f6e672063657274696660008201527f6963617465000000000000000000000000000000000000000000000000000000602082015250565b60006138a4602583612b76565b91506138af82613848565b604082019050919050565b600060208201905081810360008301526138d381613897565b9050919050565b60008190508160005260206000209050919050565b60006020601f8301049050919050565b600082821b905092915050565b60006008830261393c7fffffffffffffffffffffffffffffffffffffffffffffffffffffffffffffffff826138ff565b61394686836138ff565b95508019841693508086168417925050509392505050565b6000819050919050565b600061398361397e61397984612854565b61395e565b612854565b9050919050565b6000819050919050565b61399d83613968565b6139b16139a98261398a565b84845461390c565b825550505050565b600090565b6139c66139b9565b6139d1818484613994565b505050565b5b818110156139f5576139ea6000826139be565b6001810190506139d7565b5050565b601f821115613a3a57613a0b816138da565b613a14846138ef565b81016020851015613a23578190505b613a37613a2f856138ef565b8301826139d6565b50505b505050565b600082821c905092915050565b6000613a5d60001984600802613a3f565b1980831691505092915050565b6000613a768383613a4c565b9150826002028217905092915050565b613a8f82612b6b565b67ffffffffffffffff811115613aa857613aa76129ca565b5b613ab2825461368d565b613abd8282856139f9565b600060209050601f831160018114613af05760008415613ade578287015190505b613ae88582613a6a565b865550613b50565b601f198416613afe866138da565b60005b82811015613b2657848901518255600182019150602085019450602081019050613b01565b86831015613b435784890151613b3f601f891682613a4c565b8355505b6001600288020188555050505b505050505050565b7f596f7520617265206e6f74206120766572696669656420697373756572000000600082015250565b6000613b8e601d83612b76565b9150613b9982613b58565b602082019050919050565b60006020820190508181036000830152613bbd81613b81565b9050919050565b7f4e487b7100000000000000000000000000000000000000000000000000000000600052601260045260246000fd5b6000602082019050613c086000830184613339565b92915050565b6000608082019050613c236000830187613339565b613c3060208301866128ca565b613c3d60408301856128ca565b613c4a60608301846128ca565b95945050505050565b6000613c5e82612854565b9150613c6983612854565b9250828201905080821115613c8157613c8061373f565b5b92915050565b60006040820190508181036000830152613ca1818561316f565b90508181036020830152613cb5818461316f565b90509392505050565b600081519050919050565b600082825260208201905092915050565b6000613ce582613cbe565b613cef8185613cc9565b9350613cff818560208601612b87565b613d08816129b9565b840191505092915050565b600060a082019050613d286000830188613339565b613d356020830187613339565b613d4260408301866128ca565b613d4f60608301856128ca565b8181036080830152613d618184613cda565b90509695505050505050565b600081519050613d7c81612920565b92915050565b600060208284031215613d9857613d976127ec565b5b6000613da684828501613d6d565b91505092915050565b600060a082019050613dc46000830188613339565b613dd16020830187613339565b8181036040830152613de3818661316f565b90508181036060830152613df7818561316f565b90508181036080830152613e0b8184613cda565b9050969550505050505056fea26469706673582212209387d6107de3a57177bdcdf5a4f2eea63dc8feb18f8618760ad6ebb7fffb8beb64736f6c63430008140033697066733a2f2f516d507a794c436d694a614e487764746f6e355a6f6a736e34763862525a61706535526b4e4764363364643141322f",
  "linkReferences": {},
  "deployedLinkReferences": {}
}